:03000000020B00F0
:03000B00020A2EB8
:03001B00020A25B1
:10001E00C0E0C0D0C000E4F53EF53FF5407810E5F5
:10002E003BA2E7E53A33F53AE53B33F53BE53E35A2
:10003E003ED4F53EE53F353FD4F53FE5403540D45F
:10004E00F540D8DBD000D0D0D0E02213C0D030E7BE
:10005E000224D030E30224FDD0D022C0E0C0D0C0B4
:10006E0000C03EC03FC0407810C3E540120059F5B5
:10007E0040E53F120059F53FE53E120059F53EE5C9
:10008E003B13F53BE53A13F53AD8DED040D03FD0DE
:10009E003ED000D0D0D0E022C0E0C0D0E53A253C22
:1000AE00F53AE53B353DF53BD0D0D0E022C0E0C07F
:1000BE00D0C3E53A953CF53AE53B953DF53BD0D0BE
:1000CE00D0E022C0E0C0D0C3E53A953CE53B953D7B
:1000DE009203D0D0D0E022C0E0C0D0C3E53C953A28
:1000EE00E53D953B9203D0D0D0E022C0E0C0D0C217
:1000FE0003C3E53C953A7008E53D953B7002D2038B
:10010E00D0D0D0E0221200F92003030200E5221223
:10011E0000F92003030200D122C0E0C0F0C0D0C01D
:10012E0000C001E53A853CF0A4F8A9F0E53B853C1A
:10013E00F0A429F9E435F0FAE53A853DF0A429F961
:10014E00893B883AD001D000D0D0D0F0D0E022C088
:10015E00E0C0F0C0D0C000C001C002C00378807AF9
:10016E00087B00EB48FBF5F0A4C3953AF9E5F09552
:10017E003B49600D50028004E8F45BFBE803F8DABB
:10018E00E28B3A753B00D003D002D001D000D0D024
:10019E00D0F0D0E022C0E0C0D0C000C001C0027AD2
:1001AE0010E4F8F9C3E53A33F53AE53B33F53BE8AD
:1001BE0033F8E933F9C3E8953CE9953D400BE895F2
:1001CE003CF8E9953DF9433A01DAD9D002D001D095
:1001DE0000D0D0D0E022853A3C853B3D22E53AC5A1
:0A01EE003CF53AE53BC53DF53B2228
:1001F80000010101010101010107000201010101E2
:1002080001010107000301010101010101070004C7
:1002180001010101010101070005010101010101BD
:1002280001070006010101010101010700060101A2
:100238000101010101070006020101010101010795
:100248000006030101010101010700060401010183
:10025800010101070006050101010101010700066E
:100268000601010101010107000606010101010162
:100278000107000606020101010101070006060345
:10028800010101010107000606040101010101073E
:100298000006060501010101010700060606010125
:1002A8000101010700060606010101010107000618
:1002B8000606020101010107000606060301010105
:1002C80001070006060604010101010700060606EB
:1002D80005010101010700060606060101010107E3
:1002E80000060606060101010107000606060602C9
:1002F80001010107000606060603010101070006C1
:1003080006060604010101070006060606050101A6
:100318000107000606060606010101070006060693
:100328000606010101070006060606060201010786
:10033800000606060606030101070006060606066D
:100348000401010700060606060605010107000666
:100358000606060606010107000606060606060149
:10036800010700060606060606020107000606063D
:100378000606060301070006060606060604010728
:100388000006060606060605010700060606060616
:100398000606010700060606060606060107000609
:1003A80006060606060602070006060606060606EE
:1003B80003070006060606060606040700060606E4
:1003C80006060606050700060606060606060607CA
:1003D800C000C001790A786FD8FED9FAD001D000E0
:1003E80022C000C00179327864D8FED9FAD001D091
:1003F8000022C000C0017A2879FE78FDD8FED9FA1B
:10040800DAF6D001D0002275D9011204531203E99B
:1004180075D9801204531203E922D2DBC2D9120320
:10042800E975DAFFC2D875D90C12045375D9381298
:1004380004531203E91206E575D901120453120395
:10044800E975D9801204531203FA22C2DA0000D2E5
:10045800D9000000000000C2D91203E922D2DA0054
:1004680000D2D9000000000000C2D91203E92230EE
:100478003132333435363738391022FF2425269067
:100488000477E53F6007540F93F5498003754920C9
:10049800E53EC4540F93F548E53E540F93F54722C3
:1004A80049646C65105072656865617410526566C0
:1004B8006C6F7710536F616B1053657420536F61C5
:1004C8006B2054696D6510536574205265666C6FB6
:1004D800772054696D6510536574205265666C6F9A
:1004E800772054656D701053657420536F616B20CD
:1004F80054656D7010436F6F6C696E6710446F6E52
:100508006510506F776572204F666610446F6F7282
:1005180020416A617210E54DB40C031205EEB40176
:1005280003120569B40203120574B40303120582A9
:10053800B40403120590B4050312059EB406031211
:1005480005A9B407031205B4B408031205BFB4091A
:10055800031205CAB40A031205D8B40B031205E343
:1005680022C0E09004A81205F9D0E022C0E090046F
:10057800AD1205F9120652D0E022C0E09004B5127F
:1005880005F9120652D0E022C0E09004BC1205F929
:10059800120652D0E022C0E09004C11205F9D0E062
:1005A80022C0E09004CF1205F9D0E022C0E0900408
:1005B800DF1205F9D0E022C0E09004EF1205F9D06F
:1005C800E022C0E09004FD1205F9120652D0E022A4
:1005D800C0E09005051205F9D0E022C0E090050AB8
:1005E8001205F9D0E022C0E09005141205F9D0E018
:1005F80022C0E0C0D012040FE493F5D9120465A319
:10060800B410F512068B120616D0D0D0E022C0E046
:10061800C0D085463A85463A75D9B31204531203B9
:10062800E912001E1204878549D91204658548D944
:100638001204658547D912046575D9DF12046575FA
:10064800D943120465D0D0D0E022C0E0C0D085459F
:100658003A75D98B1204531203E912001E1204874B
:100668008549D91204658548D91204658547D91288
:10067800046575D9DF12046575D943120465D0D0B5
:10068800D0E0229001F875D9A81204531203E98525
:10069800463A85463A753C18753D001200D120034C
:1006A80014753C14753D001200BB753C05753D0082
:1006B8001201A38003753A001206C422C001C002C9
:1006C800E53A6009A93A7A0AA3DAFDD9F9E493F57B
:1006D800D9120465A3B407F5D002D0022275D94017
:1006E8001204531203E975D90E12046575D91F1245
:1006F800046575D91F12046575D91F12046575D96B
:100708001F12046575D91F12046575D91F12046577
:1007180075D90E1204651203E975D90012046575BE
:10072800D91F12046575D90012046575D900120421
:100738006575D90012046575D90012046575D91F4D
:1007480012046575D9001204651203E975D90012FF
:10075800046575D91F12046575D91012046575D919
:100768001012046575D91012046575D91012046544
:1007780075D91F12046575D9001204651203E9754D
:10078800D90012046575D91F12046575D9181204A9
:100798006575D91812046575D91812046575D918C4
:1007A80012046575D91F12046575D9001204651203
:1007B80003E975D90012046575D91F12046575D946
:1007C8001C12046575D91C12046575D91C120465C0
:1007D80075D91C12046575D91F12046575D90012E4
:1007E80004651203E975D90012046575D91F12044E
:1007F8006575D91E12046575D91E12046575D91E52
:1008080012046575D91E12046575D91F1204657521
:10081800D9001204651203E975D90012046575D967
:100828001F12046575D91F12046575D91F12046556
:1008380075D91F12046575D91F12046575D91F1261
:10084800046575D9001204651203E975D90012040C
:100858006575D91812046575D90412046575D9022D
:1008680012046575D90212046575D90412046575F8
:10087800D91812046575D9001204651203E9221209
:10088800089E7FA91208C90FBFB1F90F75D90712C1
:1008980004651203FA227E007FA88FD9120453122E
:1008A80003E98ED91204650E0F8FD912045312036F
:1008B800E98ED9120465BFB0EF0F75D90712046528
:1008C800227E018FD91204531203E98ED9120465CE
:1008D8000E1203FABE07EC22C0E074FFF58EF58F06
:1008E800F596D0E02285373A753B0012001E900934
:1008F800EFE53E540F93F58EE53EC4540F93F58F04
:10090800E53F540F600493F596227596FF227B64A9
:100918007AFA79FAD9FEDAFADBF622D2AB1209169C
:10092800C2AB2285463A753B0012001E9009EFE5DE
:100938003E540F93F591E53EC4540F93F592E53F6D
:06094800540F93F5932209
:10094E00C2937480C44400C41209BA85333A853404
:10095E003B753C00753D00753C4A753D0112012703
:10096E00753C00753D041201A3753C11753D0112D5
:10097E0000BBE53A22C2937480C44401C41209BA82
:10098E0085333A85343B753C00753D00753C0475E6
:10099E003D001201A3E53A2292921209E43322A2FB
:1009AE00911209E43322759B0DD29322D292120931
:1009BE00E43378041209A6D8FB1209E41209E4E420
:1009CE001209AD1209ADF534E478081209ADD8FB61
:1009DE00F533E4D29322000000D290000000C290C2
:1009EE0022C0F9A4B0999282F88090758911C28CB8
:1009FE00C28EC28DC28FC2CA75C83075CBFF75CA82
:100A0E00F7D2CA759852758C93758A81758DFA7561
:100A1E008B96D28CD28E22758DFA758B96B28232CF
:100A2E00758C93758A81C0D0C0E0C083C082E59E6C
:100A3E0020E102D204200709308406D2EBD20580D1
:100A4E0004C205C2EB0535E535B4643D75350012BB
:100A5E00094EF888F012098325F0F54612051E128C
:100A6E000AA8C3E5459546400A6008C2B4C200D242
:100A7E00E88006D200C2E8D2B420010DE53714F5A5
:100A8E0037B40005753700D201D082D083D0E0D0C4
:100A9E00D0323099FDC299F59922C0E0AF3A854621
:100AAE003A753B0012001EE53F540F2430120AA087
:100ABE00E53EC4540F2430120AA0E53E540F2430F4
:100ACE00120AA085453A753B0012001EE53F540FF1
:100ADE002430120AA0E53EC4540F2430120AA0E5B9
:100AEE003E540F2430120AA0740A120AA08F3AD074
:020AFE00E022F4
:100B000075817F759AEF759DFF75E8007595007585
:100B10009E00C207B2EEC2067541DC75421E7543E7
:100B20009675444B1208E0754D0B7545002007156E
:100B3000E59E30E1DFC207C204D2AFD20112042227
:100B4000C2EE020B4FE59E20E1CAC207020B14124F
:100B500009B41209F975F800754D01D2CA020B608B
:100B6000754D01754500C202D2A9D2F920E956207F
:100B7000EA4520EB2F20EC1E20049920F9E2744670
:100B8000C3954640DB120923C200C3E543941FF519
:100B900045C205020BD3754D08120D4720ECF71224
:100BA00008E080BC7597FF754D050000120D8C2084
:100BB000EBF21208E080A9754D07120D0220EAF74A
:100BC0001208E0809B754D06120CBD20E9F7120853
:100BD000E0808D300403020B14300503020DE8752C
:100BE0004D02D2FA3000ECC2007D2D1209163004FD
:100BF00003020B14300503020DE8DDEFE545241F69
:100C0000F545C200300403020B14300503020DE861
:100C10003000F1120923D2FB854437754D04C2011F
:100C2000300403020B14300503020DE81208EDE551
:100C300037B40A038541453001E61208E0D2FC12C0
:100C40000923754D02C200300403020B1430050362
:100C5000020DE83000F1120923D2FD854237754DAF
:100C600003C201300403020B14300503020DE81225
:100C700008ED3001EE1208E0120923754D097545A3
:100C80003CD200200606300503020DD4D2FE30040B
:100C900003020B14754D092000E975450012092364
:100CA000120916120923120916120923754D0AD2C8
:100CB000FF20F9FB30F9FD75F800020B60E54220DA
:100CC000FA0830FAFD04B42E0C1420FB0830FBFDAA
:100CD00014B41D0104F54285423A753B0012001E12
:100CE0009009EFE53E540F93F58EE53EC4540F9303
:100CF000F58FE53F540F600693F596020D0175964A
:100D0000FF22E54120FA0830FAFD04B4E70C142074
:100D1000FB0830FBFD14B4C70104F54185413A7569
:100D20003B0012001E9009EFE53E540F93F58EE54F
:100D30003EC4540F93F58FE53F540F600693F5962C
:100D4000020D467596FF22E54320FA0830FAFD04AD
:100D5000B4A50C1420FB0830FBFD14B4860104F587
:100D60004385433A753B0012001E9009EFE53E545F
:100D70000F93F58EE53EC4540F93F58FE53F540F66
:100D8000600693F596020D8B7596FF22E54420FAD6
:100D90000830FAFD04B45B0C1420FB0830FBFD1492
:100DA000B43B0104F54485443A753B0012001E90A3
:100DB00009EFE53E540F93F58EE53EC4540F93F5CD
:100DC0008FE53F540F600693F596020DD07596FFA0
:100DD0007596FF22754D0C1209231203FA1203FABD
:100DE0001203FAD206020C7B754D0C7545001209F0
:0F0DF000231203FA1203FA1203FAD207020B14AA
:00000001FF
