:0600000075817F0204027D
:03000B00020340AD
:03001B00020337A6
:10001E00C0E0C0D0C000E4F542F543F5447810E5E9
:10002E003BA2E7E53A33F53AE53B33F53BE542359E
:10003E0042D4F542E5433543D4F543E5443544D443
:10004E00F544D8DBD000D0D0D0E02213C0D030E7BA
:10005E000224D030E30224FDD0D022C0E0C0D0C0B4
:10006E0000C042C043C0447810C3E544120059F5A5
:10007E0044E543120059F543E542120059F542E5B5
:10008E003B13F53BE53A13F53AD8DED044D043D0D6
:10009E0042D000D0D0D0E022C0E0C0D0E53A253E1C
:1000AE00F53AE53B353FF53BD0D0D0E022C0E0C07D
:1000BE00D0C3E53A953EF53AE53B953FF53BD0D0BA
:1000CE00D0E022C0E0C0D0C3E53A953EE53B953F77
:1000DE009203D0D0D0E022C0E0C0D0C3E53E953A26
:1000EE00E53F953B9203D0D0D0E022C0E0C0D0C215
:1000FE0003C3E53E953A7008E53F953B7002D20387
:10010E00D0D0D0E0221200F92003030200E5221223
:10011E0000F92003030200D122C0E0C0F0C0D0C01D
:10012E0000C001E53A853EF0A4F8A9F0E53B853E16
:10013E00F0A429F9E435F0FAE53A853FF0A429F95F
:10014E00893B883AD001D000D0D0D0F0D0E022C088
:10015E00E0C0F0C0D0C000C001C002C00378807AF9
:10016E00087B00EB48FBF5F0A4C3953AF9E5F09552
:10017E003B49600D50028004E8F45BFBE803F8DABB
:10018E00E28B3A753B00D003D002D001D000D0D024
:10019E00D0F0D0E022C0E0C0D0C000C001C0027AD2
:1001AE0010E4F8F9C3E53A33F53AE53B33F53BE8AD
:1001BE0033F8E933F9C3E8953EE9953F400BE895EE
:1001CE003EF8E9953FF9433A01DAD9D002D001D091
:1001DE0000D0D0D0E022853A3E853B3F22E53AC59D
:1001EE003EF53AE53BC53FF53B22C0E074FFF58E88
:1001FE00F58FF596D0E02285373A753B0012001E3A
:10020E00900301E542540F93F58EE542C4540F93CB
:10021E00F58FE543540F93F59622854B3A753B00C7
:10022E0012001E900301E542540F93F591E542C46E
:10023E00540F93F592E543540F93F593227B647A12
:10024E00FA79FAD9FEDAFADBF622D2AB12024BC2F7
:02025E00AB22D1
:10026000C2937480C44400C41202CC85333A8534EE
:100270003B753C00753D00753E4A753F01120127F4
:10028000753E00753F041201A3753E11753F0112C2
:1002900000BBE53A22C2937480C44401C41202CC6C
:1002A00085333A85343B753C00753D00753E0475D9
:1002B0003F001201A3E53A2292921202F63322A2E3
:1002C000911202F63322759B0DD29322D292120222
:1002D000F63378041202B8D8FB1202F61202F6E4E2
:1002E0001202BF1202BFF534E478081202BFD8FB35
:1002F000F533E4D29322000000D290000000C290B7
:1003000022C0F9A4B0999282F88090758911C28CAC
:10031000C28EC28DC28FC2CA75C83075CBFF75CA76
:10032000F7D2CA759852758C93758A81758DFA7556
:100330008B96D28CD28E22758DFA758B96B28332C3
:10034000758C93758A81C0D0C0E0C083C0820536A9
:10035000E536B40A067536001203AA0535E535B44C
:100360006437753500120260F888F012029525F0A6
:10037000F54BC3E54A954B400A6008C280054BC265
:10038000008006D200D280154B20010DE53714F510
:1003900037B40005753700D201D082D083D0E0D0C9
:1003A000D0323099FDC299F59922C0E0AF3A854B21
:1003B0003A753B0012001EE543540F24301203A28D
:1003C000E542C4540F24301203A2E542540F2430F6
:1003D0001203A2854A3A753B0012001EE543540FF2
:1003E00024301203A2E542C4540F24301203A2E5C4
:1003F00042540F24301203A2740A1203A28F3AD07F
:02040000E022F8
:10040200759AFF7546DC75471E75489675494BE52A
:100412009EC2AF30E1EA02041B1202C612030BD2E3
:10042200AF754B8C75E800759500759E0075F800E8
:10043200D2CA020437754A00C202D2A9D2F920E90F
:100442003520EA2720EB1920EC0B20F9E81202589C
:10045200C20002048312057220ECFA1201F880D560
:100462001205B720EBFA1201F880CA12052D20EA14
:10047200FA1201F880BF1204E820E9FA1201F880AA
:10048200B4D2FA85484A3000F8120258D2FB8549A4
:1004920037C2011202053001FA1201F8D2FC12022F
:1004A2005885464AC2003000FD120258D2FD8547E7
:1004B20037C2011202053001FA1201F81202587510
:1004C2004A3CD200D2FE2000FB754A0012025812AA
:1004D200024B12025812024B120258D2FF20F9FBB1
:1004E20075F800020437E54720FA0830FAFD04B433
:1004F2002E0C1420FB0830FBFD14B41D0104F5473B
:1005020085473A753B0012001E900301E542540FE5
:1005120093F58EE542C4540F93F58FE543540F6073
:100522000693F59602052C7596FF22E54620FA08F9
:1005320030FAFD04B4E70C1420FB0830FBFD14B4C0
:10054200C70104F54685463A753B0012001E90032A
:1005520001E542540F93F58EE542C4540F93F58F93
:10056200E543540F600693F5960205717596FF22D6
:10057200E54820FA0830FAFD04B4A50C1420FB0863
:1005820030FBFD14B4860104F54885483A753B00FA
:1005920012001E900301E542540F93F58EE542C40A
:1005A200540F93F58FE543540F600693F5960205B9
:1005B200B67596FF22E54920FA0830FAFD04B45BCD
:1005C2000C1420FB0830FBFD14B43B0104F54985F3
:1005D200493A753B0012001E900301E542540F9305
:1005E200F58EE542C4540F93F58FE543540F600630
:0A05F20093F5960205FB7596FF22B3
:00000001FF
