:0600000075817F020A2851
:03000B0002097473
:03001B0002096B6C
:10001E00C0E0C0D0C000E4F542F543F5447810E5E9
:10002E003BA2E7E53A33F53AE53B33F53BE542359E
:10003E0042D4F542E5433543D4F543E5443544D443
:10004E00F544D8DBD000D0D0D0E02213C0D030E7BA
:10005E000224D030E30224FDD0D022C0E0C0D0C0B4
:10006E0000C042C043C0447810C3E544120059F5A5
:10007E0044E543120059F543E542120059F542E5B5
:10008E003B13F53BE53A13F53AD8DED044D043D0D6
:10009E0042D000D0D0D0E022C0E0C0D0E53A253E1C
:1000AE00F53AE53B353FF53BD0D0D0E022C0E0C07D
:1000BE00D0C3E53A953EF53AE53B953FF53BD0D0BA
:1000CE00D0E022C0E0C0D0C3E53A953EE53B953F77
:1000DE009203D0D0D0E022C0E0C0D0C3E53E953A26
:1000EE00E53F953B9203D0D0D0E022C0E0C0D0C215
:1000FE0003C3E53E953A7008E53F953B7002D20387
:10010E00D0D0D0E0221200F92003030200E5221223
:10011E0000F92003030200D122C0E0C0F0C0D0C01D
:10012E0000C001E53A853EF0A4F8A9F0E53B853E16
:10013E00F0A429F9E435F0FAE53A853FF0A429F95F
:10014E00893B883AD001D000D0D0D0F0D0E022C088
:10015E00E0C0F0C0D0C000C001C002C00378807AF9
:10016E00087B00EB48FBF5F0A4C3953AF9E5F09552
:10017E003B49600D50028004E8F45BFBE803F8DABB
:10018E00E28B3A753B00D003D002D001D000D0D024
:10019E00D0F0D0E022C0E0C0D0C000C001C0027AD2
:1001AE0010E4F8F9C3E53A33F53AE53B33F53BE8AD
:1001BE0033F8E933F9C3E8953EE9953F400BE895EE
:1001CE003EF8E9953FF9433A01DAD9D002D001D091
:1001DE0000D0D0D0E022853A3E853B3F22E53AC59D
:0A01EE003EF53AE53BC53FF53B2224
:1001F80000010101010101010107000201010101E2
:1002080001010107000301010101010101070004C7
:1002180001010101010101070005010101010101BD
:1002280001070006010101010101010700060101A2
:100238000101010101070006020101010101010795
:100248000006030101010101010700060401010183
:10025800010101070006050101010101010700066E
:100268000601010101010107000606010101010162
:100278000107000606020101010101070006060345
:10028800010101010107000606040101010101073E
:100298000006060501010101010700060606010125
:1002A8000101010700060606010101010107000618
:1002B8000606020101010107000606060301010105
:1002C80001070006060604010101010700060606EB
:1002D80005010101010700060606060101010107E3
:1002E80000060606060101010107000606060602C9
:1002F80001010107000606060603010101070006C1
:1003080006060604010101070006060606050101A6
:100318000107000606060606010101070006060693
:100328000606010101070006060606060201010786
:10033800000606060606030101070006060606066D
:100348000401010700060606060605010107000666
:100358000606060606010107000606060606060149
:10036800010700060606060606020107000606063D
:100378000606060301070006060606060604010728
:100388000006060606060605010700060606060616
:100398000606010700060606060606060107000609
:1003A80006060606060602070006060606060606EE
:1003B80003070006060606060606040700060606E4
:1003C80006060606050700060606060606060607CA
:1003D800C000C001790A786FD8FED9FAD001D000E0
:1003E80022C000C00179327864D8FED9FAD001D091
:1003F8000022C000C0017A2879FE78FDD8FED9FA1B
:10040800DAF6D001D0002275D9011204531203E99B
:1004180075D9801204531203E922D2DBC2D9120320
:10042800E975DAFFC2D875D90C12045375D9381298
:1004380004531203E912065475D901120453120326
:10044800E975D9801204531203FA22C2DA0000D2E5
:10045800D9000000000000C2D91203E922D2DA0054
:1004680000D2D9000000000000C2D91203E92230EE
:100478003132333435363738391022FF2425269067
:100488000477E5436007540F93F54E8003754E20BB
:10049800E542C4540F93F54DE542540F93F54C22B1
:1004A80049646C65105072656865617410526566C0
:1004B8006C6F7710536F616B1053657420536F61C5
:1004C8006B2054696D6510536574205265666C6FB6
:1004D800772054696D6510536574205265666C6F9A
:1004E800772054656D701053657420536F616B20CD
:1004F80054656D7010436F6F6C696E6710446F6E52
:100508006510506F776572204F6666102020202096
:100518002020202020202010C0E09004A81205A44C
:10052800D0E022C0E09004AD1205A4D0E022C0E0E3
:100538009004B51205A4D0E022C0E09004BC1205D6
:10054800A4D0E022C0E09004C11205A4D0E022C0EB
:10055800E09004CF1205A4D0E022C0E09004DF129E
:1005680005A4D0E022C0E09004EF1205A4D0E02258
:10057800C0E09004FD1205A4D0E022C0E09005057B
:100588001205A4D0E022C0E090050A1205A4D0E02C
:1005980022C0E09005141205A4D0E022C0E0C0D02B
:1005A80012040FE493F5D9120465A3B410F51205EB
:1005B800FD1205C1D0D0D0E022C0E0C0D0854B3AB2
:1005C80075D9B31204531203E912001E1204878569
:1005D8004ED9120465854DD9120465854CD912048B
:1005E8006575D9DF12046575D9431204651205FDD6
:1005F800D0D0D0E0229001F875D9A8120453120384
:10060800E9854B3A753E18753F001200D120031456
:10061800753E14753F001200BB753E05753F00120C
:1006280001A38003753A0012063322C001C002E517
:100638003A6009A93A7A0AA3DAFDD9F9E493F5D917
:10064800120465A3B407F5D002D0022275D940126E
:1006580004531203E975D90E12046575D91F1204E3
:100668006575D91F12046575D91F12046575D91FE0
:1006780012046575D91F12046575D91F12046575B2
:10068800D90E1204651203E975D90012046575D9EB
:100698001F12046575D90012046575D90012046526
:1006A80075D90012046575D90012046575D91F1231
:1006B800046575D9001204651203E975D90012049E
:1006C8006575D91F12046575D91012046575D9109E
:1006D80012046575D91012046575D9101204657570
:1006E800D91F12046575D9001204651203E975D97A
:1006F8000012046575D91F12046575D918120465AE
:1007080075D91812046575D91812046575D91812A7
:10071800046575D91F12046575D9001204651203A2
:10072800E975D90012046575D91F12046575D91CBD
:1007380012046575D91C12046575D91C12046575F7
:10074800D91C12046575D91F12046575D9001204E5
:10075800651203E975D90012046575D91F1204657D
:1007680075D91E12046575D91E12046575D91E1235
:10077800046575D91E12046575D91F12046575D9EB
:10078800001204651203E975D90012046575D91FB2
:1007980012046575D91F12046575D91F1204657591
:1007A800D91F12046575D91F12046575D91F120463
:1007B8006575D9001204651203E975D9001204653C
:1007C80075D91812046575D90412046575D9021211
:1007D800046575D90212046575D90412046575D9C2
:1007E8001812046575D9001204651203E92212086B
:1007F8000D7FA91208380FBFB1F90F75D907120478
:10080800651203FA227E007FA88FD91204531203BF
:10081800E98ED91204650E0F8FD91204531203E919
:100828008ED9120465BFB0EF0F75D907120465227F
:100838007E018FD91204531203E98ED91204650E72
:100848001203FABE07EC22C0E074FFF58EF58FF5AF
:1008580096D0E02285373A753B0012001E90093584
:10086800E542540F93F58EE542C4540F93F58FE596
:1008780043540F93F596227B647AFA79FAD9FEDA13
:0C088800FADBF622D2AB12087FC2AB22D2
:10089400C2937480C44400C412090085333A853479
:1008A4003B753C00753D00753E4A753F01120127BA
:1008B400753E00753F041201A3753E11753F011288
:1008C40000BBE53A22C2937480C44401C4120900F7
:1008D40085333A85343B753C00753D00753E04759F
:1008E4003F001201A3E53A22929212092A3322A26E
:1008F4009112092A3322759B0DD29322D2921209A6
:100904002A3378041208ECD8FB12092A12092AE4C3
:100914001208F31208F3F534E478081208F3D8FB4C
:10092400F533E4D29322000000D290000000C2907C
:1009340022C0F9A4B0999282F88090758911C28C72
:10094400C28EC28DC28FC2CA75C83075CBFF75CA3C
:10095400F7D2CA759852758C93758A81758DFA751C
:100964008B96D28CD28E22758DFA758B96B2833289
:10097400758C93758A81C0D0C0E0C083C082053570
:10098400E535B46436753500120894F888F0120819
:10099400C925F0F54B1209D0C3E54A954B400860D0
:1009A40006C280C2008004D200D28020010DE53747
:1009B40014F537B40005753700D201D082D083D046
:1009C400E0D0D0323099FDC299F59922C0E0AF3A17
:1009D400854B3A753B0012001EE543540F24301238
:1009E40009C8E542C4540F24301209C8E542540F23
:1009F40024301209C8854A3A753B0012001EE543AB
:100A0400540F24301209C8E542C4540F243012098B
:100A1400C8E542540F24301209C8740A1209C88F59
:040A24003AD0E022C2
:100A2800759AFF7546DC75471E75489675494BE5FE
:100A38009EC2AF30E1EA120422020A441208FA12F6
:100A4800093FD2AF754B8C75E800759500759E000F
:100A580075F800D2CA020A60120520754A00C2025F
:100A6800D2A9D2F920E93520EA2720EB1920EC0B8E
:100A780020F9E812088CC200020AAF120BB020EC71
:100A8800FA12084F80D2120BF520EBFA12084F80A9
:100A9800C7120B6B20EAFA12084F80BC120B2620F3
:100AA800E9FA12084F80B112052BD2FA85484A306C
:100AB80000F812088CD2FB854937120541C2011291
:100AC800085C3001FA12084FD2FC12088C85464A9D
:100AD80012052BC2003000FD12088CD2FD85473765
:100AE800120536C20112085C3001FA12084F1208CA
:100AF8008C120578754A3CD200D2FE2000FB754A5C
:100B08000012088C12087F12088C12087F12088CB9
:100B1800120583D2FF20F9FB75F800020A60E54749
:100B280020FA0830FAFD04B42E0C1420FB0830FB20
:100B3800FD14B41D0104F54785473A753B001200C2
:100B48001E900935E542540F93F58EE542C4540FC3
:100B580093F58FE543540F600693F596020B6A757B
:100B680096FF22E54620FA0830FAFD04B4E70C1493
:100B780020FB0830FBFD14B4C70104F54685463A4E
:100B8800753B0012001E900935E542540F93F58E0F
:100B9800E542C4540F93F58FE543540F600693F56F
:100BA80096020BAF7596FF22E54820FA0830FAFD49
:100BB80004B4A50C1420FB0830FBFD14B486010412
:100BC800F54885483A753B0012001E900935E54204
:100BD800540F93F58EE542C4540F93F58FE54354B3
:100BE8000F600693F596020BF47596FF22E54920EF
:100BF800FA0830FAFD04B45B0C1420FB0830FBFD46
:100C080014B43B0104F54985493A753B0012001EAE
:100C1800900935E542540F93F58EE542C4540F937D
:100C2800F58FE543540F600693F596020C397596D7
:020C3800FF2299
:00000001FF
