:03000000020329CF
:03000B000200C52B
:10001B000200BCC0E074FFF58EF58FF596D0E022A0
:10002B0085323575360012014F900086E539540F35
:10003B0093F58EE539C4540F93F58FE53A540F932E
:10004B00F5962285423575360012014F900086E5F4
:10005B0039540F93F591E539C4540F93F592E53A62
:10006B00540F93F593227B647AFA79FAD9FEDAFA74
:10007B00DBF622D2AB120071C2AB22C0F9A4B0994D
:10008B009282F88090758911C28CC28EC28DC28FFC
:10009B00C2CA75C83075CBFF75CAF7D2CA759852EC
:1000AB00758C93758A81758DFA758B96D28CD28EE1
:1000BB0022758DFA758B96B28332758C93758A8106
:1000CB00C0D0C0E0C083C0820531E531B40A0675EB
:1000DB0031001201220530E530B4642A753000C3BB
:1000EB00E5419542400A6008C2800542C200800685
:1000FB00D200D280154220010DE53214F532B40046
:10010B0005753200D201D082D083D0E0D0D032300E
:10011B0099FDC299F5992285423512014FE53A5462
:10012B000F243012011AE539C4540F243012011A6E
:10013B00E539540F243012011A740A12011A740D86
:04014B0012011A2261
:10014F00C0E0C0D0C000E4F539F53AF53B7810E5D2
:10015F0036A2E7E53533F535E53633F536E539358E
:10016F0039D4F539E53A353AD4F53AE53B353BD450
:10017F00F53BD8DBD000D0D0D0E02213C0D030E791
:10018F000224D030E30224FDD0D022C0E0C0D0C082
:10019F0000C039C03AC03B7810C3E53B12018AF565
:1001AF003BE53A12018AF53AE53912018AF539E54C
:1001BF003613F536E53513F535D8DED03BD03AD0CA
:1001CF0039D000D0D0D0E022C0E0C0D0E5352537FF
:1001DF00F535E5363538F536D0D0D0E022C0E0C061
:1001EF00D0C3E5359537F535E5369538F536D0D0AA
:1001FF00D0E022C0E0C0D0C3E5359537E53695385D
:10020F009203D0D0D0E022C0E0C0D0C3E5379535FF
:10021F00E53895369203D0D0D0E022C0E0C0D0C2EE
:10022F0003C3E53795357008E53895367002D2036C
:10023F00D0D0D0E02212022A20030302021622128B
:10024F00022A20030302020222C0E0C0F0C0D0C085
:10025F0000C001E5358537F0A4F8A9F0E5368537FC
:10026F00F0A429F9E435F0FAE5358538F0A429F939
:10027F0089368835D001D000D0D0D0F0D0E022C060
:10028F00E0C0F0C0D0C000C001C002C00378807AC7
:10029F00087B00EB48FBF5F0A4C39535F9E5F09525
:1002AF003649600D50028004E8F45BFBE803F8DA8E
:1002BF00E28B35753600D003D002D001D000D0D0FC
:1002CF00D0F0D0E022C0E0C0D0C000C001C0027AA0
:1002DF0010E4F8F9C3E53533F535E53633F536E88F
:1002EF0033F8E933F9C3E89537E99538400BE895CA
:1002FF0037F8E99538F9433501DAD9D002D001D072
:10030F0000D0D0D0E02285353785363822E535C587
:0A031F0037F535E536C538F536220E
:1003290075817F759AFF753DD2753EC8753F967583
:10033900404BE59ED2AF30E1E702034512009075CC
:10034900428C75E800759500759E0075F800D2CA53
:1003590002035C754100C202D2A9D2F920E9372013
:10036900EA2920EB1B20EC0D20F9E812007EC200DF
:10037900D2E80204361203AA20ECFA12001E80D336
:100389001203EF20EBFA12001E80C812043420EA8F
:10039900FA12001E80BD12043520E9FA12001E80EF
:1003A900B2E53F20FA0830FAFD04B4690C1420FBC9
:1003B9000830FBFD14B4550104F53F853F3575360A
:1003C9000012014F900086E539540F93F58EE539F7
:1003D900C4540F93F58FE53A540F600693F59602CE
:1003E90003EE7596FF22E54020FA0830FAFD04B4C1
:1003F9005B0C1420FB0830FBFD14B43B0104F540F1
:1004090085403575360012014F900086E539540F45
:1004190093F58EE539C4540F93F58FE53A540F607F
:100429000693F5960204337596FF222222D2FA85A5
:100439003F413000F812007ED2FB854032C20112E2
:10044900002B3001FA12002BD2FC12007E853D41AF
:10045900C2003000FD12007ED2FD853E32C201127B
:10046900002B3001FA12002B12007E75413CD2009C
:10047900D2FE2000FB75410012007E1200711200AD
:100489007E12007112007ED2FF20F9FB75F800027E
:02049900035C02
:00000001FF
