:03000000020318E0
:03000B000200B13F
:10001B000200A885323575360012013E900072E55C
:10002B0039540F93F596E539C4540F93F597228500
:10003B00423575360012013E900072E539540F932C
:10004B00F591E539C4540F93F592E53A540F93F5B6
:10005B0093227B647AFA79FAD9FEDAFADBF622D2AA
:10006B00AB12005DC2AB22C0F9A4B0999282F880AA
:10007B0090758911C28CC28EC28DC28FC2CA75C8CF
:10008B003075CBFF75CAF7D2CA759852758C9375BC
:10009B008A81758DFA758B96D28CD28E22758DFADC
:1000AB00758B96B28332758C93758A81C0D0C0E004
:1000BB00C083C08212003A0531E531B40A067531AE
:1000CB00001201110530E530B4642A753000C3E528
:1000DB00419542400A6008C2800542C2008006D2A8
:1000EB0000D280154220010DE53214F532B4000523
:1000FB00753200D201D082D083D0E0D0D03230998B
:10010B00FDC299F5992285423512013EE53A540F0D
:10011B002430120109E539C4540F2430120109E5CA
:10012B0039540F2430120109740A120109740D128B
:03013B0001092295
:10013E00C0E0C0D0C000E4F539F53AF53B7810E5E3
:10014E0036A2E7E53533F535E53633F536E539359F
:10015E0039D4F539E53A353AD4F53AE53B353BD461
:10016E00F53BD8DBD000D0D0D0E02213C0D030E7A2
:10017E000224D030E30224FDD0D022C0E0C0D0C093
:10018E0000C039C03AC03B7810C3E53B120179F587
:10019E003BE53A120179F53AE539120179F539E57F
:1001AE003613F536E53513F535D8DED03BD03AD0DB
:1001BE0039D000D0D0D0E022C0E0C0D0E535253710
:1001CE00F535E5363538F536D0D0D0E022C0E0C072
:1001DE00D0C3E5359537F535E5369538F536D0D0BB
:1001EE00D0E022C0E0C0D0C3E5359537E53695386E
:1001FE009203D0D0D0E022C0E0C0D0C3E537953511
:10020E00E53895369203D0D0D0E022C0E0C0D0C2FF
:10021E0003C3E53795357008E53895367002D2037D
:10022E00D0D0D0E0221202192003030202052212BE
:10023E0002192003030201F122C0E0C0F0C0D0C0B9
:10024E0000C001E5358537F0A4F8A9F0E53685370D
:10025E00F0A429F9E435F0FAE5358538F0A429F94A
:10026E0089368835D001D000D0D0D0F0D0E022C071
:10027E00E0C0F0C0D0C000C001C002C00378807AD8
:10028E00087B00EB48FBF5F0A4C39535F9E5F09536
:10029E003649600D50028004E8F45BFBE803F8DA9F
:1002AE00E28B35753600D003D002D001D000D0D00D
:1002BE00D0F0D0E022C0E0C0D0C000C001C0027AB1
:1002CE0010E4F8F9C3E53533F535E53633F536E8A0
:1002DE0033F8E933F9C3E89537E99538400BE895DB
:1002EE0037F8E99538F9433501DAD9D002D001D083
:1002FE0000D0D0D0E02285353785363822E535C599
:0A030E0037F535E536C538F536221F
:10031800759AFF753DDC753E04753F96754006E598
:100328009ED2AF30E1EA02033112007C75428C752F
:10033800E800759500759E0075F800D2CA0203485A
:10034800754100C202D2A9D2F9C20220E92320EAEB
:100358001B20EB1320EC0B20F9E612006AC2000206
:10036800037E30ECDB80FB30EBD680FB30EAD180BB
:10037800FB30E9CC80FBD2FA853F413000F812000F
:100388006AD2FB854032C20112001E3001FA120007
:100398001ED2FC12006A853D41C2003000FD1200E9
:1003A8006AD2FD853E32C20112001E3001FA1200E7
:1003B8001E12006A75413CD200D2FE2000FB754136
:1003C8000012006A12005D12006A12005D12006AD3
:0B03D800D2FF20F9FB75F8000203487B
:00000001FF
