:0600000075817F0203344C
:03000B000200C52B
:03001B000200BC24
:10001E00C0E074FFF58EF58FF596D0E0228532356F
:10002E0075360012015A900086E53D540F93F58EF9
:10003E00E53DC4540F93F58FE53E540F93F596228C
:10004E0085463575360012015A900086E53D540FEF
:10005E0093F591E53DC4540F93F592E53E540F93FD
:10006E00F593227B647AFA79FAD9FEDAFADBF62274
:10007E00D2AB120071C2AB22C0F9A4B0999282F831
:10008E008090758911C28CC28EC28DC28FC2CA7504
:10009E00C83075CBFF75CAF7D2CA759852758C9356
:1000AE00758A81758DFA758B96D28CD28E22758D4E
:1000BE00FA758B96B28332758C93758A81C0D0C0D7
:1000CE00E0C083C0820531E531B40A0675310012F5
:1000DE0001220530E530B4642A753000C3E545953C
:1000EE0046400A6008C2800546C2008006D200D291
:1000FE0080154620010DE53214F532B40005753237
:10010E0000D201D082D083D0E0D0D0323099FDC25F
:10011E0099F59922C0E0E535854635753600120110
:10012E005AE53E540F243012011AE53DC4540F24F3
:10013E003012011AE53D540F243012011A740A12BE
:0C014E00011A740D12011AF535D0E022E0
:10015A00C0E0C0D0C000E4F53DF53EF53F7810E5BB
:10016A0036A2E7E53533F535E53633F536E53D357F
:10017A003DD4F53DE53E353ED4F53EE53F353FD429
:10018A00F53FD8DBD000D0D0D0E02213C0D030E782
:10019A000224D030E30224FDD0D022C0E0C0D0C077
:1001AA0000C03DC03EC03F7810C3E53F120195F53F
:1001BA003FE53E120195F53EE53D120195F53DE517
:1001CA003613F536E53513F535D8DED03FD03ED0B7
:1001DA003DD000D0D0D0E022C0E0C0D0E5352539EE
:1001EA00F535E536353AF536D0D0D0E022C0E0C054
:1001FA00D0C3E5359539F535E536953AF536D0D09B
:10020A00D0E022C0E0C0D0C3E5359539E536953A4D
:10021A009203D0D0D0E022C0E0C0D0C3E5399535F2
:10022A00E53A95369203D0D0D0E022C0E0C0D0C2E1
:10023A0003C3E53995357008E53A95367002D2035D
:10024A00D0D0D0E02212023520030302022122126A
:10025A00023520030302020D22C0E0C0F0C0D0C064
:10026A0000C001E5358539F0A4F8A9F0E5368539ED
:10027A00F0A429F9E435F0FAE535853AF0A429F92C
:10028A0089368835D001D000D0D0D0F0D0E022C055
:10029A00E0C0F0C0D0C000C001C002C00378807ABC
:1002AA00087B00EB48FBF5F0A4C39535F9E5F0951A
:1002BA003649600D50028004E8F45BFBE803F8DA83
:1002CA00E28B35753600D003D002D001D000D0D0F1
:1002DA00D0F0D0E022C0E0C0D0C000C001C0027A95
:1002EA0010E4F8F9C3E53533F535E53633F536E884
:1002FA0033F8E933F9C3E89539E9953A400BE895BB
:10030A0039F8E9953AF9433501DAD9D002D001D062
:10031A0000D0D0D0E02285353985363A22E535C578
:0A032A0039F535E536C53AF53622FF
:10033400759AFF7541DC75421E75439675444BE50D
:100344009ED2AF30E1EA02034D12009075468C75DF
:10035400E800759500759E0075F800D2CA02036422
:10036400754500C202D2A9D2F920E93520EA272036
:10037400EB1920EC0B20F9E812007EC2000203B056
:1003840012049F20ECFA12001E80D51204E420EB24
:10039400FA12001E80CA12045A20EAFA12001E80C1
:1003A400BF12041520E9FA12001E80B4D2FA854364
:1003B400453000F812007ED2FB854432C20112009F
:1003C4002B3001FA12001ED2FC12007E854145C278
:1003D400003000FD12007ED2FD854232C2011200BF
:1003E4002B3001FA12001E12007E75453CD200D259
:1003F400FE2000FB75450012007E12007112007E83
:1004040012007112007ED2FF20F9FB75F80002037E
:1004140064E54220FA0830FAFD04B42E0C1420FBE3
:100424000830FBFD14B41D0104F5428542357536D0
:100434000012015A900086E53D540F93F58EE53D78
:10044400C4540F93F58FE53E540F600693F596025E
:1004540004597596FF22E54120FA0830FAFD04B4E8
:10046400E70C1420FB0830FBFD14B4C70104F5416C
:1004740085413575360012015A900086E53D540FCA
:1004840093F58EE53DC4540F93F58FE53E540F600C
:100494000693F59602049E7596FF22E54320FA081A
:1004A40030FAFD04B4A50C1420FB0830FBFD14B491
:1004B400860104F54385433575360012015A9000D0
:1004C40086E53D540F93F58EE53DC4540F93F58FA7
:1004D400E53E540F600693F5960204E37596FF22F9
:1004E400E54420FA0830FAFD04B45B0C1420FB0840
:1004F40030FBFD14B43B0104F544854435753600E6
:1005040012015A900086E53D540F93F58EE53DC4E3
:10051400540F93F58FE53E540F600593F59602054D
:05052400277596FF227F
:00000001FF
