:030000000200DE1D
:06000B00C2EB02009D01A2
:10001100C0C0C0F9C0A4C0B0C099C092C082C0F82D
:10002100C080C090F9C0F9F9F9A4F9B0F999F99231
:10003100F982F9F8F980F990A4C0A4F9A4A4A4B0B4
:10004100A499A492A482A4F8A480A490B0C0B0F909
:10005100B0A4B0B0B099B092B082B0F8B080B09016
:1000610099C099F999A499B099999992998299F815
:100071009980999092C092F992A492B09299929299
:10008100928292F892809290C2E8758901C28CC2E4
:100091008D758C93758A81D28CD2A922758C9375BA
:1000A1008A81C0D0C0E0C083C0820530E530B40A87
:1000B10023753000E53114F531B4FF1875313BE596
:1000C1003214F532B4FF0D75323BE53314F533B418
:1000D100FF02D210D082D083D0E0D0D0321200897A
:1000E100753105753202753301C21075817FD2AF4A
:1000F10012010020100280F3C2A975F80080F99066
:100101000011E53175F002A493F592E53175F00225
:10011100A40493F591E53275F002A493F594E532C8
:1001210075F002A40493F593E53375F002A493F5F9
:0C0131008FE53375F002A40493F58E22D4
:00000001FF
