:0600000075817F020AE594
:03000B00020A2ABC
:03001B00020A21B5
:10001E00C0E0C0D0C000E4F53EF53FF5407810E5F5
:10002E003BA2E7E53A33F53AE53B33F53BE53E35A2
:10003E003ED4F53EE53F353FD4F53FE5403540D45F
:10004E00F540D8DBD000D0D0D0E02213C0D030E7BE
:10005E000224D030E30224FDD0D022C0E0C0D0C0B4
:10006E0000C03EC03FC0407810C3E540120059F5B5
:10007E0040E53F120059F53FE53E120059F53EE5C9
:10008E003B13F53BE53A13F53AD8DED040D03FD0DE
:10009E003ED000D0D0D0E022C0E0C0D0E53A253C22
:1000AE00F53AE53B353DF53BD0D0D0E022C0E0C07F
:1000BE00D0C3E53A953CF53AE53B953DF53BD0D0BE
:1000CE00D0E022C0E0C0D0C3E53A953CE53B953D7B
:1000DE009203D0D0D0E022C0E0C0D0C3E53C953A28
:1000EE00E53D953B9203D0D0D0E022C0E0C0D0C217
:1000FE0003C3E53C953A7008E53D953B7002D2038B
:10010E00D0D0D0E0221200F92003030200E5221223
:10011E0000F92003030200D122C0E0C0F0C0D0C01D
:10012E0000C001E53A853CF0A4F8A9F0E53B853C1A
:10013E00F0A429F9E435F0FAE53A853DF0A429F961
:10014E00893B883AD001D000D0D0D0F0D0E022C088
:10015E00E0C0F0C0D0C000C001C002C00378807AF9
:10016E00087B00EB48FBF5F0A4C3953AF9E5F09552
:10017E003B49600D50028004E8F45BFBE803F8DABB
:10018E00E28B3A753B00D003D002D001D000D0D024
:10019E00D0F0D0E022C0E0C0D0C000C001C0027AD2
:1001AE0010E4F8F9C3E53A33F53AE53B33F53BE8AD
:1001BE0033F8E933F9C3E8953CE9953D400BE895F2
:1001CE003CF8E9953DF9433A01DAD9D002D001D095
:1001DE0000D0D0D0E022853A3C853B3D22E53AC5A1
:0A01EE003CF53AE53BC53DF53B2228
:1001F80000010101010101010107000201010101E2
:1002080001010107000301010101010101070004C7
:1002180001010101010101070005010101010101BD
:1002280001070006010101010101010700060101A2
:100238000101010101070006020101010101010795
:100248000006030101010101010700060401010183
:10025800010101070006050101010101010700066E
:100268000601010101010107000606010101010162
:100278000107000606020101010101070006060345
:10028800010101010107000606040101010101073E
:100298000006060501010101010700060606010125
:1002A8000101010700060606010101010107000618
:1002B8000606020101010107000606060301010105
:1002C80001070006060604010101010700060606EB
:1002D80005010101010700060606060101010107E3
:1002E80000060606060101010107000606060602C9
:1002F80001010107000606060603010101070006C1
:1003080006060604010101070006060606050101A6
:100318000107000606060606010101070006060693
:100328000606010101070006060606060201010786
:10033800000606060606030101070006060606066D
:100348000401010700060606060605010107000666
:100358000606060606010107000606060606060149
:10036800010700060606060606020107000606063D
:100378000606060301070006060606060604010728
:100388000006060606060605010700060606060616
:100398000606010700060606060606060107000609
:1003A80006060606060602070006060606060606EE
:1003B80003070006060606060606040700060606E4
:1003C80006060606050700060606060606060607CA
:1003D800C000C001790A786FD8FED9FAD001D000E0
:1003E80022C000C00179327864D8FED9FAD001D091
:1003F8000022C000C0017A2879FE78FDD8FED9FA1B
:10040800DAF6D001D0002275D9011204531203E99B
:1004180075D9801204531203E922D2DBC2D9120320
:10042800E975DAFFC2D875D90C12045375D9381298
:1004380004531203E91206E175D901120453120399
:10044800E975D9801204531203FA22C2DA0000D2E5
:10045800D9000000000000C2D91203E922D2DA0054
:1004680000D2D9000000000000C2D91203E92230EE
:100478003132333435363738391022FF2425269067
:100488000477E53F6007540F93F5498003754920C9
:10049800E53EC4540F93F548E53E540F93F54722C3
:1004A80049646C65105072656865617410526566C0
:1004B8006C6F7710536F616B1053657420536F61C5
:1004C8006B2054696D6510536574205265666C6FB6
:1004D800772054696D6510536574205265666C6F9A
:1004E800772054656D701053657420536F616B20CD
:1004F80054656D7010436F6F6C696E6710446F6E52
:100508006510506F776572204F6666102020202096
:100518002020202020202010E54DB401031205657D
:10052800B40203120570B4030312057EB404031267
:10053800058CB4050312059AB406031205A5B40781
:10054800031205B0B408031205BBB409031205C6AB
:10055800B40A031205D4B40B031205DF22C0E090DD
:1005680004A81205F5D0E022C0E09004AD1205F50C
:1005780012064ED0E022C0E09004B51205F512062E
:100588004ED0E022C0E09004BC1205F512064ED011
:10059800E022C0E09004C11205F5D0E022C0E0904E
:1005A80004CF1205F5D0E022C0E09004DF1205F573
:1005B800D0E022C0E09004EF1205F5D0E022C0E0C0
:1005C8009004FD1205F512064ED0E022C0E0900519
:1005D800051205F5D0E022C0E090050A1205F5D015
:1005E800E022C0E09005141205F5D0E022C0E0C07A
:1005F800D012040FE493F5D9120465A3B410F512D0
:100608000687120612D0D0D0E022C0E0C0D08546BE
:100618003A85463A75D9B31204531203E912001EFB
:100628001204878549D91204658548D9120465855D
:1006380047D912046575D9DF12046575D9431204C8
:1006480065D0D0D0E022C0E0C0D085453A75D98BBE
:100658001204531203E912001E1204878549D912A5
:1006680004658548D91204658547D912046575D98A
:10067800DF12046575D943120465D0D0D0E022900A
:1006880001F875D9A81204531203E985463A85463C
:100698003A753C18753D001200D1200314753C14BE
:1006A800753D001200BB753C05753D001201A38025
:1006B80003753A001206C022C001C002E53A60097B
:1006C800A93A7A0AA3DAFDD9F9E493F5D9120465AF
:1006D800A3B407F5D002D0022275D94012045312F0
:1006E80003E975D90E12046575D91F12046575D909
:1006F8001F12046575D91F12046575D91F12046588
:1007080075D91F12046575D91F12046575D90E12A3
:1007180004651203E975D90012046575D91F12041E
:100728006575D90012046575D90012046575D9007C
:1007380012046575D90012046575D91F1204657510
:10074800D9001204651203E975D90012046575D938
:100758001F12046575D91012046575D91012046545
:1007680075D91012046575D91012046575D91F1250
:10077800046575D9001204651203E975D9001204DD
:100788006575D91F12046575D91812046575D918CD
:1007980012046575D91812046575D918120465759F
:1007A800D91F12046575D9001204651203E975D9B9
:1007B8000012046575D91F12046575D91C120465E9
:1007C80075D91C12046575D91C12046575D91C12DB
:1007D800046575D91F12046575D9001204651203E2
:1007E800E975D90012046575D91F12046575D91EFB
:1007F80012046575D91E12046575D91E1204657533
:10080800D91E12046575D91F12046575D900120422
:10081800651203E975D90012046575D91F120465BC
:1008280075D91F12046575D91F12046575D91F1271
:10083800046575D91F12046575D91F12046575D929
:10084800001204651203E975D90012046575D918F8
:1008580012046575D90412046575D9021204657508
:10086800D90212046575D90412046575D9181204E1
:100878006575D9001204651203E92212089A7FA946
:100888001208C50FBFB1F90F75D907120465120315
:10089800FA227E007FA88FD91204531203E98ED959
:1008A8001204650E0F8FD91204531203E98ED91260
:1008B8000465BFB0EF0F75D907120465227E018F5A
:1008C800D91204531203E98ED91204650E1203FAE1
:1008D800BE07EC22C0E074FFF58EF58FF596D0E0E8
:1008E8002285373A753B0012001E9009EBE53E540D
:1008F8000F93F58EE53EC4540F93F58FE53F540FE3
:10090800600493F596227596FF227B647AFA79FA49
:10091800D9FEDAFADBF622D2AB120912C2AB228573
:10092800463A753B0012001E9009EBE53E540F93C2
:10093800F591E53EC4540F93F592E53F540F93F5B6
:020948009322F8
:10094A00C2937480C44400C41209B685333A85340C
:10095A003B753C00753D00753C4A753D0112012707
:10096A00753C00753D041201A3753C11753D0112D9
:10097A0000BBE53A22C2937480C44401C41209B68A
:10098A0085333A85343B753C00753D00753C0475EA
:10099A003D001201A3E53A2292921209E03322A203
:1009AA00911209E03322759B0DD29322D292120939
:1009BA00E03378041209A2D8FB1209E01209E0E434
:1009CA001209A91209A9F534E478081209A9D8FB71
:1009DA00F533E4D29322000000D290000000C290C6
:1009EA0022C0F9A4B0999282F88090758911C28CBC
:1009FA00C28EC28DC28FC2CA75C83075CBFF75CA86
:100A0A00F7D2CA759852758C93758A81758DFA7565
:100A1A008B96D28CD28E22758DFA758B96B28232D3
:100A2A00758C93758A81C0D0C0E0C083C0820535B9
:100A3A00E535B4643D75350012094AF888F01209A3
:100A4A007F25F0F546120520120A8DC3E545954625
:100A5A00400A6008C2B4C200D2E88006D200C2E8E6
:100A6A00D2B420010DE53714F537B4000575370007
:100A7A00D201D082D083D0E0D0D0323099FDC29951
:100A8A00F59922C0E0AF3A85463A753B0012001E3E
:100A9A00E53F540F2430120A85E53EC4540F243032
:100AAA00120A85E53E540F2430120A8585453A75A7
:100ABA003B0012001EE53F540F2430120A85E53E22
:100ACA00C4540F2430120A85E53E540F2430120A0A
:0B0ADA0085740A120A858F3AD0E022D2
:100AE500759AFF7541DC75421E75439675444BE555
:100AF5009EC2AF30E1EA120422020B011209B012C4
:100B050009F5D2AF75E800759500759E0075F8007A
:100B1500754D01D2CA020B1D754D01754500C20206
:100B2500D2A9D2F920E94520EA3420EB2320EC12A2
:100B350020F9E512091FC200C3E5439420F54302DD
:100B45000B7F754D08120C9920ECF71208DC80C854
:100B5500754D05120CDE20EBF71208DC80BA754DD9
:100B650007120C5420EAF71208DC80AC754D06120A
:100B75000C0F20E9F71208DC809E754D02D2FA852C
:100B850043453000F5C2007D28120912B2EDDDF9AA
:100B9500E5452420F5453000FD12091FD2FB8544AB
:100BA50037754D04C2011208E9E537B405038541DF
:100BB500453001F21208DCD2FC12091F754D02C244
:100BC500003000FD12091FD2FD854237754D03C265
:100BD500011208E93001FA1208DC12091F754D09E6
:100BE50075453CD200D2FE2000FB75450012091F59
:100BF50012091212091F12091212091F754D0AD284
:100C0500FF20F9FB75F800020B1DE54220FA0830BC
:100C1500FAFD04B42E0C1420FB0830FBFD14B41DA2
:100C25000104F54285423A753B0012001E9009EB1E
:100C3500E53E540F93F58EE53EC4540F93F58FE5CD
:100C45003F540F600693F596020C537596FF22E507
:100C55004120FA0830FAFD04B4E70C1420FB0830F3
:100C6500FBFD14B4C70104F54185413A753B0012FB
:100C7500001E9009EBE53E540F93F58EE53EC454F6
:100C85000F93F58FE53F540F600693F596020C9888
:100C95007596FF22E54320FA0830FAFD04B4A50C49
:100CA5001420FB0830FBFD14B4860104F54385438D
:100CB5003A753B0012001E9009EBE53E540F93F583
:100CC5008EE53EC4540F93F58FE53F540F600693B0
:100CD500F596020CDD7596FF22E54420FA0830FAF8
:100CE500FD04B45B0C1420FB0830FBFD14B43B0180
:100CF50004F54485443A753B0012001E9009EBE566
:100D05003E540F93F58EE53EC4540F93F58FE53FA2
:0E0D1500540F600593F596020D217596FF228E
:00000001FF
