:1000000002000E0200F900000000000200FA7581F3
:10001000541201AAE582600302007A780079007A1E
:10002000007B007C007D00EC4D601C88828983E4AD
:1000300093A3A882A9838A828B83F0A3AA82AB832D
:100040001CBCFFE31D80E07582007583007C007D91
:1000500000EC4D600AE4F0A31CBCFFF51D80F275B6
:1000600082007583007C007D00EC4D600AE4F0A303
:100070001CBCFFF51D80F21200E912020880FE5040
:10008000005000000000000C0005000A000F0014E2
:100090000019001E00230028002D00320037003C0C
:1000A000000A496E74737472756374696F6E3A20D6
:1000B00000257564000A4D6F766520666F72777251
:1000C0006473000A204D6F7665206261636B000ADD
:1000D0007475726E6564000A4552524F52003C4E70
:1000E0004F20464C4F41543E00E4F509F50AE4F533
:1000F00013F514E4F515F5162232C0E0C0F0C00285
:10010000C003C0D075D00074012509F509E4350A93
:10011000F50AC374639509E4950A5005E4F509F5F9
:100120000AC3E4950BE46480850CF063F08095F0DD
:100130005012AA0BAB0CC3E5099AE50A9B9200B3D7
:100140009291D290E50C30E717C3E4950BFAE49551
:100150000CFBC3E5099AE50A9B9200B39290D291F9
:10016000C3E4950DE46480850EF063F08095F05053
:1001700012AA0DAB0EC3E5099AE50A9B9200B39251
:1001800094D293E50E30E717C3E4950DFAE4950E8B
:10019000FBC3E5099AE50A9B9200B39293D294D0EF
:1001A000D0D003D002D0F0D0E03275E60075E70081
:1001B00075D60075D70075CE0075CF0075C6007571
:1001C000C700758E1175BE0075BF00438780759896
:1001D00052759B00759AFA759B1E75890175F3FF20
:1001E000758CFF75F248758A48D28CD2A9D2A8D2F4
:1001F00088D2AFE4F511F512750F01E4F510D2A223
:10020000D2A1D2A07582002275170FE4F5187519D6
:100210000FE4F51A751D02E4F51EE4F50BF50CF577
:100220000DF50EE4F51BF51CE51B451C7046E519A4
:10023000E51AE517E518D2A2D2A1C2A074A1C0E0C8
:100240007400C0E07480C0E0120719158115811593
:1002500081741BC0E07400C0E07440C0E074B1C0A1
:10026000E07400C0E07480C0E0120634E58124FA36
:10027000F58180B47401B51B06E4B51C02800280D0
:1002800027E51D451E6009151D74FFB51D02151ECD
:1002900074B5C0E07400C0E07480C0E012071915A6
:1002A00081158115810202237402B51B06E4B51C79
:1002B0000280028037900087E493FA740193FBEA8E
:1002C000B51D06EBB51E02800B7401251DF51DE45E
:1002D000351EF51E74C3C0E07400C0E07480C0E039
:1002E0001207191581158115810202237403B51BAC
:1002F00006E4B51C028002801B1204FE74CFC0E02D
:100300007400C0E07480C0E01207191581158115D2
:10031000810202237404B51B07E4B51C0302022307
:100320007405B51B06E4B51C0280030203AAE4F5BC
:100330001BF51C7405B51B06E4B51C02800280F396
:100340007A007B00900087E493FC740193FDC3EA7C
:100350009CEB64808DF063F08095F04003020223F3
:100360008A04EBCC25E0CC33FDEC2489F582ED3416
:1003700000F583E493FCA3E493FDEC24FDFEED344F
:10038000FFFFA817A918C3EE98EF99501674032C15
:10039000FCE43DFDAE17AF18C3EE9CEF9D50048A00
:1003A0001D8B1E0ABA009D0B809A74D7C0E07400A2
:1003B000C0E07480C0E0120719158115811581C253
:1003C000A2D2A1D2A002022322D2A2C2A1D2A09084
:1003D0000085E493FA740193FBEA2519FCEB351AC6
:1003E000FDC3E5179CE51864808DF063F08095F0FF
:1003F0005019900081E493FC740193FD8C0B8D0CDB
:10040000C3E49CF50DE49DF50E80C4EA2517FCEBD2
:100410003518FDC3E5199CE51A64808DF063F08002
:1004200095F05019900081E493FC740193FDC3E4AE
:100430009CF50BE49DF50C8C0D8D0E80CEE4F50D36
:10044000F50EF50BF50C22900083E493FA740193FA
:10045000FBEA2519FCEB351AFDE51D25E0FEE51E3E
:1004600033FFEE2489F582EF3400F583E493FEA395
:10047000E493FFC3EE9CEF9D5024E519B5171FE5EB
:100480001AB5181AD2A2C2A1D2A090007FE493FCA0
:10049000740193FD8C0B8D0C8C0D8D0E80A9E51DC8
:1004A00025E0FCE51E33FDEC2489F582ED3400F5F2
:1004B00083E493FCA3E493FDEA2CFCEB3DFDAE1931
:1004C000AF1AC3EE9CEF9D502BE519B51726E51A20
:1004D000B5182190007FE493FC740193FDC3E49C64
:1004E000FCE49DFD8C0B8D0C8C0D8D0ED2A2C2A157
:1004F000D2A080AAE4F50DF50EF50BF50C22D2A2E0
:10050000C2A1D2A0900081E493FA740193FB8A0BFC
:100510008B0CC3E49AF50DE49BF50E120532E4F55D
:100520000BF50CF50DF50E227C0A7BB8DBFEDCFA30
:1005300022227A5A79B478B4D8FED9FADAF622228D
:100540001205AB120655AA82AB83ACF0FDC002C007
:1005500003C004C00590E14875F09A74401206612A
:10056000AA82AB83ACF0FDE58124FCF581E4C0E018
:1005700074C0C0E0747FC0E07444C0E08A828B83A2
:100580008CF0ED12073AAA82AB83ACF0FDE5812432
:10059000FCF5818A828B838CF0ED22AA8253C47F82
:1005A0008AC5748055C4FABA80F822AA8253C3BFA0
:1005B00075C33F43C340C29474184AF58212059B29
:1005C0007A0A7B001ABAFF011BEA4B70F775825555
:1005D00012059B743F55C5FB7A00758255C002C059
:1005E0000312059BD003D002D29474F055C5FC7D54
:1005F00000EC2AFAED3BC4CAC4540F6ACA540FCAAD
:100600006ACA8A82F58322120E11AA82BA0810756C
:100610008220C002120E24758208120E24D0028A93
:10062000822285823485833585F036851F37900692
:1006300007020A69C008858108E50824FBF537E54B
:100640000824FBF88634088635088636900607129B
:100650000A69D00822E4AC83AB82FAF9748E020EE8
:1006600042120ECEBC0003020E6DEF60FA30D502CE
:10067000B2D1E583B4FF03020E83E582B4FF030227
:100680000E83258340072482400B020E6D248314C1
:100690005003020E83F582EA8DF0A4A8F0EA8EF0F2
:1006A000A428F8E435F0F9EB8DF0A428E935F0F949
:1006B000E433CA8FF0A429F9EA35F0FAEBF88EF0AA
:1006C000A429F9EA35F0FAE433FBEC8DF0A429F91A
:1006D000EA35F0FAE43BFBE88FF0A42AFAEB35F0B8
:1006E000FBE433CCFD8EF0A42AFAEB35F0FBE43CBE
:1006F000FCED8FF0A42BFBEC35F0FC20E703120E91
:100700009B020E4C020E2485823285833385F034A1
:10071000852335900704020F85C008858108E50808
:1007200024FBF535E50824FBF88632088633088675
:1007300034900704120F85D00822120ECE30D50255
:10074000B2D1BF0009BC0003020E90020E83BC00B0
:1007500003020E6DE583B4FF0BE582B4FF03020EC6
:1007600090020E6DE582B4FF03020E83C3958350A1
:1007700007247F400B020E6D2480145003020E8369
:10078000C0E0E4CCCBCAF98D3B8E3C8F3DEF54F0FA
:10079000C4F53E758306853EF0EB84F582E9C4F925
:1007A000EAC4FAEBC4FBEC540FC47803D6FC18EB94
:1007B000D6FB18EAD6FA8582F0EDA4A8F0FD858272
:1007C000F0EEA428FEE435F0F88582F0EFA428FFCF
:1007D000E435F0F8E99DF9EA9EFAEB9FFBEC98FC12
:1007E000AD3BAE3CAF3D30E7101582E92DF9EA3E56
:1007F000FAEB3FFBE43CFC80EDC082D58398C3E973
:1008000033F9EA33FAEB33FBEC33FCC3E99DEA9EA0
:10081000EB9FEC9400B3E413F9D002D0E0C44AFAA1
:10082000D003D0E0C44BFBD004D0E0F5F0540FC4AB
:100830004CFCD082158230F40FD3EC13FCEB13FB8D
:10084000EA13FAE913F90582E930E70A74012AFA92
:10085000E43BFBE43CFC020E648524828525831284
:1008600015A6858233E533600A052DE4B52D06050E
:100870002E8002D204853382227A007B0030040568
:100880007845760022C002C003120859AC82D0031A
:10089000D002BC0002802DBC08028014BC0902807A
:1008A00023BC0A02801EBC0D028019BC20218014CA
:1008B000EA4B60D11ABAFF011B152D74FFB52D024A
:1008C000152E80C1EA4B60BDEA2445F8760022EC83
:1008D0007009EA2445F87600D20422ECB53207EA22
:1008E0002445F8760022C3EA940FEB940050968AD0
:1008F000058B060ABA00010BED2445F8A604020890
:1009000085AA827B7FC3EA648094B0401174B98A5F
:10091000F063F08095F04006EA24D0FB8030C3EA13
:10092000648094C1401174C68AF063F08095F040F1
:100930000674C92AFB8017C3EA648094E1400F74EF
:10094000E68AF063F08095F0400474A92AFBC3EBBB
:10095000952F50038B822275827F22AA82752900EF
:10096000752A00752B00752C008A00E6FA60148A3F
:1009700082C000120901AB82D000C3EB952F400367
:100980000880E886038B82C000120901AA82D00089
:10099000C3E52F9A4050852F3B753C00753D00758F
:1009A0003E00852982852A83852BF0E52CC002C074
:1009B00000121538AB82AC83ADF0FED000D0028BB4
:1009C000298C2A8D2B8E2CE4FBFCFDEA2529FAEBE1
:1009D000352AFBEC352BFCED352CFD8A298B2A8C36
:1009E0002B8D2C08809D852982852A83852BF0E517
:1009F0002C22AA82752900752A00752B00752C00FF
:100A00008A00E6FB60228B82C003C000120901ACA1
:100A100082D000D003C3EC952F400DBB2D0280087F
:100A2000BB2B0280030880DA88028603BB2D03D328
:100A30008001C39207BB2D028003BB2B010A8A826F
:100A400012095B300713C3E49529FAE4952AFBE405
:100A5000952BFCE4952CFD8008AA29AB2AAC2BAD84
:100A60002C8A828B838CF0ED22858224858325E479
:100A7000F52DF52EF531C204AA34AB35AC368A8299
:100A80008B838CF012151CFD74012AF534E43BF5C0
:100A9000358C36EDFA7003020E08BA250280030287
:100AA0000DA1D203C201752F00753000C205C20628
:100AB000AB34AC35AD368B828C838DF012151CFABD
:100AC000A3AB82AC838B348C358D368B828C838D3B
:100AD000F012151CF5328A06BE300040168A06EE6A
:100AE00024C6400FE53075F00AA4FEEA24D02EF5A6
:100AF0003080C38A06BE6100400A8A06EE24854023
:100B0000035302DFBA250280ADBA2A028045BA42F9
:100B1000028036BA43028040BA4403020C1CBA4930
:100B200003020C1CBA4C028025BA4E03020C2FBAE9
:100B30004F03020C21BA53028020BA5503020C1A4B
:100B4000BA5803020C28020C57D201020AB6D2028C
:100B5000020AB6D205020AB6D206200517E53724E6
:100B6000FDF88837860308860408860518188B2642
:100B70008C278D28E530700B3006047B0180027BCA
:100B8000FF8B30752F00C3E52F95305005120859A3
:100B9000AA82300407E52F7003020C57EA601ABAE4
:100BA0002002800DBA09028008BA0D028003BA0A39
:100BB00003300605E530B52F1FE52F60C92005126B
:100BC0000531AB26AC27AD288B828C838DF0E412E7
:100BD00015A8752F00020C57BA081CE52F60A72036
:100BE0000511AB26AC27AD281BBBFF011C8B268C47
:100BF000278D28152F808F20051BAB26AC27AD280D
:100C00008B828C838DF0EA1215A80BBB00010C8B34
:100C1000268C278D28052F020B86C203752F0A808C
:100C200036C203752F08802FC203752F108028E568
:100C30003724FDF8883786030886040886051818C7
:100C40008B268C278D288B828C838DF0E52D1215B9
:100C5000A8A3E52E1215A8E52F7003020DA1120816
:100C6000797845E67003020DA1300503020DA1E578
:100C70003724FDF888378603088604088605181887
:100C80008B268C278D280531200303020D1A300294
:100C90003585263885273985283A7582451209F227
:100CA000AE82AF83ABF0FC853882853983853AF01C
:100CB000EE1215A8A3EF1215A8A3EB1215A8A3EC2A
:100CC0001215A8020DA13001268526388527398501
:100CD000283A7582451209F2AE82AF83ABF0FC85EB
:100CE0003882853983853AF0EE1215A8020DA18568
:100CF000263885273985283A7582451209F2AE8251
:100D0000AF83ABF0FC853882853983853AF0EE12EB
:100D100015A8A3EF1215A8020DA1300234852638BC
:100D200085273985283A75824512095BAE82AF83E3
:100D3000ABF0FC853882853983853AF0EE1215A830
:100D4000A3EF1215A8A3EB1215A8A3EC1215A88007
:100D50005030012585263885273985283A75824502
:100D600012095BAE82AF83ABF0FC85388285398394
:100D7000853AF0EE1215A880288526388527398512
:100D8000283A75824512095BAE82AF83ABF0FC85D1
:100D90003882853983853AF0EE1215A8A3EF121533
:100DA000A8200403020A78AB34AC35AD368B828CB4
:100DB000838DF012151CFEA3AB82AC838B348C3573
:100DC0008D36EEFA7003020A78BA25E18B828C83A5
:100DD0008DF012151CFABA6E028003BA4ECFE537B9
:100DE00024FDF88837860208860608860718188AC0
:100DF000268E278F288A828E838FF0E52D1215A8E4
:100E0000A3E52E1215A880A5AA317B008A828B83C8
:100E10002210980280FBAA998A82C002120E24D066
:100E2000028A8222AA82BA0A0810990280FB759966
:100E30000D10990280FB8A9922FCABF0AA83A9824B
:100E4000749EC2D1F582120E9B020E4CB98003EA49
:100E500013B34010EA2401FAE43BFBE43CFC5004E9
:100E60007C800582BC000EBB000BBA0008E4F5F0E4
:100E7000F583F58222A2D1E582138CF092F78B8361
:100E80008A8222E4F583F58275F080F4A2D11322E0
:100E9000E4F583F58275F0C0747F227804EC70115C
:100EA000E58224F8500AF582E4C9CACBFCD8EF22C7
:100EB000EC7820058220E713D5820122C3E933F9BB
:100EC000EA33FAEB33FBEC33FCD8EA158222AA8230
:100ED000AB83A2F73392D16002D2F7F582ACF0E592
:100EE0008124F9F8E6FD08E6FE0886F008E6A2F798
:100EF0003392D56002D2F7F583AFF022AA82740D47
:100F0000C0E0740FC0E0C024C0258A8222052BE413
:100F1000B52B02052C22AA8274302AFA24C6500A64
:100F200074072AFA3008034302208A82020EFCE585
:100F300082FAC4540FF582C002120F16D002740F49
:100F40005AF582020F16AA26AB27AC28AD29AE2A85
:100F5000753120EE2EFEED235401FF4206EA2AFAF7
:100F6000EB33FBEC33FCED33FDC3EE952D4008EE87
:100F7000C3952DFE430201D531D98A268B278C28B3
:100F80008D298E2A22858224858325E4F52BF52C54
:100F9000AA32AB33AC348A828B838CF012151CFDE1
:100FA00074012AF532E43BF5338C34EDFA70030218
:100FB0001515BA2502800302150DC20CC20DC20E12
:100FC000C20FC210C211C212C213C209C20AC20B9E
:100FD000752D00752E00752FFFAB32AC33AD348B01
:100FE000828C838DF012151CFAA3AB82AC838B32FA
:100FF0008C338D34BA25078A82120EFC80928A06C1
:10100000BE3000402E8A06EE24C6402774FFB52F5E
:1010100013E52E75F00AA4FEEA24D02EF52E70BF3B
:10102000D20D80BBE52F75F00AA4FEEA24D02EF580
:101030002F80ACBA2E0A74FFB52FA4752F00809FA5
:101040008A06BE6100400E8A06EE248540075302E0
:10105000DFD2088002C208BA20028075BA230302D8
:1010600010E0BA2A030210E5BA2B02805FBA2D0203
:101070008055BA4202805FBA430302112ABA440380
:10108000021265BA450302127FBA460302127BBA06
:101090004703021283BA4903021265BA4C02803B2D
:1010A000BA4E03021287BA4F0302126CBA500302FF
:1010B00011FEBA530302114EBA5503021271BA5807
:1010C000030212760212B1D20C020FDFD20E020F0F
:1010D000DFD20F020FDFD211020FDFD212020FDFB9
:1010E000D213020FDF74FFB52F2030110BE535143A
:1010F000F88835862E020FDFE53524FEF888358620
:1011000006088607188E2E020FDF30110BE5351406
:10111000F88835862F020FDFE53524FEF8883586FE
:1011200006088607188E2F020FDF30110AE53514E6
:10113000F888358602800FE53524FEF88835860369
:10114000088604188B028A82120EFC0212B6E5355C
:1011500024FDF88835860308860408860518188B50
:10116000268C278D288B828C838DF01215C1AB8243
:10117000AC838B3074FFB52F0385302F200C1DC33B
:10118000E530952E5016E52EC39530F52EAB2E1575
:101190002EEB6008758220120EFC80F18526828578
:1011A00027838528F012151CFBFA6029AB2F152F19
:1011B000C3E464808BF063F08095F050188A82124B
:1011C0000EFCAB26AC27AD280BBB00010C8B268C8C
:1011D000278D2880C7200C030212B6C3E530952E58
:1011E00040030212B6E52EC39530F52EAB2E152E18
:1011F000EB70030212B6758220120EFC80EEE5350C
:1012000024FDF88835860308860408860518188B9F
:10121000268C278D28E528FB30E7047A438013EBE2
:10122000546060047A50800AEB30E6047A49800208
:101230007A588A82C002120EFC75823A120EFC7530
:101240008230120EFC758278120EFCD002BA49026E
:10125000800BBA50028006852782120F2F852682C6
:10126000120F2F8051D210752D0A804A752D0880DB
:1012700045752D0A8040752D10803BD2098037D2EC
:101280000A8033D20B802FE53524FDF8883586039C
:1012900008860408860518188B268C278D288B82D3
:1012A0008C838DF0E52B1215A8A3E52C1215A880D0
:1012B000058A82120EFC200906200A03300B5AE52B
:1012C0003524FCF8883586030886040886050886D8
:1012D000061818188B268C278D288E297526DE7502
:1012E000270075288085263685273785283874019C
:1012F0002536FEE43537FFAB388E268F278B2885C1
:1013000036828537838538F012151CFBFA7003028C
:101310000F908A82120EFC80CCE52D7003020F9094
:101320007B4430112BE53514F88835E6FC3395E025
:10133000FDFEFF8C268D278E288F2920105EAC267F
:101340007D007E007F008C268D278E288F29804C83
:1013500030121FE53524FCF8883586040886050818
:1013600086060886071818188C268D278E288F2940
:10137000802AE53524FEF88835860408860518EDB0
:101380003395E0FEFF8C268D278E288F2920100CA8
:10139000AC26AD277E007F008E288F29301343E5D1
:1013A0002645274528452960397408B52D0C7582D6
:1013B00030C003120EFCD00380287410B52D2375A5
:1013C0008230C003120EFCD00330080C758278C046
:1013D00003120EFCD003800A758258C003120EFC63
:1013E000D003301025AC26AD27AE28E529FF30E725
:1013F00017C3E49CFCE49DFDE49EFEE49FFF8C2665
:101400008D278E288F298002C210753000D2148B50
:1014100000752A00C000120F46D00020140DE52AE6
:10142000C4FCE6FD4CF61888038002A62A0530B2FB
:1014300014E52645274528452970D68803E52E70F2
:1014400003752E01200D1A200C17E53004FCC395FE
:101450002E500E758220C003120EFCD003152E8074
:10146000E930100E75822DC003120EFCD003152E2C
:101470008024E5306020300E0E75822BC003120EE2
:10148000FCD003152E800F300F0C758220C0031284
:101490000EFCD003152E200C1EAC2E152EC3E530ED
:1014A0009C5027300D047C3080027C208C82C0034D
:1014B000120EFCD00380E2C3E530952E5009E52ED4
:1014C000C39530F52E8003752E008B00AB301530A0
:1014D000EB6022B21420140A08E6C4540FFB8B2AD6
:1014E00080078603740F5BF52A852A82C000120FDD
:1014F00016D00080D7200C03020F90AB2E152EEBD8
:101500007003020F90758220120EFC80EE8A821208
:101510000EFC020F90852B82852C832220F714303D
:10152000F6148883A88220F507E6A8837583002235
:10153000E280F7E49322E022AAF0FBE582853BF00B
:10154000A4FCADF0E583853BF0A42DFDE435F0FE71
:10155000E582853CF0A42DFDE5F03EFEE433FFEA94
:10156000853BF0A42EFEE5F03FFFE583853CF0A42B
:101570002EFEE5F03FFFE582853DF0A42EFEE5F06E
:101580003FFFEB853BF0A42FFFEA853CF0A42FFF43
:10159000E583853DF0A42FFFE582853EF0A42F8EE4
:1015A000F08D838C8222E47320F71030F61188834B
:1015B000A88220F507F6A88375830022F280F7F051
:1015C00022AA82AB83ACF07D007E008A828B838C62
:1015D000F012151CFFA3AA82AB83EF60070DBD00BC
:1015E000EA0E80E78D828E8322000000000000005A
:00000001FF
