:1000000002001E00000000000000000201130000BA
:100010000000000000000000000000020280758166
:1000200062120341E582600302008A780079007A57
:10003000007B007C007D00EC4D601C88828983E49D
:1000400093A3A882A9838A828B83F0A3AA82AB831D
:100050001CBCFFE31D80E07582007583007C007D81
:1000600000EC4D600AE4F0A31CBCFFF51D80F275A6
:1000700082007583007C007D00EC4D600AE4F0A3F3
:100080001CBCFFF51D80F21200E81203BE80FE6466
:10009000005000CDCC4C3D0000A0410C0058022681
:1000A00002F401C20190015E012C01FA00C8009621
:1000B00000640032000400444C20253364202D20CD
:1000C000445220253364202D205374616765202518
:1000D0003364282564290D001B5B324A003C4E4FD7
:1000E00020464C4F41543E00752300752400752571
:1000F000A0752641E4F527F528E4F529F52AE4F56D
:1001000033F534E4F535F536E4F537F538E4F5390B
:10011000F53A22C020C0E0C0F0C082C083C002C057
:1001200003C004C005C006C007C000C001C0D07530
:10013000D00074012527F527E43528F528C374631A
:100140009527E495285005E4F527F528740125291D
:10015000F529E4352AF52AC374E795297403952A0D
:10016000504AE4F529F52A754906E4F54AE549259A
:10017000E0FAE54A33FBEA249DF582EB3400F5838F
:10018000E493FAA3E493FBC049C04AC002C003C091
:100190003DC03EC03BC03C74B7C0E07400C0E074DA
:1001A00080C0E0120B85E58124F5F581C3E4952B31
:1001B000E46480852CF063F08095F05014AA2BAB9A
:1001C0002CC3E5279AE5289B9208B39281D28080C0
:1001D0001CE52C30E717C3E4952BFAE4952CFBC300
:1001E000E5279AE5289B9208B39280D281E52B45BA
:1001F0002C701FD280A2809281C3E4952BFAE495E3
:100200002CFBC3E5279AE5289B9208B39290D291E4
:100210008004D290D291C3E4952DE46480852EF0C1
:1002200063F08095F05014AA2DAB2EC3E5279AE514
:10023000289B9208B39284D283801CE52E30E71766
:10024000C3E4952DFAE4952EFBC3E5279AE5289B98
:100250009208B39283D284E52D452E7006D283A2F4
:10026000839284D0D0D001D000D007D006D005D062
:1002700004D003D002D083D082D0F0D0E0D020329E
:10028000C020C0E0C0F0C082C083C002C003C00470
:10029000C005C006C007C000C001C0D075D0007541
:1002A00082001208D5AA82AB83ACF0FD74CDC0E009
:1002B00074CCC0E0C0E0743DC0E08A828B838CF0D7
:1002C000ED120A44AA82E58124FCF581EA6055C258
:1002D000A9852B37852C38852D39852E3A758200D6
:1002E0001208D5AA82AB83ACF0FD74CDC0E074CC0B
:1002F000C0E0C0E0743DC0E08A828B838CF0ED12D8
:100300000A44AA82E58124FCF581EA70D012083201
:1003100085824585834685372B85382C85392D8503
:100320003A2ED2A9D0D0D001D000D007D006D00527
:10033000D004D003D002D083D082D0F0D0E0D0203F
:100340003275E60075E70075D60075D70075CE00EA
:1003500075CF0075C60075C700758E1175BE007526
:10036000BF00438780759852759B00759AFA759BFC
:100370001E75891175F4FF758CFF75F248758A48F2
:1003800075F5FE758DFE75F390758B90D28CC28ECF
:10039000D2A9D2AFE4F531F532752F01E4F530D2B0
:1003A000A2D2A1D2A074D8C0E07400C0E07480C012
:1003B000E0120B8515811581158175820022E4F507
:1003C0002BF52CF52DF52EF545F546E54545467002
:1003D000FA1204D180F5C2AF7582011209408582FC
:1003E0003F858340C3740A953FE464808540F06391
:1003F000F08095F05006853F3B85403C75820012A9
:100400000940858241858342C3740D9541E464802F
:100410008542F063F08095F0505BC3E54194FAE5C6
:100420004264809480504E854182854283120BF74E
:10043000AA82AB83ACF0FDC002C003C004C005902B
:10044000333375F093743F120A74AA82AB83ACF015
:10045000FDE58124FCF5818A828B838CF0ED120A04
:100460001085823D85833E7523007524007525E047
:100470007526408059C3E54194FAE5426480948032
:10048000404C854182854283120BF7AA82AB83AC34
:10049000F0FDC002C003C004C00590666675F0861A
:1004A000743F120A74AA82AB83ACF0FDE58124FC90
:1004B000F5818A828B838CF0ED120A1085823D854E
:1004C000833E752300752400752520752641D2AF23
:1004D000221203D6853B82853C83120BF7AA82AB9E
:1004E00083ACF0FDC023C024C025C0268A828B8344
:1004F0008CF0ED120B17AA82AB83ACF0FDE58124E2
:10050000FCF581853D82853E83C002C003C004C0E6
:1005100005120BF71209E0AA82E58124FCF581EAB5
:10052000601FD2A2C2A1D2A0900091E493FA7401FC
:1005300093FBC3E49AF52BE49BF52C8A2D8B2E803C
:100540006B853D82853E83120BF7AA82AB83ACF0AC
:10055000FDC023C024C025C0268A828B838CF0ED89
:10056000120B17AA82AB83ACF0FDE58124FCF58168
:10057000853B82853C83C002C003C004C005120BCA
:10058000F71209E0AA82E58124FCF581EA601DD218
:10059000A2C2A1D2A0900091E493FA740193FB8AC5
:1005A0002B8B2CC3E49AF52DE49BF52E1203D690E9
:1005B0000097E493FA740193FB740293FC74039321
:1005C000FD853D82853E83C002C003C004C0051284
:1005D0000BF7AE82AF83A8F0F9D005D004D003D0DA
:1005E00002C002C003C004C005C002C003C004C0F2
:1005F000058E828F8388F0E9120B1785824C8583E4
:100600004D85F04EF54FE58124FCF581E54925E067
:10061000FEE54A33FFEE249DF582EF3400F583E4D6
:1006200093FEA3E493FF8E828F83120BF7AE82AF0B
:1006300083A8F0F9C006C007C000C001854C8285C0
:100640004D83854EF0E54F120A44AE82E58124FCCD
:10065000F581D005D004D003D002EE6019D2A2C239
:10066000A1D2A090008FE493FE740193FF8E2B8F94
:100670002C8E2D8F2E22E54925E0FEE54A33FFEE34
:10068000249DF582EF3400F583E493FEA3E493FF09
:100690008E828F83C002C003C004C005120BF71204
:1006A0000B17AA82AB83ACF0FDE58124FCF58185B4
:1006B0003D82853E83C002C003C004C005120BF713
:1006C0001209E0AA82E58124FCF581EA6020D2A229
:1006D000C2A1D2A090008FE493FA740193FBC3E40B
:1006E0009AFAE49BFB8A2B8B2C8A2D8B2E22D2A28A
:1006F000D2A1C2A0E4F52DF52EF52BF52C22858292
:100700005285835385F0549000B5E493F5557401F8
:1007100093F556AF55A8568552828553838554F07C
:10072000E4120BA6A3E4120BA68F0188051FBFFFDE
:100730000118C3E499E464808DF063F08095F04083
:10074000030207CC8552828553838554F01209B881
:10075000F557A31209B8F5588F01E8C925E0C93348
:10076000FAE92552F9EA3553FAAB5489828A838B28
:10077000F01209B8FCA31209B8FDEC2557FCED35C1
:1007800058FD8552828553838554F0EC120BA6A345
:10079000ED120BA6EF24FFFCE834FFCC25E0CC33B0
:1007A000FDEC2552FCED3553FDAE548C828D838ECD
:1007B000F01209B8FCA31209B8FD89828A838BF074
:1007C000EC120BA6A3ED120BA60207298552828517
:1007D00053838554F01209B8FAA31209B8FBE55007
:1007E0002AFAE5513BFB8552828553838554F0EA12
:1007F000120BA6A3EB120BA685555985565A8A8271
:100800008B83020BBFD2A2C2A1D2A0900091E4932D
:10081000FA740193FB8A2B8B2CC3E49AF52DE49B8D
:10082000F52E1208C71208C7E4F52DF52EF52BF5A5
:100830002C227A007B007C007D00C3EC9403ED94B5
:10084000005071758200C002C003C004C0051209C7
:10085000401209D4AE82AF83A8F0F9900093E493DC
:10086000C0E0740193C0E0740293C0E0740393C0CD
:10087000E08E828F8388F0E91209E0AE82E5812460
:10088000FCF581D005D004D003D002EE60158CF0C9
:1008900005F07E017F008006EE2EFEEF33FFD5F0DF
:1008A000F780047E007F00EE4202EF42030CBC00A2
:1008B000890D80868A828B83227A0A792D782DD8B9
:1008C000FED9FADAF622227A0A79B478B4D8FED9B7
:1008D000FADAF622221209401209D4AA82AB83ACBA
:1008E000F0FDC002C003C004C00590E14875F09A55
:1008F0007440120A74AA82AB83ACF0FDE58124FC3B
:10090000F581E4C0E074C0C0E0747FC0E07444C00E
:10091000E08A828B838CF0ED120C04AA82AB83AC4C
:10092000F0FDE58124FCF5818A828B838CF0ED2239
:10093000AA8253C47F8AC5748055C4FABA80F8224B
:10094000AA8253C3BF75C33F43C340C29474184ABD
:10095000F5821209307A0A7B001ABAFF011BEA4BB2
:1009600070F7758255120930743F55C5FB7A0075D2
:100970008255C002C003120930D003D002D2947451
:10098000F055C5FC7D00EC2AFAED3BC4CAC4540FF7
:100990006ACA540FCA6ACA8A82F583227A0279F82F
:1009A00078B8D8FED9FADAF622227A0379F878B83C
:1009B000D8FED9FADAF6222220F71430F61488830A
:1009C000A88220F507E6A88375830022E280F7E479
:1009D0009322E022E4AC83AB82FAF9748E020D55C7
:1009E000FFA8811818120D7DD2D133E6400730E7F9
:1009F0000B7582012220E70675820022C2D1120DFA
:100A00005FE97003F5822230D101B3E433F582222D
:100A1000120DA8700AE582458345F0700122E4308A
:100A2000D112F4700BE5F0F47006E58330E7012293
:100A300090800022700AE5F07006E58320E701222D
:100A4000907FFF22FFA8811818120D7DD2D133E6C6
:100A5000400730E70B7582002220E70675820122ED
:100A6000C2D1120D5FE97003F5822220D101B3E4F7
:100A700033F58222120E85BC0003020E24EF60FAC9
:100A800030D502B2D1E583B4FF03020E3AE582B459
:100A9000FF03020E3A258340072482400B020E24F6
:100AA0002483145003020E3AF582EA8DF0A4A8F0D4
:100AB000EA8EF0A428F8E435F0F9EB8DF0A428E9EB
:100AC00035F0F9E433CA8FF0A429F9EA35F0FAEBEE
:100AD000F88EF0A429F9EA35F0FAE433FBEC8DF056
:100AE000A429F9EA35F0FAE43BFBE88FF0A42AFAEE
:100AF000EB35F0FBE433CCFD8EF0A42AFAEB35F0B5
:100B0000FBE43CFCED8FF0A42BFBEC35F0FC20E784
:100B100003120E52020E03120E857900E583B58290
:100B200002800D5003120EB3E583C39582120ECDE1
:100B3000E5D0C465D020E117EA2DFAEB3EFBEC3F8F
:100B4000FC50097401120ECDEC4480FC020E03C36C
:100B5000EA9DFAEB9EFBEC9FFC500FC3E499F9E48D
:100B60009AFAE49BFBE49CFCB2D1120E52020E03F3
:100B700002153085821885831985F01A85091B9026
:100B80000B70020F99C008858108E50824FBF51B4E
:100B9000E50824FBF8861808861908861A900B7059
:100BA000120F99D0082220F71030F6118883A882FE
:100BB00020F507F6A88375830022F280F7F022C2A1
:100BC000D5E58330E70DD2D5E4C39582F582E4956F
:100BD00083F583E55A30E70DB2D5E4C39559F5594D
:100BE000E4955AF55A120D2330D50BE4C39582F5DE
:100BF00082E49583F58322AC83AB827A007900741A
:100C00008E02154E120E8530D502B2D1BF0009BC3E
:100C10000003020E47020E3ABC0003020E24E583D5
:100C2000B4FF0BE582B4FF03020E47020E24E582F7
:100C3000B4FF03020E3AC395835007247F400B0292
:100C40000E242480145003020E3AC0E0E4CCCBCA38
:100C5000F98D598E5A8F5BEF54F0C4F55C7583069D
:100C6000855CF0EB84F582E9C4F9EAC4FAEBC4FBD5
:100C7000EC540FC47803D6FC18EBD6FB18EAD6FA6E
:100C80008582F0EDA4A8F0FD8582F0EEA428FEE4B4
:100C900035F0F88582F0EFA428FFE435F0F8E99DFF
:100CA000F9EA9EFAEB9FFBEC98FCAD59AE5AAF5BAC
:100CB00030E7101582E92DF9EA3EFAEB3FFBE43C00
:100CC000FC80EDC082D58398C3E933F9EA33FAEBAF
:100CD00033FBEC33FCC3E99DEA9EEB9FEC9400B33D
:100CE000E413F9D002D0E0C44AFAD003D0E0C44BF8
:100CF000FBD004D0E0F5F0540FC44CFCD082158238
:100D000030F40FD3EC13FCEB13FBEA13FAE913F9FD
:100D10000582E930E70A74012AFAE43BFBE43CFC73
:100D2000020E1B7A10E4FBFCE58225E0F582E583E8
:100D300033F583EB33FBEC33FCEB9559F5F0EC9595
:100D40005A4006FCABF0438201DADD22FCABF0AA8C
:100D500083A982749EC2D1F582120E52020E0379CB
:100D600001AA82E68F82B5821318E6B5F00E18E666
:100D7000B5830918E68A82B58202790022B4800F11
:100D8000E5F0700AE5837006E58270027F00EFB639
:100D9000801518B6001018B6000B18B60006080823
:100DA0000876002208080822121572C3749E9582E4
:100DB00040397900120ECD30D126E9F42401F582B4
:100DC000EAF43400F583EBF43400F5F0ECF434008D
:100DD000700AE582458345F0700122E430E70F2276
:100DE000EC20E71489828A838BF02230D10AE4F563
:100DF00082F583F5F074802274FFF582F583F5F0B7
:100E0000747F22B98003EA13B34010EA2401FAE4A4
:100E10003BFBE43CFC50047C800582BC000EBB0024
:100E20000BBA0008E4F5F0F583F58222A2D1E58241
:100E3000138CF092F78B838A8222E4F583F5827516
:100E4000F080F4A2D11322E4F583F58275F0C0742A
:100E50007F227804EC7011E58224F8500AF582E4D0
:100E6000C9CACBFCD8EF22EC7820058220E713D545
:100E7000820122C3E933F9EA33FAEB33FBEC33FCAA
:100E8000D8EA158222AA82AB83A2F73392D16002FC
:100E9000D2F7F582ACF0E58124F9F8E6FD08E6FE2C
:100EA0000886F008E6A2F73392D56002D2F7F58300
:100EB000AFF022E582C583F582A2D133A2D592D1CB
:100EC0001392D5ECCFFCEBCEFBEACDFA226040F8D2
:100ED0002582500274FFF582E824F8501ECCCBCA5C
:100EE000F9E4CC24F85014CBCAF9E4CB24F8500B25
:100EF000CAF9E4CA24F8500379002224086010F8E3
:100F0000C3EC13FCEB13FBEA13FAE913F9D8F12253
:100F1000AA827421C0E0740FC0E0C00AC00B8A82AC
:100F2000220511E4B51102051222AA8274302AFAB0
:100F300024C6500A74072AFA3009034302208A8221
:100F4000020F10E582FAC4540FF582C002120F2A74
:100F5000D002740F5AF582020F2AAA0CAB0DAC0E08
:100F6000AD0FAE10751720EE2EFEED235401FF429B
:100F700006EA2AFAEB33FBEC33FCED33FDC3EE95C6
:100F8000134008EEC39513FE430201D517D98A0C0E
:100F90008B0D8C0E8D0F8E102285820A85830BE4BB
:100FA000F511F512AA18AB19AC1A8A828B838CF052
:100FB0001209B8FD74012AF518E43BF5198C1AEDF5
:100FC000FA7003021529BA25028003021521C20D09
:100FD000C20EC20FC210C211C212C213C214C20A80
:100FE000C20BC20C7513007514007515FFAB18AC5D
:100FF00019AD1A8B828C838DF01209B8FAA3AB82DB
:10100000AC838B188C198D1ABA25078A82120F109F
:1010100080928A06BE3000402E8A06EE24C6402703
:1010200074FFB51513E51475F00AA4FEEA24D02E5A
:10103000F51470BFD20E80BBE51575F00AA4FEEA68
:1010400024D02EF51580ACBA2E0A74FFB515A47500
:101050001500809F8A06BE6100400E8A06EE248538
:1010600040075302DFD2098002C209BA200280750C
:10107000BA23030210F4BA2A030210F9BA2B028031
:101080005FBA2D028055BA4202805FBA4303021153
:101090003EBA4403021279BA4503021293BA4603D8
:1010A00002128FBA4703021297BA4903021279BAA1
:1010B0004C02803BBA4E0302129BBA4F03021280CD
:1010C000BA5003021212BA5303021162BA55030254
:1010D0001285BA580302128A0212C5D20D020FF30A
:1010E000D20F020FF3D210020FF3D212020FF3D27B
:1010F00013020FF3D214020FF374FFB51520301250
:101100000BE51B14F8881B8614020FF3E51B24FE65
:10111000F8881B8606088607188E14020FF3301213
:101120000BE51B14F8881B8615020FF3E51B24FE44
:10113000F8881B8606088607188E15020FF33012F2
:101140000AE51B14F8881B8602800FE51B24FEF8B5
:10115000881B8603088604188B028A82120F1002ED
:1011600012CAE51B24FDF8881B860308860408863E
:101170000518188B0C8C0D8D0E8B828C838DF012C4
:101180001584AB82AC838B1674FFB51503851615D9
:10119000200D1DC3E51695145016E514C39516F5DC
:1011A00014AB141514EB6008758220120F1080F137
:1011B000850C82850D83850EF01209B8FBFA602933
:1011C000AB151515C3E464808BF063F08095F05087
:1011D000188A82120F10AB0CAC0DAD0E0BBB0001C8
:1011E0000C8B0C8C0D8D0E80C7200D030212CAC310
:1011F000E516951440030212CAE514C39516F514BA
:10120000AB141514EB70030212CA758220120F1072
:1012100080EEE51B24FDF8881B86030886040886FB
:101220000518188B0C8C0D8D0EE50EFB30E7047A3B
:10123000438013EB546060047A50800AEB30E6047C
:101240007A4980027A588A82C002120F1075823A57
:10125000120F10758230120F10758278120F10D095
:1012600002BA4902800BBA50028006850D82120F25
:1012700043850C82120F438051D21175130A804AA4
:10128000751308804575130A8040751310803BD292
:101290000A8037D20B8033D20C802FE51B24FDF857
:1012A000881B860308860408860518188B0C8C0D8D
:1012B0008D0E8B828C838DF0E511120BA6A3E512A7
:1012C000120BA680058A82120F10200A06200B033B
:1012D000300C5AE51B24FCF8881B8603088604089A
:1012E00086050886061818188B0C8C0D8D0E8E0F2F
:1012F000750CDD750D00750E80850C1C850D1D852A
:101300000E1E7401251CFEE4351DFFAB1E8E0C8FD6
:101310000D8B0E851C82851D83851EF01209B8FB7E
:10132000FA7003020FA48A82120F1080CCE51370AA
:1013300003020FA47B6230122BE51B14F8881BE616
:10134000FC3395E0FDFEFF8C0C8D0D8E0E8F0F2073
:10135000115EAC0C7D007E007F008C0C8D0D8E0E1E
:101360008F0F804C30131FE51B24FCF8881B86046C
:101370000886050886060886071818188C0C8D0D37
:101380008E0E8F0F802AE51B24FEF8881B8604082A
:10139000860518ED3395E0FEFF8C0C8D0D8E0E8FBB
:1013A0000F20110CAC0CAD0D7E007F008E0E8F0F48
:1013B000301443E50C450D450E450F60397408B5F2
:1013C000130C758230C003120F10D00380287410E4
:1013D000B51323758230C003120F10D00330090CEF
:1013E000758278C003120F10D003800A758258C02E
:1013F00003120F10D003301125AC0CAD0DAE0EE56D
:101400000FFF30E717C3E49CFCE49DFDE49EFEE47F
:101410009FFF8C0C8D0D8E0E8F0F8002C2117516E2
:1014200000D2158B00751000C000120F5AD000209A
:10143000150DE510C4FCE6FD4CF61888038002A6E5
:10144000100516B215E50C450D450E450F70D688F2
:1014500003E5147003751401200E1A200D17E5160C
:1014600004FCC39514500E758220C003120F10D0D7
:1014700003151480E930110E75822DC003120F1070
:10148000D00315148024E5166020300F0E75822BD2
:10149000C003120F10D0031514800F30100C75828A
:1014A00020C003120F10D0031514200D1EAC14150C
:1014B00014C3E5169C5027300E047C3080027C203B
:1014C0008C82C003120F10D00380E2C3E51695147E
:1014D0005009E514C39516F51480037514008B00AC
:1014E000AB161516EB6022B21520150A08E6C45497
:1014F0000FFB8B1080078603740F5BF5108510823D
:10150000C000120F2AD00080D7200D03020FA4AB19
:10151000141514EB7003020FA4758220120F1080B3
:10152000EE8A82120F10020FA48511828512832287
:10153000AA82BA0A0810990280FB75990D109902C7
:1015400080FB8A9922FCABF0AA83A982749EF58263
:10155000C2D1EC30E716D2D1E9F42401F9EAF4342F
:1015600000FAEBF43400FBECF43400FC120E5202EF
:101570000E03AA82AB83A2F73392D16002D2F7F5B1
:1015800082ACF022AA82AB83ACF07D007E008A821E
:101590008B838CF01209B8FFA3AA82AB83EF60079C
:1015A0000DBD00EA0E80E78D828E832200000000D0
:00000001FF
