:1000000002000E0200B100000000000200B2758183
:1000100021120198E582600302007A780079007A63
:10002000007B007C007D00EC4D601C88828983E4AD
:1000300093A3A882A9838A828B83F0A3AA82AB832D
:100040001CBCFFE31D80E07582007583007C007D91
:1000500000EC4D600AE4F0A31CBCFFF51D80F275B6
:1000600082007583007C007D00EC4D600AE4F0A303
:100070001CBCFFF51D80F21200971201E180FE0505
:10008000000A000F00140019001E00230028002D94
:1000900000320037003C00E4F508F509E4F50AF504
:1000A0000BE4F50CF50DE4F50EF50FE4F510F51184
:1000B0002232C020C0E0C0F0C082C083C002C003B2
:1000C000C004C005C006C007C000C001C0D075D0C4
:1000D0000074012508F508E43509F509C374639532
:1000E00008E495095005E4F508F509120243E51402
:1000F000B51207E515B513028003120244C3E49557
:100100000AE46480850BF063F08095F05012AA0A2F
:10011000AB0BC3E5089AE5099B9208B39290D29184
:10012000E50B30E717C3E4950AFAE4950BFBC3E54A
:10013000089AE5099B9208B39291D290C3E4950C7A
:10014000E46480850DF063F08095F05012AA0CAB4A
:100150000DC3E5089AE5099B9208B39290D291E508
:100160000D30E717C3E4950CFAE4950DFBC3E508E1
:100170009AE5099B9208B39291D290D0D0D001D049
:1001800000D007D006D005D004D003D002D083D051
:1001900082D0F0D0E0D0203275E60075E70075D649
:1001A0000075D70075CE0075CF0075C60075C70005
:1001B000758E1175BE0075BF0075890175F3FF75E9
:1001C0008CFF75F248758A48D28CD2A9D2A8D28801
:1001D000D2AFE4F516F517751803E4F5197582002A
:1001E00022E5164517700512028280F5C374059545
:1001F00016E495174046E51625162516900200735D
:1002000002023C02021202022302023802023A02F5
:10021000023CE51845196024151874FFB51802153D
:100220001980197407B51806E4B51902800E05186F
:10023000E4B518080519800480028000E4F516F57D
:1002400017809E22AA0AAB0BAC0CAD0DC3E512952C
:1002500014E5139515E433FE600E750A32E4F50BD0
:10026000750CCE750DFF80E4EE600E750ACE750B31
:10027000FF750C32E4F50D80EF8C0C8D0D8A0A8B26
:100280000B22E5182518FAE51933FBEA247FF582DD
:10029000EB3400F583E493FAA3E493FB8A048B0523
:1002A000C3EC9514ED9515500C750C4BE4F50D75DC
:1002B0000A4BE4F50BC3EA9514EB9515500C750C3D
:1002C000B5750DFF750AB5750BFF227C0A7BB8DB8F
:1002D000FEDCFA22227A1479F878B8D8FED9FADA54
:1002E000F6222212034E1203AAAA82AB83ACF0FDBF
:1002F000C002C003C004C00590E14875F09A744084
:100300001203B6AA82AB83ACF0FDE58124FCF58133
:10031000E4C0E074C0C0E0747FC0E07444C0E08A10
:10032000828B838CF0ED120459AA82AB83ACF0FD72
:10033000E58124FCF5818A828B838CF0ED22AA82F0
:1003400053C47F8AC5748055C4FABA80F822AA8241
:1003500053C3BF75C33F43C340C29474184AF58268
:1003600012033E7A0A7B001ABAFF011BEA4B70F7B0
:1003700075825512033E743F55C5FB7A0075825550
:10038000C002C00312033ED003D002D29474F055D1
:10039000C5FC7D00EC2AFAED3BC4CAC4540F6ACAFE
:1003A000540FCA6ACA8A82F58322E4AC83AB82FA0C
:1003B000F9748E02058112060DBC00030205ACEF34
:1003C00060FA30D502B2D1E583B4FF030205C2E57D
:1003D00082B4FF030205C2258340072482400B023A
:1003E00005AC24831450030205C2F582EA8DF0A403
:1003F000A8F0EA8EF0A428F8E435F0F9EB8DF0A42B
:1004000028E935F0F9E433CA8FF0A429F9EA35F088
:10041000FAEBF88EF0A429F9EA35F0FAE433FBECB4
:100420008DF0A429F9EA35F0FAE43BFBE88FF0A45B
:100430002AFAEB35F0FBE433CCFD8EF0A42AFAEB7C
:1004400035F0FBE43CFCED8FF0A42BFBEC35F0FC2D
:1004500020E7031205DA02058B12060D30D502B231
:10046000D1BF0009BC00030205CF0205C2BC0003D6
:100470000205ACE583B4FF0BE582B4FF030205CFB0
:100480000205ACE582B4FF030205C2C395835007A1
:10049000247F400B0205AC24801450030205C2C027
:1004A000E0E4CCCBCAF98D1A8E1B8F1CEF54F0C43C
:1004B000F51D758306851DF0EB84F582E9C4F9EA24
:1004C000C4FAEBC4FBEC540FC47803D6FC18EBD68B
:1004D000FB18EAD6FA8582F0EDA4A8F0FD8582F03B
:1004E000EEA428FEE435F0F88582F0EFA428FFE4BE
:1004F00035F0F8E99DF9EA9EFAEB9FFBEC98FCAD2C
:100500001AAE1BAF1C30E7101582E92DF9EA3EFA4E
:10051000EB3FFBE43CFC80EDC082D58398C3E9331C
:10052000F9EA33FAEB33FBEC33FCC3E99DEA9EEBCB
:100530009FEC9400B3E413F9D002D0E0C44AFAD09F
:1005400003D0E0C44BFBD004D0E0F5F0540FC44C12
:10055000FCD082158230F40FD3EC13FCEB13FBEAD2
:1005600013FAE913F90582E930E70A74012AFAE47B
:100570003BFBE43CFC0205A3FCABF0AA83A982741C
:100580009EC2D1F5821205DA02058BB98003EA1307
:10059000B34010EA2401FAE43BFBE43CFC50047C49
:1005A000800582BC000EBB000BBA0008E4F5F0F534
:1005B00083F58222A2D1E582138CF092F78B838A95
:1005C0008222E4F583F58275F080F4A2D11322E44F
:1005D000F583F58275F0C0747F227804EC7011E524
:1005E0008224F8500AF582E4C9CACBFCD8EF22EC89
:1005F0007820058220E713D5820122C3E933F9EA86
:1006000033FAEB33FBEC33FCD8EA158222AA82AB37
:1006100083A2F73392D16002D2F7F582ACF0E58184
:1006200024F9F8E6FD08E6FE0886F008E6A2F733AE
:1006300092D56002D2F7F583AFF0220000000000EF
:00000001FF
