:1000000002001E00000000000000000201170000B6
:10001000000000000000000000000002026F758177
:10002000561202E7E582600302008A780079007ABE
:10003000007B007C007D00EC4D601C88828983E49D
:1000400093A3A882A9838A828B83F0A3AA82AB831D
:100050001CBCFFE31D80E07582007583007C007D81
:1000600000EC4D600AE4F0A31CBCFFF51D80F275A6
:1000700082007583007C007D00EC4D600AE4F0A3F3
:100080001CBCFFF51D80F21200EC12036480FE50D0
:100090000064000000A0410C0058022602F401C2D6
:1000A0000190015E012C01FA00C800960064003244
:1000B00000444C20253364202D20445220253364F5
:1000C000202D205374616765202533642825642919
:1000D000202D20496E73742025640D001B5B324A6D
:1000E000003C4E4F20464C4F41543E007523007556
:1000F00024007525A0752641E4F527F528E4F529A7
:10010000F52AE4F533F534E4F535F536E4F537F55D
:1001100038E4F539F53A22C020C0E0C0F0C082C012
:1001200083C002C003C004C005C006C007C000C031
:1001300001C0D075D00074012527F527E43528F5D6
:1001400028C374639527E495285005E4F527F5281E
:1001500074012529F529E4352AF52AC374E7952980
:100160007403952A504EE4F529F52A754B06E4F5FB
:100170004CE54B25E0FAE54C33FBEA2499F582EB9C
:100180003400F583E493FAA3E493FBC045C046C072
:100190004BC04CC002C003C03DC03EC03BC03C741D
:1001A000B1C0E07400C0E07480C0E0120A86E5814E
:1001B00024F3F581C3E4952BE46480852CF063F08F
:1001C0008095F05014AA2BAB2CC3E5279AE5289B09
:1001D0009208B39281D280802AE52C30E719C3E4DB
:1001E000952BFAE4952CFBC3E5279AE5289B92080A
:1001F000B39280D281800CE52B452C7006D280A270
:10020000809281C3E4952DE46480852EF063F080B4
:1002100095F05014AA2DAB2EC3E5279AE5289B92A2
:1002200008B39284D283802AE52E30E719C3E4957F
:100230002DFAE4952EFBC3E5279AE5289B9208B397
:100240009283D284800CE52D452E7006D283A28342
:100250009284D0D0D001D000D007D006D005D004F1
:10026000D003D002D083D082D0F0D0E0D02032C0F2
:1002700020C0E0C0F0C082C083C002C003C004C080
:1002800005C006C007C000C001C0D075D00075828F
:100290000012085DAA82AB83C3EA940AEB94005073
:1002A00029E4F52DF52EF52BF52CC2A97582001247
:1002B000085DAA82AB83C3EA940AEB940040ED1276
:1002C0000794858245858346D2A9D0D0D001D0003D
:1002D000D007D006D005D004D003D002D083D0827E
:1002E000D0F0D0E0D0203275E60075E70075D6007A
:1002F00075D70075CE0075CF0075C60075C700753F
:100300008E1175BE0075BF00438780759852759B2E
:1003100000759AFA759B1E75891175F4FF758CFF2F
:1003200075F248758A4875F5FE758DFE75F3907502
:100330008B90D28CC28ED2A9D2AFE4F531F5327552
:100340002F01E4F530D2A2D2A1D2A074DCC0E074B7
:1003500000C0E07480C0E0120A8615811581158105
:1003600075820022E4F52BF52CF52DF52EF545F5DB
:1003700046E545454670FA12047780F5C2AF7582AE
:100380000112085D85823F858340C3740A953FE46E
:1003900064808540F063F08095F05006853F3B8592
:1003A000403C75820012085D858241858342C3749A
:1003B0000D9541E464808542F063F08095F0505BD8
:1003C000C3E54194FAE54264809480504E854182B1
:1003D000854283120AA7AA82AB83ACF0FDC002C09B
:1003E00003C004C00590333375F093743F12097550
:1003F000AA82AB83ACF0FDE58124FCF5818A828B77
:10040000838CF0ED12091185823D85833E752300B2
:100410007524007525E07526408059C3E54194FA9E
:10042000E54264809480404C854182854283120A73
:10043000A7AA82AB83ACF0FDC002C003C004C00514
:1004400090666675F086743F120975AA82AB83AC1C
:10045000F0FDE58124FCF5818A828B838CF0ED121E
:10046000091185823D85833E75230075240075251D
:1004700020752641D2AF22E4F549F54A12037CE506
:100480003B453C7015E53D453E700FF52DF52EF5CD
:100490002BF52CC2A2D2A1D2A022853B82853C831F
:1004A000120AA7AA82AB83ACF0FDC023C024C025EA
:1004B000C0268A828B838CF0ED120A18AA82AB8345
:1004C000ACF0FDE58124FCF581853D82853E83C04D
:1004D00002C003C004C005120AA71208E1AA82E5FF
:1004E0008124FCF581EA601A900091E493FA74018A
:1004F00093FBC3E49AF52BE49BF52C8A2D8B2E02FB
:100500000574853D82853E83120AA7AA82AB83AC1F
:10051000F0FDC023C024C025C0268A828B838CF0C6
:10052000ED120A18AA82AB83ACF0FDE58124FCF53C
:1005300081853B82853C83C002C003C004C0051294
:100540000AA71208E1AA82E58124FCF581EA601974
:10055000900091E493FA740193FB8A2B8B2CC3E4F3
:100560009AF52DE49BF52E800B74012549F549E49D
:10057000354AF54A12037C900093E493FA74019390
:10058000FB740293FC740393FD853D82853E83C01A
:1005900002C003C004C005120AA7AE82AF83A8F050
:1005A000F9D005D004D003D002C002C003C004C0FB
:1005B00005C002C003C004C0058E828F8388F0E9A5
:1005C000120A1885824D85834E85F04FF550E581DE
:1005D00024FCF581E54B25E0FEE54C33FFEE249944
:1005E000F582EF3400F583E493FEA3E493FF8E825B
:1005F0008F83120AA7AE82AF83A8F0F9C006C007A6
:10060000C000C001854D82854E83854FF0E55012B4
:100610000945AE82E58124FCF581D005D004D003E4
:10062000D002EE601590008FE493FE740193FF8E6C
:100630002B8F2C8E2D8F2E0206B8E54B25E0FEE584
:100640004C33FFEE2499F582EF3400F583E493FEFA
:10065000A3E493FF8E828F83C002C003C004C00551
:10066000120AA7120A18AA82AB83ACF0FDE5812416
:10067000FCF581853D82853E83C002C003C004C075
:1006800005120AA71208E1AA82E58124FCF581EA95
:10069000601B90008FE493FA740193FBC3E49AFA11
:1006A000E49BFB8A2B8B2C8A2D8B2E800B740125CF
:1006B00049F549E4354AF54AC3E5499402E54A64F7
:1006C0008094805007D2A2C2A1D2A022D2A2D2A1ED
:1006D000C2A022D2A2C2A1D2A0900091E493FA7447
:1006E0000193FB8A2B8B2CC3E49AF52DE49BF52E0A
:1006F000120831120831D2A2D2A1C2A0E4F52DF520
:100700002EF52BF52C22D2A2C2A1D2A090008FE40C
:1007100093FA740193FBC3E49AFAE49BFB8A2D8B52
:100720002E8A2B8B2C12083F900091E493FA7401CF
:1007300093FBC3E49AF52BE49BF52C8A2D8B2E12A8
:10074000083F90008FE493FA740193FBC3E49AFA94
:10075000E49BFB8A2D8B2E8A2B8B2C12083F90005A
:1007600091E493FA740193FB8A2B8B2CC3E49AF5E2
:100770002DE49BF52E12083F90008FE493FA74014C
:1007800093FBC3E49AFAE49BFB8A2D8B2E8A2B8B76
:100790002C02083F7A007B00C002C0031208C7D0B9
:1007A00003D0027C007D00C3EC9403ED9400507CE8
:1007B000758200C002C003C004C00512085D1208A3
:1007C000D5AE82AF83A8F0F9E4C0E0C0E07420C0E9
:1007D000E07441C0E08E828F8388F0E91208E1AEB8
:1007E00082E58124FCF581D005D004D003D002EE4F
:1007F00060158CF005F07E017F008006EE2EFEEF86
:1008000033FFD5F0F780047E007F00EE4202EF4216
:1008100003C002C003C004C0051208B9D005D0044B
:10082000D003D0020CBC00010D0207A78A828B8383
:10083000227A0A79B478B4D8FED9FADAF622227A82
:100840000A795A78B4D8FED9FADAF62222AA825363
:10085000C47F8AC5748055C4FABA80F822AA82532C
:10086000C3BF75C33F43C340C29474184AF5821294
:10087000084D7A0A7B001ABAFF011BEA4B70F77524
:10088000825512084D743F55C5FB7A00758255C0DC
:1008900002C00312084DD003D002D29474F055C5A3
:1008A000FC7D00EC2AFAED3BC4CAC4540F6ACA545A
:1008B0000FCA6ACA8A82F583227A0279F878B8D890
:1008C000FED9FADAF622227A0379F878B8D8FED976
:1008D000FADAF62222E4AC83AB82FAF9748E020AC9
:1008E000BDFFA8811818120AE5D2D133E6400730BF
:1008F000E70B7582012220E70675820022C2D11221
:100900000AC7E97003F5822230D101B3E433F582DE
:1009100022120B10700AE582458345F0700122E433
:1009200030D112F4700BE5F0F47006E58330E70186
:100930002290800022700AE5F07006E58320E7012E
:1009400022907FFF22FFA8811818120AE5D2D13326
:10095000E6400730E70B7582002220E7067582012A
:1009600022C2D1120AC7E97003F5822220D101B355
:10097000E433F58222120BEDBC0003020B8CEF6016
:10098000FA30D502B2D1E583B4FF03020BA2E582AF
:10099000B4FF03020BA2258340072482400B020B05
:1009A0008C2483145003020BA2F582EA8DF0A4A8D4
:1009B000F0EA8EF0A428F8E435F0F9EB8DF0A428E5
:1009C000E935F0F9E433CA8FF0A429F9EA35F0FAF1
:1009D000EBF88EF0A429F9EA35F0FAE433FBEC8D5C
:1009E000F0A429F9EA35F0FAE43BFBE88FF0A42AF9
:1009F000FAEB35F0FBE433CCFD8EF0A42AFAEB35AC
:100A0000F0FBE43CFCED8FF0A42BFBEC35F0FC207C
:100A1000E703120BBA020B6B120BED7900E583B5FD
:100A20008202800D5003120C1BE583C39582120CC9
:100A300035E5D0C465D020E117EA2DFAEB3EFBEC9A
:100A40003FFC50097401120C35EC4480FC020B6B26
:100A5000C3EA9DFAEB9EFBEC9FFC500FC3E499F9AF
:100A6000E49AFAE49BFBE49CFCB2D1120BBA020BB1
:100A70006B02129885821885831985F01A85091BE7
:100A8000900A71020D01C008858108E50824FBF574
:100A90001BE50824FBF8861808861908861A900AB0
:100AA00071120D01D00822AC83AB827A00790074F8
:100AB0008E0212B6FCABF0AA83A982749EC2D1F555
:100AC00082120BBA020B6B7901AA82E68F82B58281
:100AD0001318E6B5F00E18E6B5830918E68A82B554
:100AE0008202790022B4800FE5F0700AE583700677
:100AF000E58270027F00EFB6801518B6001018B6B8
:100B0000000B18B60006080808760022080808221C
:100B10001212DAC3749E958240397900120C353076
:100B2000D126E9F42401F582EAF43400F583EBF4EC
:100B30003400F5F0ECF43400700AE582458345F0AA
:100B4000700122E430E70F22EC20E71489828A83C7
:100B50008BF02230D10AE4F582F583F5F07480221F
:100B600074FFF582F583F5F0747F22B98003EA13F0
:100B7000B34010EA2401FAE43BFBE43CFC50047C63
:100B8000800582BC000EBB000BBA0008E4F5F0F54E
:100B900083F58222A2D1E582138CF092F78B838AAF
:100BA0008222E4F583F58275F080F4A2D11322E469
:100BB000F583F58275F0C0747F227804EC7011E53E
:100BC0008224F8500AF582E4C9CACBFCD8EF22ECA3
:100BD0007820058220E713D5820122C3E933F9EAA0
:100BE00033FAEB33FBEC33FCD8EA158222AA82AB52
:100BF00083A2F73392D16002D2F7F582ACF0E5819F
:100C000024F9F8E6FD08E6FE0886F008E6A2F733C8
:100C100092D56002D2F7F583AFF022E582C583F565
:100C200082A2D133A2D592D11392D5ECCFFCEBCED8
:100C3000FBEACDFA226040F82582500274FFF5826B
:100C4000E824F8501ECCCBCAF9E4CC24F85014CBDD
:100C5000CAF9E4CB24F8500BCAF9E4CA24F85003CB
:100C600079002224086010F8C3EC13FCEB13FBEAB4
:100C700013FAE913F9D8F122AA827489C0E0740C3E
:100C8000C0E0C00AC00B8A82220511E4B51102053A
:100C90001222AA8274302AFA24C6500A74072AFA49
:100CA0003009034302208A82020C78E582FAC45498
:100CB0000FF582C002120C92D002740F5AF5820214
:100CC0000C92AA0CAB0DAC0EAD0FAE10751720EE4A
:100CD0002EFEED235401FF4206EA2AFAEB33FBEC29
:100CE00033FCED33FDC3EE95134008EEC39513FEC0
:100CF000430201D517D98A0C8B0D8C0E8D0F8E10E7
:100D00002285820A85830BE4F511F512AA18AB1926
:100D1000AC1A8A828B838CF01212ECFD74012AF5D6
:100D200018E43BF5198C1AEDFA7003021291BA25FA
:100D3000028003021289C20DC20EC20FC210C2117C
:100D4000C212C213C214C20AC20BC20C75130075C0
:100D500014007515FFAB18AC19AD1A8B828C838DFE
:100D6000F01212ECFAA3AB82AC838B188C198D1A9B
:100D7000BA25078A82120C7880928A06BE3000401B
:100D80002E8A06EE24C6402774FFB51513E51475A8
:100D9000F00AA4FEEA24D02EF51470BFD20E80BB58
:100DA000E51575F00AA4FEEA24D02EF51580ACBA3C
:100DB0002E0A74FFB515A4751500809F8A06BE61C2
:100DC00000400E8A06EE248540075302DFD20980D8
:100DD00002C209BA20028075BA2303020E5CBA2A45
:100DE00003020E61BA2B02805FBA2D028055BA420F
:100DF00002805FBA4303020EA6BA4403020FE1BAAF
:100E00004503020FFBBA4603020FF7BA4703020F6E
:100E1000FFBA4903020FE1BA4C02803BBA4E03020B
:100E20001003BA4F03020FE8BA5003020F7ABA5305
:100E300003020ECABA5503020FEDBA5803020FF2AD
:100E400002102DD20D020D5BD20F020D5BD21002EB
:100E50000D5BD212020D5BD213020D5BD214020D98
:100E60005B74FFB5152030120BE51B14F8881B8648
:100E700014020D5BE51B24FEF8881B860608860716
:100E8000188E14020D5B30120BE51B14F8881B86BC
:100E900015020D5BE51B24FEF8881B8606088607F5
:100EA000188E15020D5B30120AE51B14F8881B869C
:100EB00002800FE51B24FEF8881B860308860418B1
:100EC0008B028A82120C78021032E51B24FDF8880E
:100ED0001B860308860408860518188B0C8C0D8D5C
:100EE0000E8B828C838DF0121321AB82AC838B1618
:100EF00074FFB51503851615200D1DC3E516951451
:100F00005016E514C39516F514AB141514EB6008D0
:100F1000758220120C7880F1850C82850D83850EF8
:100F2000F01212ECFBFA6029AB151515C3E46480CE
:100F30008BF063F08095F050188A82120C78AB0C1D
:100F4000AC0DAD0E0BBB00010C8B0C8C0D8D0E800F
:100F5000C7200D03021032C3E5169514400302109A
:100F600032E514C39516F514AB141514EB70030297
:100F70001032758220120C7880EEE51B24FDF88873
:100F80001B860308860408860518188B0C8C0D8DAB
:100F90000EE50EFB30E7047A438013EB54606004E7
:100FA0007A50800AEB30E6047A4980027A588A82C5
:100FB000C002120C7875823A120C78758230120CCD
:100FC00078758278120C78D002BA4902800BBA5038
:100FD000028006850D82120CAB850C82120CAB8050
:100FE00051D21175130A804A751308804575130A8A
:100FF0008040751310803BD20A8037D20B8033D2E9
:101000000C802FE51B24FDF8881B86030886040846
:10101000860518188B0C8C0D8D0E8B828C838DF0B1
:10102000E511121308A3E51212130880058A821233
:101030000C78200A06200B03300C5AE51B24FCF820
:10104000881B860308860408860508860618181873
:101050008B0C8C0D8D0E8E0F750CE1750D00750EC1
:1010600080850C1C850D1D850E1E7401251CFEE45B
:10107000351DFFAB1E8E0C8F0D8B0E851C82851DC2
:1010800083851EF01212ECFBFA7003020D0C8A82AB
:10109000120C7880CCE5137003020D0C7B563012D5
:1010A0002BE51B14F8881BE6FC3395E0FDFEFF8C56
:1010B0000C8D0D8E0E8F0F20115EAC0C7D007E000E
:1010C0007F008C0C8D0D8E0E8F0F804C30131FE522
:1010D0001B24FCF8881B86040886050886060886FB
:1010E000071818188C0C8D0D8E0E8F0F802AE51B9B
:1010F00024FEF8881B860408860518ED3395E0FE6B
:10110000FF8C0C8D0D8E0E8F0F20110CAC0CAD0DC5
:101110007E007F008E0E8F0F301443E50C450D4589
:101120000E450F60397408B5130C758230C0031278
:101130000C78D00380287410B51323758230C00357
:10114000120C78D00330090C758278C003120C7829
:10115000D003800A758258C003120C78D003301176
:1011600025AC0CAD0DAE0EE50FFF30E717C3E49CC8
:10117000FCE49DFDE49EFEE49FFF8C0C8D0D8E0E25
:101180008F0F8002C211751600D2158B00751000EA
:10119000C000120CC2D00020150DE510C4FCE6FD05
:1011A0004CF61888038002A6100516B215E50C450A
:1011B0000D450E450F70D68803E5147003751401B4
:1011C000200E1A200D17E51604FCC39514500E7559
:1011D0008220C003120C78D003151480E930110E60
:1011E00075822DC003120C78D00315148024E516E7
:1011F0006020300F0E75822BC003120C78D00315BF
:1012000014800F30100C758220C003120C78D003AC
:101210001514200D1EAC141514C3E5169C50273070
:101220000E047C3080027C208C82C003120C78D0AB
:101230000380E2C3E51695145009E514C39516F52D
:101240001480037514008B00AB161516EB6022B2E8
:101250001520150A08E6C4540FFB8B10800786037F
:10126000740F5BF510851082C000120C92D00080C4
:10127000D7200D03020D0CAB141514EB7003020DF7
:101280000C758220120C7880EE8A82120C78020D86
:101290000C85118285128322AA82BA0A081099024B
:1012A00080FB75990D10990280FB8A9922FCABF0A6
:1012B000AA83A982749EF582C2D1EC30E716D2D1FE
:1012C000E9F42401F9EAF43400FAEBF43400FBEC1D
:1012D000F43400FC120BBA020B6BAA82AB83A2F7A8
:1012E0003392D16002D2F7F582ACF02220F71430AD
:1012F000F6148883A88220F507E6A8837583002268
:10130000E280F7E49322E02220F71030F611888380
:10131000A88220F507F6A88375830022F280F7F0F3
:1013200022AA82AB83ACF07D007E008A828B838C04
:10133000F01212ECFFA3AA82AB83EF60070DBD0091
:10134000EA0E80E78D828E832200000000000000FC
:00000001FF
