:1000000002001E000000000000000002014000008D
:1000100000000000000000000000000202C775811F
:1000200066120388E582600302008A780079007A0C
:10003000007B007C007D00EC4D601C88828983E49D
:1000400093A3A882A9838A828B83F0A3AA82AB831D
:100050001CBCFFE31D80E07582007583007C007D81
:1000600000EC4D600AE4F0A31CBCFFF51D80F275A6
:1000700082007583007C007D00EC4D600AE4F0A3F3
:100080001CBCFFF51D80F21200FD12040580FE6409
:10009000006400CDCC4C3D00007041CDCCCC3D0C7B
:1000A0000000001644008009440000FA430000E10B
:1000B000430000C8430000AF430000964300007AAD
:1000C0004300004843000016430000C842000048B7
:1000D00042444C2025332E3166202D2044522025C9
:1000E000332E3166202D2053746167652025332E11
:1000F0003166282564290D001B5B324A00E4F52394
:10010000F524E4F525F526E4F52FF530E4F531F591
:1001100032E4F533F534E4F535F5367546007547C8
:1001200000754800754900754A00754B00754C0014
:10013000754D00754E00754F0075500075510022C9
:10014000C020C0E0C0F0C082C083C002C003C004B1
:10015000C005C006C007C000C001C0D075D0007483
:10016000012523F523E43524F524C374639523E4A2
:1001700095245005E4F523F52474012525F525E49F
:100180003526F526C374E79525740395265064E457
:10019000F525F526754306E4F544AA43E544CA254A
:1001A000E0CA33CA25E0CA33FBEA24A1F582EB3466
:1001B00000F583E493FAA3E493FBA3E493FCA3E4A4
:1001C00093FDC043C044C002C003C004C005C03B8F
:1001D000C03CC03DC03EC037C038C039C03A74D101
:1001E000C0E07400C0E07480C0E0120C56E58124C9
:1001F000EFF581C3E49527E464808528F063F080FF
:1002000095F05014AA27AB28C3E5239AE5249B92C6
:1002100008B39281D280801CE52830E717C3E495AB
:1002200027FAE49528FBC3E5239AE5249B9208B3BB
:100230009280D281E5274528701FD280A2809281CA
:10024000C3E49527FAE49528FBC3E5239AE5249BAC
:100250009208B39290D2918004D290D291C3E49547
:1002600029E46480852AF063F08095F05014AA296F
:10027000AB2AC3E5239AE5249B9208B39284D283E8
:10028000801CE52A30E717C3E49529FAE4952AFB98
:10029000C3E5239AE5249B9208B39283D284E5298F
:1002A000452A7006D283A2839284D0D0D001D00098
:1002B000D007D006D005D004D003D002D083D0829E
:1002C000D0F0D0E0D02032C020C0E0C0F0C082C06A
:1002D00083C002C003C004C005C006C007C000C080
:1002E00001C0D075D0007582001209F6AA82AB83D6
:1002F000ACF0FD74CDC0E074CCC0E0C0E0743DC093
:10030000E08A828B838CF0ED120B15AA82E58124A2
:10031000FCF581EA6055C2A98527338528348529F3
:1003200035852A367582001209F6AA82AB83ACF0B5
:10033000FD74CDC0E074CCC0E0C0E0743DC0E08A84
:10034000828B838CF0ED120B15AA82E58124FCF5DB
:1003500081EA70D012096185823F85834085332709
:1003600085342885352985362AD2A9D0D0D001D028
:1003700000D007D006D005D004D003D002D083D05F
:1003800082D0F0D0E0D0203275E60075E70075D657
:100390000075D70075CE0075CF0075C60075C70013
:1003A000758E1175BE0075BF0043878075985275B4
:1003B0009B00759AFA759B1E75891175F4FF758CF3
:1003C000FF75F248758A4875F5FE758DFE75F390D8
:1003D000758B90D28CC28ED2A9D2AFE4F52DF52EBA
:1003E000752B01E4F52CD2A2D2A1D2A074F8C0E002
:1003F0007400C0E07480C0E0120C561581158115A0
:100400008175820022E4F527F528F529F52AF53FC4
:10041000F540E53F454070FA120626D2A2D2A1C2AD
:10042000A080EF758200120A61120AD9AA82AB83FA
:10043000ACF0FDC002C003C004C00590999A75F0ED
:1004400099743F120B4585823B85833C85F03DF5D1
:100450003EE58124FCF581758201120A61120AD9F8
:1004600085823785833885F039F53AC037C038C082
:1004700039C03A853B82853C83853DF0E53E120BD1
:10048000E8AA82AB83ACF0FDE58124FCF581E4C0F1
:10049000E0C0E0C0E07440C0E08A828B838CF0ED65
:1004A000120CD3AA82AB83ACF0FDE58124FCF5816C
:1004B0008A828B838CF0ED22120423AA82AB83AC58
:1004C000F0FDE4C0E0C0E07448C0E07442C0E08ADF
:1004D000828B838CF0ED120B15AA82E58124FCF54A
:1004E00081EA600490000022C037C038C039C03AA9
:1004F000853B82853C83853DF0E53E120CC8AA828F
:10050000AB83ACF0FDE58124FCF581C002C003C0E3
:1005100004C005C037C038C039C03A853B82853C2D
:1005200083853DF0E53E120BE8AE82AF83A8F0F97B
:10053000E58124FCF581D005D004D003D002C006AB
:10054000C007C000C0018A828B838CF0ED120CD3EF
:10055000AA82AB83ACF0FDE58124FCF58174CDC0AB
:10056000E074CCC0E0744CC0E0743EC0E08A828B82
:10057000838CF0ED120AE5AA82E58124FCF581EA7C
:10058000600490FFFF22C03BC03CC03DC03E8537A9
:10059000828538838539F0E53A120CC8AA82AB838C
:1005A000ACF0FDE58124FCF581C002C003C004C0AD
:1005B00005C037C038C039C03A853B82853C838549
:1005C0003DF0E53E120BE8AE82AF83A8F0F9E5817D
:1005D00024FCF581D005D004D003D002C006C007AA
:1005E000C000C0018A828B838CF0ED120CD3AA82EA
:1005F000AB83ACF0FDE58124FCF58174CDC0E074E3
:10060000CCC0E0C0E0743DC0E08A828B838CF0ED0A
:10061000120AE5AA82E58124FCF581EA60049000D3
:100620000122900000221204B8AA82AB83BA0142D0
:10063000BB003F900091E493F552740193F5539001
:10064000004675F0401208A2858227858328900015
:1006500091E493FA740193FBC3E49AF552E49BF599
:100660005390004C75F0401208A285822985832A98
:1006700080601204B8AA82AB83BAFF42BBFF3F90EE
:100680000091E493FA740193FBC3E49AF552E49B5E
:10069000F55390004675F0401208A28582278583A5
:1006A00028900091E493F552740193F55390004C17
:1006B00075F0401208A285822985832A8014E4F50A
:1006C00052F55390004675F0401208A285822785A6
:1006D0008328E4F552F55390004C75F0401208A2BF
:1006E00085822985832A120423AA82AB83ACF0FD7C
:1006F000900097E493C0E0740193C0E0740293C04B
:10070000E0740393C0E08A828B838CF0ED120BE8D7
:10071000AA82AB83ACF0FDE58124FCF581AE43E514
:1007200044CE25E0CE33CE25E0CE33FFEE24A1F536
:1007300082EF3400F583E493FEA3E493FFA3E493F4
:10074000F8A3E493F9C006C007C000C0018A828BF9
:10075000838CF0ED120B15AA82E58124FCF581EA69
:10076000603FD2A2C2A1D2A090008FE493F5527450
:100770000193F55390004675F0401208A285822738
:1007800085832890008FE493F552740193F553907C
:10079000004C75F0401208A285822985832A020840
:1007A000A1120423AA82AB83ACF0FDAE43E544CE94
:1007B00025E0CE33CE25E0CE33FFEE24A1F582EF47
:1007C0003400F583E493FEA3E493FFA3E493F8A33A
:1007D000E493F9C002C003C004C005900097E493FD
:1007E000C0E0740193C0E0740293C0E0740393C04E
:1007F000E08E828F8388F0E9120BE8AE82AF83A887
:10080000F0F9E58124FCF581D005D004D003D002B5
:10081000C006C007C000C0018A828B838CF0ED1235
:100820000AE5AA82E58124FCF581EA604CD2A2C2E5
:10083000A1D2A090008FE493FA740193FBC3E49AD1
:10084000F552E49BF55390004675F0401208A285DE
:10085000822785832890008FE493FA740193FBC369
:10086000E49AF552E49BF55390004C75F040120861
:10087000A285822985832A8028E4F552F5539000C9
:100880004675F0401208A2858227858328E4F55238
:10089000F55390004C75F0401208A285822985839B
:1008A0002A2285825485835585F05674042554FD8B
:1008B000E43555FEAF5674022554F8E43555F9AACF
:1008C00056888289838AF0120ABDFBA3120ABDFCF6
:1008D0008D828E838FF0EB120C77A3EC120C778550
:1008E00054828555838556F0120ABDFDA3120ABDB8
:1008F000FE888289838AF0ED120C77A3EE120C77C2
:10090000ED2552FDEE3553FEEB2DF582EC3EF583E1
:10091000751C03E4F51D120C90AA82AB83855482EA
:100920008555838556F0EA120C77A3EB120C778A73
:10093000828B8322D2A2C2A1D2A0900091E493FA2A
:10094000740193FB8A278B28C3E49AF529E49BF56D
:100950002A1209E81209E8E4F529F52AF527F5280D
:10096000227A007B007C007D00C3EC9403ED9400B0
:100970005071758200C002C003C004C005120A6134
:10098000120AD9AE82AF83A8F0F9900093E493C025
:10099000E0740193C0E0740293C0E0740393C0E07C
:1009A0008E828F8388F0E9120AE5AE82E58124FC0D
:1009B000F581D005D004D003D002EE60158CF0058F
:1009C000F07E017F008006EE2EFEEF33FFD5F0F7BC
:1009D00080047E007F00EE4202EF42030CBC0089DF
:1009E0000D80868A828B83227A0A79B478B4D8FE05
:1009F000D9FADAF62222120A61120AD9AA82AB8344
:100A0000ACF0FDC002C003C004C00590E14875F021
:100A10009A7440120B45AA82AB83ACF0FDE58124A9
:100A2000FCF581E4C0E074C0C0E0747FC0E07444B1
:100A3000C0E08A828B838CF0ED120CD3AA82AB8348
:100A4000ACF0FDE58124FCF5818A828B838CF0ED8E
:100A500022AA8253C47F8AC5748055C4FABA80F82A
:100A600022AA8253C3BF75C33F43C340C2947418C4
:100A70004AF582120A517A0A7B001ABAFF011BEA70
:100A80004B70F7758255120A51743F55C5FB7A00B9
:100A9000758255C002C003120A51D003D002D2940D
:100AA00074F055C5FC7D00EC2AFAED3BC4CAC45471
:100AB0000F6ACA540FCA6ACA8A82F5832220F714C1
:100AC00030F6148883A88220F507E6A88375830092
:100AD00022E280F7E49322E022E4AC83AB82FAF9CD
:100AE000748E020E24FFA8811818120E4CD2D13336
:100AF000E6400730E70B7582012220E70675820089
:100B000022C2D1120E2EE97003F5822230D101B338
:100B1000E433F58222FFA8811818120E4CD2D1338B
:100B2000E6400730E70B7582002220E70675820158
:100B300022C2D1120E2EE97003F5822220D101B318
:100B4000E433F58222120EF9BC0003020E98EF6026
:100B5000FA30D502B2D1E583B4FF03020EAEE582CE
:100B6000B4FF03020EAE258340072482400B020E21
:100B7000982483145003020EAEF582EA8DF0A4A8E7
:100B8000F0EA8EF0A428F8E435F0F9EB8DF0A42813
:100B9000E935F0F9E433CA8FF0A429F9EA35F0FA1F
:100BA000EBF88EF0A429F9EA35F0FAE433FBEC8D8A
:100BB000F0A429F9EA35F0FAE43BFBE88FF0A42A27
:100BC000FAEB35F0FBE433CCFD8EF0A42AFAEB35DA
:100BD000F0FBE43CFCED8FF0A42BFBEC35F0FC20AB
:100BE000E703120EC6020E77120EF97900E583B5FF
:100BF0008202800D5003120F27E583C39582120FE6
:100C000041E5D0C465D020E117EA2DFAEB3EFBECBC
:100C10003FFC50097401120F41EC4480FC020E7736
:100C2000C3EA9DFAEB9EFBEC9FFC500FC3E499F9DD
:100C3000E49AFAE49BFBE49CFCB2D1120EC6020ECD
:100C40007702191085821885831985F01A85091B8A
:100C5000900C41021363C008858108E50824FBF568
:100C60001BE50824FBF8861808861908861A900CDC
:100C700041121363D0082220F71030F6118883A8A0
:100C80008220F507F6A88375830022F280F7F02210
:100C9000C2D5E58330E70DD2D5E4C39582F582E471
:100CA0009583F583E51D30E70DB2D5E4C3951CF5BA
:100CB0001CE4951DF51D120DF230D50BE4C3958291
:100CC000F582E49583F58322A8811818C6B2E7C699
:100CD000020BE8120EF930D502B2D1BF0009BC00F8
:100CE00003020EBB020EAEBC0003020E98E583B4F5
:100CF000FF0BE582B4FF03020EBB020E98E582B43F
:100D0000FF03020EAEC395835007247F400B020EF3
:100D1000982480145003020EAEC0E0E4CCCBCAF994
:100D20008D1C8E1D8F1EEF54F0C4F51F7583068534
:100D30001FF0EB84F582E9C4F9EAC4FAEBC4FBECDA
:100D4000540FC47803D6FC18EBD6FB18EAD6FA8504
:100D500082F0EDA4A8F0FD8582F0EEA428FEE43533
:100D6000F0F88582F0EFA428FFE435F0F8E99DF96A
:100D7000EA9EFAEB9FFBEC98FCAD1CAE1DAF1E305B
:100D8000E7101582E92DF9EA3EFAEB3FFBE43CFC63
:100D900080EDC082D58398C3E933F9EA33FAEB33A7
:100DA000FBEC33FCC3E99DEA9EEB9FEC9400B3E4BB
:100DB00013F9D002D0E0C44AFAD003D0E0C44BFB10
:100DC000D004D0E0F5F0540FC44CFCD08215823032
:100DD000F40FD3EC13FCEB13FBEA13FAE913F90558
:100DE00082E930E70A74012AFAE43BFBE43CFC02A6
:100DF0000E8F7A10E4FBFCE58225E0F582E5833373
:100E0000F583EB33FBEC33FCEB951CF5F0EC951D17
:100E10004006FCABF0438201DADD22FCABF0AA8392
:100E2000A982749EC2D1F582120EC6020E77790194
:100E3000AA82E68F82B5821318E6B5F00E18E6B5E1
:100E4000830918E68A82B58202790022B4800FE510
:100E5000F0700AE5837006E58270027F00EFB680CD
:100E60001518B6001018B6000B18B60006080808CA
:100E700076002208080822B98003EA13B34010EA7A
:100E80002401FAE43BFBE43CFC50047C800582BC7A
:100E9000000EBB000BBA0008E4F5F0F583F58222E2
:100EA000A2D1E582138CF092F78B838A8222E4F53B
:100EB00083F58275F080F4A2D11322E4F583F582E4
:100EC00075F0C0747F227804EC7011E58224F8502C
:100ED0000AF582E4C9CACBFCD8EF22EC782005825F
:100EE00020E713D5820122C3E933F9EA33FAEB3361
:100EF000FBEC33FCD8EA158222AA82AB83A2F7333B
:100F000092D16002D2F7F582ACF0E58124F9F8E6DF
:100F1000FD08E6FE0886F008E6A2F73392D56002E7
:100F2000D2F7F583AFF022E582C583F582A2D133F3
:100F3000A2D592D11392D5ECCFFCEBCEFBEACDFA41
:100F4000226040F82582500274FFF582E824F850B0
:100F50001ECCCBCAF9E4CC24F85014CBCAF9E4CBAC
:100F600024F8500BCAF9E4CA24F85003790022246B
:100F7000086010F8C3EC13FCEB13FBEA13FAE91357
:100F8000F9D8F122AA827495C0E0740FC0E0C00ABB
:100F9000C00B8A82220511E4B51102051222AA8231
:100FA00074302AFA24C6500A74072AFA3009034317
:100FB00002208A82020F84E582FAC4540FF582C0AF
:100FC00002120F9ED002740F5AF582020F9EAA0CD5
:100FD000AB0DAC0EAD0FAE10751720EE2EFEED234F
:100FE0005401FF4206EA2AFAEB33FBEC33FCED3303
:100FF000FDC3EE95134008EEC39513FE430201D5E1
:1010000017D98A0C8B0D8C0E8D0F8E10227863E60B
:1010100024D075F00AA4FA7864E624D02AFA78621B
:101020008603BB2D04C3E49AFA751301C3E46480FC
:101030008AF063F08095F050297517038A0374F6DF
:101040002517401C0513E517142457F8E5172457F6
:10105000F98704A604772E1BEBFA6004051780DEDF
:101060008B02EA30E70D785886037859A603785842
:10107000762E0AE515600AE51504FB2513F51380A5
:1010800005301402051378578603E4BB2D0104FBD9
:101090007006200F033010020513300D03021154A7
:1010A000300E57EB600C75822DC002120F84D002F7
:1010B000801C300F0C75822BC002120F84D002806E
:1010C0000D30100A758220C002120F84D0027858A9
:1010D0008604BC2E0C758230C002120F84D002151B
:1010E00014AC141514C3E5139C40030211987582C7
:1010F00030C002120F84D00280E7AC141514C3E58F
:10110000139C500C758220C002120F84D00280EA1A
:1011100078578604BC2D0C75822DC002120F84D026
:1011200002801C300F0C75822BC002120F84D0027B
:10113000800D30100A758220C002120F84D0027810
:10114000588604BC2E52758230C002120F84D00221
:1011500015148044EB600E75822DC002120F84D0EE
:101160000215148020300F0E75822BC002120F84DE
:10117000D0021514800F30100C758220C002120F9F
:1011800084D002151478588603BB2E0C758230C0AB
:1011900002120F84D0021514751701C216E5172428
:1011A00057F88603BB4503021255BB2E348A03C38E
:1011B000E464808BF063F08095F0500F758230C04E
:1011C00003120F84D0031B8B0280E48B02D216E53E
:1011D00015703820140302125575822E120F848068
:1011E000743016278A03EB30E71FC3E4648085154B
:1011F000F063F08095F0500C758230C003120F84BC
:10120000D00315150B8B0280DD8B0230160EC3E464
:1012100064808515F063F08095F05021E517245720
:10122000F886038B82C002120F84D00230160EE5BE
:10123000172457F88603BB2E02800215151514C318
:10124000E464808515F063F08095F0400320160576
:10125000051702119DC3E464808515F063F0809545
:10126000F0500A758230120F84151580E8300D0F8A
:10127000AA141514EA6008758220120F8480F122E6
:10128000E515700330140D74072515FAE514C39A9B
:10129000F5148006E51424FAF514751700785786BE
:1012A00002BA2B0F200F0C785776202010057517E7
:1012B000010514200D19AA14C3E464808AF063F0B8
:1012C0008095F0500A758220120F84151480E7C2B1
:1012D00016E5172457F88602BA00028069BA451F3E
:1012E0003009027665C3E464808515F063F080956B
:1012F000F0500A758230120F84151580E8D216C39B
:10130000E5179402E433FA7014EA700EC3E46480C3
:101310008515F063F08095F04003301616E517242C
:1013200057F886028A82120F84E51724FD501215A1
:1013300015800E7402B5170930140675822E120F2F
:101340008405170212D1300D19AA14C3E464808AEF
:10135000F063F08095F0500A758220120F84151406
:1013600080E72285820A85830BE4F511F512AA181D
:10137000AB19AC1A8A828B838CF0120ABDFD740102
:101380002AF518E43BF5198C1AEDFA7003021909D5
:10139000BA25028003021901C20DC20EC20FC2108B
:1013A000C211C212C213C214C20AC20BC20C7513FC
:1013B000007514007515FFAB18AC19AD1A8B828C33
:1013C000838DF0120ABDFAA3AB82AC838B188C1903
:1013D0008D1ABA25078A82120F8480928A06BE303F
:1013E00000402E8A06EE24C6402774FFB51513E58B
:1013F0001475F00AA4FEEA24D02EF51470BFD20EA4
:1014000080BBE51575F00AA4FEEA24D02EF5158000
:10141000ACBA2E0A74FFB515A4751500809F8A0614
:10142000BE6100400E8A06EE248540075302DFD2DB
:10143000098002C209BA20028075BA23030214BED1
:10144000BA2A030214C3BA2B02805FBA2D02805558
:10145000BA4202805FBA4303021508BA4403021677
:1014600043BA450302165DBA4603021659BA47034A
:10147000021661BA4903021643BA4C02803BBA4EC7
:1014800003021665BA4F0302164ABA50030215DC6E
:10149000BA530302152CBA550302164FBA58030269
:1014A000165402168FD20D0213BDD20F0213BDD2F5
:1014B000100213BDD2120213BDD2130213BDD214F7
:1014C0000213BD74FFB5152030120BE51B14F8880C
:1014D0001B86140213BDE51B24FEF8881B86060834
:1014E0008607188E140213BD30120BE51B14F88802
:1014F0001B86150213BDE51B24FEF8881B86060813
:101500008607188E150213BD30120AE51B14F888E1
:101510001B8602800FE51B24FEF8881B86030886C5
:1015200004188B028A82120F84021694E51B24FD94
:10153000F8881B860308860408860518188B0C8C0F
:101540000D8D0E8B828C838DF0121A44AB82AC838E
:101550008B1674FFB51503851615200D1DC3E516F2
:1015600095145016E514C39516F514AB141514EB29
:101570006008758220120F8480F1850C82850D83AE
:10158000850EF0120ABDFBFA6029AB151515C3E4F0
:1015900064808BF063F08095F050188A82120F847B
:1015A000AB0CAC0DAD0E0BBB00010C8B0C8C0D8D80
:1015B0000E80C7200D03021694C3E5169514400350
:1015C000021694E514C39516F514AB141514EB70BC
:1015D00003021694758220120F8480EEE51B24FD11
:1015E000F8881B860308860408860518188B0C8C5F
:1015F0000D8D0EE50EFB30E7047A438013EB54604B
:1016000060047A50800AEB30E6047A4980027A5806
:101610008A82C002120F8475823A120F847582305A
:10162000120F84758278120F84D002BA4902800B9F
:10163000BA50028006850D82120FB7850C82120FF8
:10164000B78051D21175130A804A75130880457509
:10165000130A8040751310803BD20A8037D20B806A
:1016600033D20C802FE51B24FDF8881B86030886E7
:101670000408860518188B0C8C0D8D0E8B828C83BC
:101680008DF0E511120C77A3E512120C7780058A14
:1016900082120F84200A06200B03300C70E51B24F5
:1016A000FCF8881B86030886040886050886061849
:1016B00018188B0C8C0D8D0E8E0FE50CE50DE50EBC
:1016C000E50F8B828C838DF0EE12192574FFB51512
:1016D00003751506300C27747F550FFB8B10E51032
:1016E000EB2BFB8B10E50E30E70674014510F5106F
:1016F000E51024684006749925104002D20B300B87
:101700000612128002136E12100D02136EE5137092
:101710000302136E7B5C30122BE51B14F8881BE66A
:10172000FC3395E0FDFEFF8C0C8D0D8E0E8F0F208F
:10173000115EAC0C7D007E007F008C0C8D0D8E0E3A
:101740008F0F804C30131FE51B24FCF8881B860488
:101750000886050886060886071818188C0C8D0D53
:101760008E0E8F0F802AE51B24FEF8881B86040846
:10177000860518ED3395E0FEFF8C0C8D0D8E0E8FD7
:101780000F20110CAC0CAD0D7E007F008E0E8F0F64
:10179000301443E50C450D450E450F60397408B50E
:1017A000130C758230C003120F84D003802874108C
:1017B000B51323758230C003120F84D00330090C97
:1017C000758278C003120F84D003800A758258C0D6
:1017D00003120F84D003301125AC0CAD0DAE0EE515
:1017E0000FFF30E717C3E49CFCE49DFDE49EFEE49C
:1017F0009FFF8C0C8D0D8E0E8F0F8002C2117516FF
:1018000000D2158B00751000C000120FCED0002042
:10181000150DE510C4FCE6FD4CF61888038002A601
:10182000100516B215E50C450D450E450F70D6880E
:1018300003E5147003751401200E1A200D17E51628
:1018400004FCC39514500E758220C003120F84D07F
:1018500003151480E930110E75822DC003120F8418
:10186000D00315148024E5166020300F0E75822BEE
:10187000C003120F84D0031514800F30100C758232
:1018800020C003120F84D0031514200D1EAC1415B4
:1018900014C3E5169C5027300E047C3080027C2057
:1018A0008C82C003120F84D00380E2C3E516951426
:1018B0005009E514C39516F51480037514008B00C8
:1018C000AB161516EB6022B21520150A08E6C454B3
:1018D0000FFB8B1080078603740F5BF51085108259
:1018E000C000120F9ED00080D7200D0302136EABF4
:1018F000141514EB700302136E758220120F84808E
:10190000EE8A82120F8402136E8511828512832261
:10191000AA82BA0A0810990280FB75990D109902E3
:1019200080FB8A9922C0E0F84582458345F0700922
:10193000F5F0FBFCFDFE0219F3E823A2F792E0F8B4
:10194000A982AA83D2F7ABF07C007E07C374979874
:10195000404074FF2EFE740A89F0A4F985F0827469
:101960000A8AF0A4FA85F083740A8BF0A4FB74054C
:1019700029F9EA3582FAEB3583FB740035F0FCC3B4
:10198000EC13FCEB13FBEA13FAE913F908EC70EF24
:1019900080BAE8C3947FF88B838EF0E4FBFCFDFEF5
:1019A000FF08C3E933F9EA33FAE58333F583EB3B08
:1019B000D4FBEC3CD4FCED3DD4FDEE3ED4FEEF3F39
:1019C000D4FF602D05F074052BD4FBE43CD4FCE47B
:1019D0003DD4FDE43ED4FEE43FD4FF758204C3EF62
:1019E00013FFEE13FEED13FDEC13FCEB13FBD5829E
:1019F000EDD8AF7857D0E020E704762B8002762D23
:101A0000087906E7C4540F4430F608B90603762E69
:101A100008E7540F4430F60819B902E7764508E59F
:101A2000F020E704762B8004762DF4040875F00A84
:101A3000844430F608E5F04430F608E4F6900057A8
:101A400075F04022AA82AB83ACF07D007E008A82D2
:101A50008B838CF0120ABDFFA3AA82AB83EF6007D1
:101A60000DBD00EA0E80E78D828E8322000000000B
:00000001FF
