:1000000002001E00000000000000000201250000A8
:1000100000000000000000000000000202AC75813A
:100020007612036DE582600302008A780079007A17
:10003000007B007C007D00EC4D601C88828983E49D
:1000400093A3A882A9838A828B83F0A3AA82AB831D
:100050001CBCFFE31D80E07582007583007C007D81
:1000600004EC4D600AE4F0A31CBCFFF51D80F275A2
:1000700082007583007C007D00EC4D600AE4F0A3F3
:100080001CBCFFF51D80F21201011203EA80FE6420
:10009000006400CDCC4C3D00007041CDCCCC3D0C7B
:1000A0000000001644008009440000FA430000E10B
:1000B000430000C8430000AF430000964300007AAD
:1000C0004300004843000016430000C842000048B7
:1000D000420400444C2025332E3166202D2044520A
:1000E0002025332E3166202D20537461676520252D
:1000F000332E3166282564290D001B5B324A00002F
:1001000004E4F523F524E4F525F526E4F52FF53090
:10011000E4F531F532E4F533F534E4F535F536E45C
:10012000F50BF50C22C020C0E0C0F0C082C083C037
:1001300002C003C004C005C006C007C000C001C0A3
:10014000D075D00074012523F523E43524F524C3AC
:1001500074639523E495245005E4F523F524740194
:100160002525F525E43526F526C374E79525740382
:1001700095265064E4F525F526754306E4F544AA72
:1001800043E544CA25E0CA33CA25E0CA33FBEA2462
:10019000A1F582EB3400F583E493FAA3E493FBA387
:1001A000E493FCA3E493FDC043C044C002C003C079
:1001B00004C005C03BC03CC03DC03EC037C038C0D5
:1001C00039C03A74D3C0E07400C0E07480C0E0125B
:1001D0000D5CE58124EFF581C3E49527E464808517
:1001E00028F063F08095F05014AA27AB28C3E523CC
:1001F0009AE5249B9208B39281D280801CE5283036
:10020000E717C3E49527FAE49528FBC3E5239AE5AD
:10021000249B9208B39280D281E5274528701FD293
:1002200080A2809281C3E49527FAE49528FBC3E578
:10023000239AE5249B9208B39290D2918004D290A5
:10024000D291C3E49529E46480852AF063F0809517
:10025000F05014AA29AB2AC3E5239AE5249B9208FF
:10026000B39284D283801CE52A30E717C3E4952932
:10027000FAE4952AFBC3E5239AE5249B9208B392FE
:1002800083D284E529452A7006D283A2839284D042
:10029000D0D001D000D007D006D005D004D003D0F4
:1002A00002D083D082D0F0D0E0D02032C020C0E095
:1002B000C0F0C082C083C002C003C004C005C00635
:1002C000C007C000C001C0D075D000758200120AFE
:1002D000B9AA82AB83ACF0FD74CDC0E074CCC0E0B1
:1002E000C0E0743DC0E08A828B838CF0ED120BD8A5
:1002F000AA82E58124FCF581EA6055C2A9852733ED
:10030000852834852935852A36758200120AB9AACE
:1003100082AB83ACF0FD74CDC0E074CCC0E0C0E033
:10032000743DC0E08A828B838CF0ED120BD8AA82D8
:10033000E58124FCF581EA70D0120A2485823F858C
:10034000834085332785342885352985362AD2A9E7
:10035000D0D0D001D000D007D006D005D004D00333
:10036000D002D083D082D0F0D0E0D0203275E60029
:1003700075E70075D60075D70075CE0075CF00758E
:10038000C60075C700758E1175BE0075BF00438726
:1003900080759852759B00759AFA759B1E75891128
:1003A00075F4FF758CFF75F248758A4875F5FE7512
:1003B0008DFE75F390758B90D28CC28ED2A9D2AF80
:1003C000E4F52DF52E752B01E4F52CD2A2D2A1D2A5
:1003D000A074FAC0E07400C0E07480C0E0120D5C4C
:1003E00015811581158175820022E4F527F528F520
:1003F00029F52AF53FF5409000D1E493FA74019372
:10040000FB750802E4F5098A828B83120CABAA8281
:10041000AB838A468B477548009000D1E493FA7409
:100420000193FB750802E4F5098A828B83120CABF9
:10043000AA82AB838A498B4A754B00E53F454070E1
:10044000FA12064FD2A2D2A1C2A080EF758200128A
:100450000B24120B9CAA82AB83ACF0FDC002C0033C
:10046000C004C00590999A75F099743F120C0885E4
:10047000823B85833C85F03DF53EE58124FCF5819A
:10048000758201120B24120B9C8582378583388577
:10049000F039F53AC037C038C039C03A853B82855B
:1004A0003C83853DF0E53E120CEEAA82AB83ACF0B6
:1004B000FDE58124FCF581E4C0E0C0E0C0E07440CB
:1004C000C0E08A828B838CF0ED120DD9AA82AB83B7
:1004D000ACF0FDE58124FCF5818A828B838CF0ED04
:1004E0002212044CAA82AB83ACF0FDE4C0E0C0E071
:1004F0007448C0E07442C0E08A828B838CF0ED12B5
:100500000BD8AA82E58124FCF581EA600490000002
:1005100022C037C038C039C03A853B82853C8385CC
:100520003DF0E53E120DCEAA82AB83ACF0FDE58135
:1005300024FCF581C002C003C004C005C037C03828
:10054000C039C03A853B82853C83853DF0E53E124B
:100550000CEEAE82AF83A8F0F9E58124FCF581D0E2
:1005600005D004D003D002C006C007C000C0018A75
:10057000828B838CF0ED120DD9AA82AB83ACF0FD97
:10058000E58124FCF58174CDC0E074CCC0E0744CEE
:10059000C0E0743EC0E08A828B838CF0ED120BA821
:1005A000AA82E58124FCF581EA600490FFFF22C065
:1005B0003BC03CC03DC03E8537828538838539F0DD
:1005C000E53A120DCEAA82AB83ACF0FDE58124FCA6
:1005D000F581C002C003C004C005C037C038C039AF
:1005E000C03A853B82853C83853DF0E53E120CEEAA
:1005F000AE82AF83A8F0F9E58124FCF581D005D067
:1006000004D003D002C006C007C000C0018A828B9C
:10061000838CF0ED120DD9AA82AB83ACF0FDE5819D
:1006200024FCF58174CDC0E074CCC0E0C0E0743D22
:10063000C0E08A828B838CF0ED120BA8AA82E58140
:1006400024FCF581EA60049000012290000022124F
:1006500004E1AA82AB83BA0148BB0045900091E453
:1006600093F54C740193F54D854682854783854803
:10067000F01208EF858227858328900091E493FA91
:10068000740193FBC3E49AF54CE49BF54D854982D4
:10069000854A83854BF01208EF85822985832A805D
:1006A000691204E1AA82AB83BAFF48BBFF45900000
:1006B00091E493FA740193FBC3E49AF54CE49BF53F
:1006C0004D8546828547838548F01208EF8582274D
:1006D000858328900091E493F54C740193F54D8542
:1006E0004982854A83854BF01208EF8582298583EC
:1006F0002A8017E4F54CF54D854682854783854869
:10070000F01208EF858227858328E4F54CF54D85A6
:100710004982854A83854BF01208EF8582298583BB
:100720002A12044CAA82AB83ACF0FD900097E493AC
:10073000C0E0740193C0E0740293C0E0740393C0FE
:10074000E08A828B838CF0ED120CEEAA82AB83AC34
:10075000F0FDE58124FCF581AE43E544CE25E0CEF5
:1007600033CE25E0CE33FFEE24A1F582EF3400F541
:1007700083E493FEA3E493FFA3E493F8A3E493F943
:10078000C006C007C000C0018A828B838CF0ED12C6
:100790000BD8AA82E58124FCF581EA6045D2A2C289
:1007A000A1D2A090008FE493F54C740193F54D8590
:1007B00046828547838548F01208EF858227858326
:1007C0002890008FE493F54C740193F54D85498290
:1007D000854A83854BF01208EF85822985832A029A
:1007E00008EE12044CAA82AB83ACF0FDAE43E544A4
:1007F000CE25E0CE33CE25E0CE33FFEE24A1F58228
:10080000EF3400F583E493FEA3E493FFA3E493F8AD
:10081000A3E493F9C002C003C004C005900097E4AC
:1008200093C0E0740193C0E0740293C0E07403933A
:10083000C0E08E828F8388F0E9120CEEAE82AF8327
:10084000A8F0F9E58124FCF581D005D004D003D0CF
:1008500002C006C007C000C0018A828B838CF0ED05
:10086000120BA8AA82E58124FCF581EA6052D2A28B
:10087000C2A1D2A090008FE493FA740193FBC3E469
:100880009AF54CE49BF54D8546828547838548F073
:100890001208EF85822785832890008FE493FA74ED
:1008A0000193FBC3E49AF54CE49BF54D85498285A1
:1008B0004A83854BF01208EF85822985832A802E92
:1008C000E4F54CF54D8546828547838548F012084E
:1008D000EF858227858328E4F54CF54D854982858F
:1008E0004A83854BF01208EF85822985832A228569
:1008F000824E85834F85F0509000D1E493F551747A
:100900000193F552AF51A852854E82854F83855091
:10091000F0E4120D7DA3E4120D7D8F0188051FBF49
:10092000FF0118C3740199E464808DF063F0809531
:10093000F040030209BE854E82854F838550F01238
:100940000B80F553A3120B80F5548F01E8C925E005
:10095000C933FAE9254EF9EA354FFAAB5089828A54
:10096000838BF0120B80FCA3120B80FDEC2553FC53
:10097000ED3554FD854E82854F838550F0EC120D88
:100980007DA3ED120D7DEF24FFFCE834FFCC25E0C4
:10099000CC33FDEC254EFCED354FFDAE508C828DF9
:1009A000838EF0120B80FCA3120B80FD89828A8358
:1009B0008BF0EC120D7DA3ED120D7D02091A854E10
:1009C00082854F838550F0120B80FAA3120B80FBB7
:1009D000E54C2AFAE54D3BFB854E82854F838550D9
:1009E000F0EA120D7DA3EB120D7D85511085521199
:1009F0008A828B83020D96D2A2C2A1D2A0900091CE
:100A0000E493FA740193FB8A278B28C3E49AF529AF
:100A1000E49BF52A120AAB120AABE4F529F52AF594
:100A200027F528227A007B007C007D00C3EC94032C
:100A3000ED94005071758200C002C003C004C0056F
:100A4000120B24120B9CAE82AF83A8F0F990009396
:100A5000E493C0E0740193C0E0740293C0E07403B7
:100A600093C0E08E828F8388F0E9120BA8AE82E5F6
:100A70008124FCF581D005D004D003D002EE6015AE
:100A80008CF005F07E017F008006EE2EFEEF33FF36
:100A9000D5F0F780047E007F00EE4202EF42030CA7
:100AA000BC00890D80868A828B83227A0A79B47889
:100AB000B4D8FED9FADAF62222120B24120B9CAA21
:100AC00082AB83ACF0FDC002C003C004C00590E15E
:100AD0004875F09A7440120C08AA82AB83ACF0FD02
:100AE000E58124FCF581E4C0E074C0C0E0747FC0FF
:100AF000E07444C0E08A828B838CF0ED120DD9AA99
:100B000082AB83ACF0FDE58124FCF5818A828B8386
:100B10008CF0ED22AA8253C47F8AC5748055C4FA32
:100B2000BA80F822AA8253C3BF75C33F43C340C2F1
:100B30009474184AF582120B147A0A7B001ABAFFD1
:100B4000011BEA4B70F7758255120B14743F55C5A3
:100B5000FB7A00758255C002C003120B14D003D07B
:100B600002D29474F055C5FC7D00EC2AFAED3BC42A
:100B7000CAC4540F6ACA540FCA6ACA8A82F5832249
:100B800020F71430F6148883A88220F507E6A8839E
:100B900075830022E280F7E49322E022E4AC83AB89
:100BA00082FAF9748E020F2AFFA8811818120F52C8
:100BB000D2D133E6400730E70B7582012220E706E9
:100BC00075820022C2D1120F34E97003F5822230FF
:100BD000D101B3E433F58222FFA8811818120F5215
:100BE000D2D133E6400730E70B7582002220E706BA
:100BF00075820122C2D1120F34E97003F5822220DE
:100C0000D101B3E433F58222120FFFBC0003020FBF
:100C10009EEF60FA30D502B2D1E583B4FF03020F34
:100C2000B4E582B4FF03020FB42583400724824059
:100C30000B020F9E2483145003020FB4F582EA8D39
:100C4000F0A4A8F0EA8EF0A428F8E435F0F9EB8DD2
:100C5000F0A428E935F0F9E433CA8FF0A429F9EAC1
:100C600035F0FAEBF88EF0A429F9EA35F0FAE4331E
:100C7000FBEC8DF0A429F9EA35F0FAE43BFBE88FB0
:100C8000F0A42AFAEB35F0FBE433CCFD8EF0A42A75
:100C9000FAEB35F0FBE43CFCED8FF0A42BFBEC35DC
:100CA000F0FC20E703120FCC020F7D8508108509A8
:100CB00011121069AA82AB83C002C0031210DFAC0C
:100CC00082AD83D003D002EC4D601E8C068D077878
:100CD000007510008A118B128E828F8388F0C004F9
:100CE000C00512102DD005D0048C828D8322120FE6
:100CF000FF7900E583B58202800D50031211B8E53B
:100D000083C395821211D2E5D0C465D020E117EAE1
:100D10002DFAEB3EFBEC3FFC500974011211D2ECB2
:100D20004480FC020F7DC3EA9DFAEB9EFBEC9FFC26
:100D3000500FC3E499F9E49AFAE49BFBE49CFCB2FB
:100D4000D1120FCC020F7D021BA1858263858364C3
:100D500085F065850F66900D470215F4C00A858100
:100D60000AE50A24FBF566E50A24FBF88663088693
:100D700064088665900D471215F4D00A2220F710FA
:100D800030F6118883A88220F507F6A883758300C2
:100D900022F280F7F022C2D5E58330E70DD2D5E408
:100DA000C39582F582E49583F583E51130E70DB2B2
:100DB000D5E4C39510F510E49511F511120EF83035
:100DC000D50BE4C39582F582E49583F58322A8814F
:100DD0001818C6B2E7C6020CEE120FFF30D502B2E9
:100DE000D1BF0009BC0003020FC1020FB4BC000355
:100DF000020F9EE583B4FF0BE582B4FF03020FC12F
:100E0000020F9EE582B4FF03020FB4C3958350071F
:100E1000247F400B020F9E2480145003020FB4C0A5
:100E2000E0E4CCCBCAF98D108E118F12EF54F0C4D0
:100E3000F5137583068513F0EB84F582E9C4F9EAAE
:100E4000C4FAEBC4FBEC540FC47803D6FC18EBD601
:100E5000FB18EAD6FA8582F0EDA4A8F0FD8582F0B1
:100E6000EEA428FEE435F0F88582F0EFA428FFE434
:100E700035F0F8E99DF9EA9EFAEB9FFBEC98FCADA2
:100E800010AE11AF1230E7101582E92DF9EA3EFAE3
:100E9000EB3FFBE43CFC80EDC082D58398C3E93393
:100EA000F9EA33FAEB33FBEC33FCC3E99DEA9EEB42
:100EB0009FEC9400B3E413F9D002D0E0C44AFAD016
:100EC00003D0E0C44BFBD004D0E0F5F0540FC44C89
:100ED000FCD082158230F40FD3EC13FCEB13FBEA49
:100EE00013FAE913F90582E930E70A74012AFAE4F2
:100EF0003BFBE43CFC020F957A10E4FBFCE5822509
:100F0000E0F582E58333F583EB33FBEC33FCEB95C3
:100F100010F5F0EC95114006FCABF0438201DADDF0
:100F200022FCABF0AA83A982749EC2D1F582120F73
:100F3000CC020F7D7901AA82E68F82B5821318E672
:100F4000B5F00E18E6B5830918E68A82B5820279F3
:100F50000022B4800FE5F0700AE5837006E5827028
:100F6000027F00EFB6801518B6001018B6000B18F7
:100F7000B6000608080876002208080822B980038F
:100F8000EA13B34010EA2401FAE43BFBE43CFC50D2
:100F9000047C800582BC000EBB000BBA0008E4F59F
:100FA000F0F583F58222A2D1E582138CF092F78BC3
:100FB000838A8222E4F583F58275F080F4A2D1134E
:100FC00022E4F583F58275F0C0747F227804EC701A
:100FD00011E58224F8500AF582E4C9CACBFCD8EFA7
:100FE00022EC7820058220E713D5820122C3E93361
:100FF000F9EA33FAEB33FBEC33FCD8EA158222AA88
:1010000082AB83A2F73392D16002D2F7F582ACF0C3
:10101000E58124F9F8E6FD08E6FE0886F008E6A278
:10102000F73392D56002D2F7F583AFF022858213B1
:1010300085831485F015AD13AE14AF15A811A91250
:101040008802890318B8FF0119EA4B60128D828E5D
:10105000838FF0E510120D7DA3AD82AE8380E18514
:1010600013828514838515F022E5828510F0A4C5CE
:1010700082C0F08511F0A4D0F025F0C5838510F072
:10108000A42583F583227A007B009000FFE493FC83
:10109000740193FDEA4B700A0ABA00010B1CBCFFF5
:1010A000011D8A0B8B0C850B82850C83EC2AFAEDD3
:1010B0003BFBEA24FEFAEB34FFFBEAF0A3EBF085FE
:1010C0000B82850C83E0FAA3E0FB8A828B83E4F039
:1010D000A3F0850B82850C83A3A3E4F0A3F0228503
:1010E000820D85830EC374FB950D74FF950E50041D
:1010F000900000227404250DF50DE4350EF50EE583
:101100000B450C7003121086AC0BAD0C8C828D83DA
:10111000E0FEA3E0FF8E008F018C028D03E8C39AEE
:10112000F8E99BF98C828D83A3A3E0FAA3E0FBE8A6
:10113000C39AF8E99BF9C3E8950DE9950E40097447
:10114000042CFAE43DFB80128E048F058C828D8383
:10115000E0FEA3E0FF4E70B4FAFBEA4B6055740268
:101160002CFEE43DFF8E828F83E0F8A3E0F9487007
:101170000D8E828F83E50DF0A3E50EF08035E82C0F
:10118000F8E93DF98C828D83E0FEA3E0FF88828937
:1011900083EEF0A3EFF08C828D83E8F0A3E9F08872
:1011A000828983A3A3E50DF0A3E50EF0740428FA69
:1011B000E439FB8A828B8322E582C583F582A2D142
:1011C00033A2D592D11392D5ECCFFCEBCEFBEACD76
:1011D000FA226040F82582500274FFF582E824F874
:1011E000501ECCCBCAF9E4CC24F85014CBCAF9E495
:1011F000CB24F8500BCAF9E4CA24F8500379002232
:1012000024086010F8C3EC13FCEB13FBEA13FAE9B3
:1012100013F9D8F122AA827426C0E07412C0E0C08B
:1012200055C0568A8222055CE4B55C02055D22AA9F
:101230008274302AFA24C6500A74072AFA30090345
:101240004302208A82021215E582FAC4540FF58205
:10125000C00212122FD002740F5AF58202122FAA66
:1012600057AB58AC59AD5AAE5B756220EE2EFEED11
:10127000235401FF4206EA2AFAEB33FBEC33FCED80
:1012800033FDC3EE955E4008EEC3955EFE4302015A
:10129000D562D98A578B588C598D5A8E5B227873B8
:1012A000E624D075F00AA4FA7874E624D02AFA78F5
:1012B000728603BB2D04C3E49AFA755E01C3E4642D
:1012C000808AF063F08095F050297562038A037478
:1012D000F62562401C055EE562142467F8E5622489
:1012E00067F98704A604772E1BEBFA600405628079
:1012F000DE8B02EA30E70D786886037869A603780A
:1013000068762E0AE560600AE56004FB255EF55EFE
:101310008005301402055E78678603E4BB2D010466
:10132000FB7006200F03301002055E300D03021320
:10133000E5300E57EB600C75822DC002121215D0ED
:1013400002801C300F0C75822BC002121215D002C5
:10135000800D30100A758220C002121215D002785A
:10136000688604BC2E0C758230C002121215D002A1
:10137000155FAC5F155FC3E55E9C400302142975E1
:101380008230C002121215D00280E7AC5F155FC335
:10139000E55E9C500C758220C002121215D00280AE
:1013A000EA78678604BC2D0C75822DC002121215D6
:1013B000D002801C300F0C75822BC002121215D087
:1013C00002800D30100A758220C002121215D00260
:1013D00078688604BC2E52758230C002121215D075
:1013E00002155F8044EB600E75822DC0021212154B
:1013F000D002155F8020300F0E75822BC0021212B2
:1014000015D002155F800F30100C758220C00212BB
:101410001215D002155F78688603BB2E0C758230DA
:10142000C002121215D002155F756201C216E56284
:101430002467F88603BB45030214E6BB2E348A03F7
:10144000C3E464808BF063F08095F0500F758230B8
:10145000C003121215D0031B8B0280E48B02D2163C
:10146000E56070382014030214E675822E121215FE
:1014700080743016278A03EB30E71FC3E46480854D
:1014800060F063F08095F0500C758230C00312124A
:1014900015D00315600B8B0280DD8B0230160EC356
:1014A000E464808560F063F08095F05021E562246B
:1014B00067F886038B82C002121215D00230160E16
:1014C000E5622467F88603BB2E0280021560155F73
:1014D000C3E464808560F063F08095F040032016DB
:1014E00005056202142EC3E464808560F063F08019
:1014F00095F0500A758230121215156080E8300D93
:101500000FAA5F155FEA600875822012121580F13C
:1015100022E560700330140D74072560FAE55FC39F
:101520009AF55F8006E55F24FAF55F7562007867DB
:101530008602BA2B0F200F0C7867762020100575D5
:101540006201055F200D19AA5FC3E464808AF0631D
:10155000F08095F0500A758220121215155F80E711
:10156000C216E5622467F88602BA00028069BA45AD
:101570001F3009027665C3E464808560F063F08003
:1015800095F0500A758230121215156080E8D21657
:10159000C3E5629402E433FA7014EA700EC3E464A3
:1015A000808560F063F08095F04003301616E562A8
:1015B0002467F886028A82121215E56224FD501211
:1015C0001560800E7402B5620930140675822E1201
:1015D00012150562021562300D19AA5FC3E464801A
:1015E0008AF063F08095F0500A758220121215156A
:1015F0005F80E722858255858356E4F55CF55DAA18
:1016000063AB64AC658A828B838CF0120B80FD74B3
:10161000012AF563E43BF5648C65EDFA7003021B67
:101620009ABA25028003021B92C20DC20EC20FC2DB
:1016300010C211C212C213C214C20AC20BC20C756C
:101640005E00755F007560FFAB63AC64AD658B8257
:101650008C838DF0120B80FAA3AB82AC838B638CEE
:10166000648D65BA25078A8212121580928A06BE99
:101670003000402E8A06EE24C6402774FFB5601362
:10168000E55F75F00AA4FEEA24D02EF55F70BFD2A4
:101690000E80BBE56075F00AA4FEEA24D02EF5604A
:1016A00080ACBA2E0A74FFB560A4756000809F8A72
:1016B00006BE6100400E8A06EE248540075302DF15
:1016C000D2098002C209BA20028075BA2303021728
:1016D0004FBA2A03021754BA2B02805FBA2D028038
:1016E00055BA4202805FBA4303021799BA44030213
:1016F00018D4BA45030218EEBA46030218EABA47EC
:10170000030218F2BA49030218D4BA4C02803BBA59
:101710004E030218F6BA4F030218DBBA5003021840
:101720006DBA53030217BDBA55030218E0BA580345
:101730000218E5021920D20D02164ED20F02164EE3
:10174000D21002164ED21202164ED21302164ED2EA
:101750001402164E74FFB5602030120BE56614F8C3
:101760008866865F02164EE56624FEF88866860661
:10177000088607188E5F02164E30120BE56614F8C5
:101780008866866002164EE56624FEF88866860640
:10179000088607188E6002164E30120AE56614F8A5
:1017A00088668602800FE56624FEF8886686030850
:1017B0008604188B028A82121215021925E5662406
:1017C000FDF88866860308860408860518188B5776
:1017D0008C588D598B828C838DF0121CD5AB82ACCA
:1017E000838B6174FFB56003856160200D1DC3E5C7
:1017F00061955F5016E55FC39561F55FAB5F155F5F
:10180000EB600875822012121580F1855782855889
:10181000838559F0120B80FBFA6029AB601560C319
:10182000E464808BF063F08095F050188A82121285
:1018300015AB57AC58AD590BBB00010C8B578C58EE
:101840008D5980C7200D03021925C3E561955F40BE
:1018500003021925E55FC39561F55FAB5F155FEB8B
:10186000700302192575822012121580EEE5662498
:10187000FDF88866860308860408860518188B57C5
:101880008C588D59E559FB30E7047A438013EB54AB
:101890006060047A50800AEB30E6047A4980027A6C
:1018A000588A82C00212121575823A121215758278
:1018B00030121215758278121215D002BA490280C0
:1018C0000BBA500280068558821212488557821240
:1018D00012488051D211755E0A804A755E088045B3
:1018E000755E0A8040755E10803BD20A8037D20B4D
:1018F0008033D20C802FE56624FDF88866860308C5
:10190000860408860518188B578C588D598B828C45
:10191000838DF0E55C120D7DA3E55D120D7D8005E4
:101920008A82121215200A06200B03300C70E5661D
:1019300024FCF8886686030886040886050886065F
:101940001818188B578C588D598E5AE557E558E55D
:1019500059E55A8B828C838DF0EE121BB674FFB55D
:101960006003756006300C27747F555AFB8B5BE56E
:101970005BEB2BFB8B5BE55930E7067401455BF5B0
:101980005BE55B246840067499255B4002D20B300E
:101990000B061215110215FF12129E0215FFE55ECD
:1019A00070030215FF7B6C30122BE56614F8886615
:1019B000E6FC3395E0FDFEFF8C578D588E598F5A0B
:1019C00020115EAC577D007E007F008C578D588EB5
:1019D000598F5A804C30131FE56624FCF8886686C0
:1019E000040886050886060886071818188C578D7F
:1019F000588E598F5A802AE56624FEF88866860438
:101A000008860518ED3395E0FEFF8C578D588E59EA
:101A10008F5A20110CAC57AD587E007F008E598F25
:101A20005A301443E55745584559455A60397408AA
:101A3000B55E0C758230C003121215D00380287475
:101A400010B55E23758230C003121215D003300921
:101A50000C758278C003121215D003800A75825863
:101A6000C003121215D003301125AC57AD58AE5932
:101A7000E55AFF30E717C3E49CFCE49DFDE49EFEBD
:101A8000E49FFF8C578D588E598F5A8002C2117572
:101A90006100D2158B00755B00C00012125FD00090
:101AA00020150DE55BC4FCE6FD4CF61888038002AA
:101AB000A65B0561B215E55745584559455A70D69C
:101AC0008803E55F7003755F01200E1A200D17E58E
:101AD0006104FCC3955F500E758220C0031212157D
:101AE000D003155F80E930110E75822DC0031212EC
:101AF00015D003155F8024E5616020300F0E7582DC
:101B00002BC003121215D003155F800F30100C7517
:101B10008220C003121215D003155F200D1EAC5F8A
:101B2000155FC3E5619C5027300E047C3080027C39
:101B3000208C82C003121215D00380E2C3E56195A8
:101B40005F5009E55FC39561F55F8003755F008BAA
:101B500000AB611561EB6022B21520150A08E6C4DE
:101B6000540FFB8B5B80078603740F5BF55B855B13
:101B700082C00012122FD00080D7200D030215FF63
:101B8000AB5F155FEB70030215FF75822012121513
:101B900080EE8A821212150215FF855C82855D83B4
:101BA00022AA82BA0A0810990280FB75990D109931
:101BB0000280FB8A9922C0E0F84582458345F07097
:101BC00009F5F0FBFCFDFE021C84E823A2F792E07D
:101BD000F8A982AA83D2F7ABF07C007E07C3749782
:101BE00098404074FF2EFE740A89F0A4F985F082B3
:101BF000740A8AF0A4FA85F083740A8BF0A4FB744B
:101C00000529F9EA3582FAEB3583FB740035F0FCDF
:101C1000C3EC13FCEB13FBEA13FAE913F908EC70BD
:101C2000EF80BAE8C3947FF88B838EF0E4FBFCFD71
:101C3000FEFF08C3E933F9EA33FAE58333F583EBB2
:101C40003BD4FBEC3CD4FCED3DD4FDEE3ED4FEEFAA
:101C50003FD4FF602D05F074052BD4FBE43CD4FC8D
:101C6000E43DD4FDE43ED4FEE43FD4FF758204C3DA
:101C7000EF13FFEE13FEED13FDEC13FCEB13FBD59E
:101C800082EDD8AF7867D0E020E704762B8002762B
:101C90002D087906E7C4540F4430F608B9060376D8
:101CA0002E08E7540F4430F60819B902E7764508C4
:101CB000E5F020E704762B8004762DF4040875F017
:101CC0000A844430F608E5F04430F608E4F6900063
:101CD0006775F04022AA82AB83ACF07D007E008A5B
:101CE000828B838CF0120B80FFA3AA82AB83EF6000
:101CF000070DBD00EA0E80E78D828E832200000072
:00000001FF
