:1000000002000E0000000000000000020384758161
:10001000431200FBE582600302007A780079007ADF
:10002000007B007C007D00EC4D601C88828983E4AD
:1000300093A3A882A9838A828B83F0A3AA82AB832D
:100040001CBCFFE31D80E07582007583007C007D91
:1000500000EC4D600AE4F0A31CBCFFF51D80F275B6
:1000600082007583007C007D00EC4D600AE4F0A303
:100070001CBCFFF51D80F21200EE1203DC80FEC0F6
:1000800000F900A400B000990092008200F80080FE
:100090000090004C4344204D73672030004C434493
:1000A000204D73672031004C4344204D736720324C
:1000B000004C4344204D73672033004C4344204D93
:1000C00073672034004C4344204D73672035004C47
:1000D0004344204D73672036004C4344204D7367E2
:1000E0002037003C4E4F20464C4F41543E00E4F533
:1000F00008F509E4F50AF50BD2002275E60075E76C
:100100000075D60075D70175CE0075CF0075C60095
:1001100075C700758E1175BE0075BF0053C63F438D
:10012000C7C0120183C28C75890175F4FF758CFFFD
:1001300075F2C4758AC4D28CD2A9D2AF758200225E
:10014000000000000000227A1479F878B8D8FED9AF
:10015000FADAF62222AA82C0021201A6D0028A90FE
:10016000C2B3D2B2120140C2B20201A6AA82C00238
:100170001201A6D0028A90D2B3D2B2120140C2B20A
:100180000201A61201A6C2B275820C120155758237
:100190003812015575820112015512014075828095
:1001A0001201550201A67C017BB8DBFEDCFA22229B
:1001B000AA82AB83750C4C750D43750E44750F20E8
:1001C00075104D75117375126775132075143075A0
:1001D000150090000C75F040C002C003120659D003
:1001E00003D002EA4B70287493C0E07400C0E0743E
:1001F00080C0E0740CC0E07400C0E07440C0E01245
:100200000613AC82AD83E58124FAF581020346BA78
:10021000012BBB0028749DC0E07400C0E07480C056
:10022000E0740CC0E07400C0E07440C0E01206133B
:10023000AC82AD83E58124FAF581020346BA022B34
:10024000BB002874A7C0E07400C0E07480C0E074F4
:100250000CC0E07400C0E07440C0E0120613AC8231
:10026000AD83E58124FAF581020346BA032BBB0076
:100270002874B1C0E07400C0E07480C0E0740CC0A9
:10028000E07400C0E07440C0E0120613AC82AD839D
:10029000E58124FAF581020346BA042BBB002874D9
:1002A000BBC0E07400C0E07480C0E0740CC0E074B7
:1002B00000C0E07440C0E0120613AC82AD83E5815B
:1002C00024FAF581020346BA052ABB002774C5C08B
:1002D000E07400C0E07480C0E0740CC0E07400C042
:1002E000E07440C0E0120613AC82AD83E58124FACD
:1002F000F5818052BA062ABB002774CFC0E0740093
:10030000C0E07480C0E0740CC0E07400C0E07440D1
:10031000C0E0120613AC82AD83E58124FAF581803A
:100320002574D9C0E07400C0E07480C0E0740CC0D3
:10033000E07400C0E07440C0E0120613AC82AD83EC
:10034000E58124FAF5817A007B008A068B07C3EEEB
:100350009CEF9D5020EA240CF88682C002C003C0A6
:1003600004C00512016CD005D004D003D0020ABA33
:1003700000D80B80D5227A0279F878B8D8FED9FA5D
:10038000DAF62222300004B2B6B2B732AA82C20034
:10039000C002120376D200120376D0027B00BB03A8
:1003A0000050318BF005F07C017D008006EC2CFCC8
:1003B000ED33FDD5F0F78A067F00EE5204EF5205CB
:1003C000EC4D24FF9200C002C003120376D003D08C
:1003D000020B80CAD2001203760203767A007B00F9
:1003E000C2B6D2B7758280C002C003120155D003D5
:1003F000D0028A828B83C002C0031201B085080A32
:1004000085090BA2A4E433FCE4CC25E0CC33FDA2A7
:10041000A3E4337F004CF508EF4DF509850A1D85EF
:100420000B1E85088285098312049AAC82AD83D0A5
:1004300003D002EC2AFAED3BFB751D0AE4F51E8A97
:10044000828B8312058EAA82E583FB30E7067A074A
:100450007B008014C374079AE464808BF063F0809F
:1004600095F050047A007B008A04EBCC25E0CC3375
:10047000FDEC247FF582ED3400F583E493FCA3E4E6
:1004800093FD8C8030A5030203E48A82C002C0037E
:1004900012038CD003D0020203E4AA82AB83EAB534
:1004A0001D07EBB51E0302053DE51D451E700ABA8A
:1004B0000207BB000490FFFF227402B51D08E4B5DB
:1004C0001E0474018001E4FC600ABA0307BB000447
:1004D00090FFFF227403B51D08E4B51E047401806B
:1004E00001E4FD600ABA0107BB000490FFFF22741B
:1004F00001B51D08E4B51E0474018001E4FE600826
:10050000EA4B700490FFFF22E51D451E700ABA01F8
:1005100007BB000490000122EE600ABA0307BB008B
:100520000490000122ED600ABA0207BB00049000AB
:100530000122EC6008EA4B70049000012290000058
:1005400022E51D451E60467A01E51D25E0F51DE505
:100550001E334012F51EE582951DE583951E40036E
:100560000A80E6C3E51E13F51EE51D13F51DC3E560
:1005700082951DF5F0E583951E4005F58385F08293
:10058000C3E51E13F51EE51D13F51DDAE122C2D5E4
:10059000E58330E70DD2D5E4C39582F582E49583F7
:1005A000F583E51E30E70BE4C3951DF51DE4951EAC
:1005B000F51E12054130D50BE4C39582F582E49512
:1005C00083F58322AA82AB22AC23AD248B828C8359
:1005D0008DF0EA120CA10522E4B522020523228542
:1005E000822285832385F024852537852638852733
:1005F0003985283A9005C412070AAA82AB83AC2237
:10060000AD23AE248C828D838EF0E4120CA18A82FD
:100610008B8322C01C85811CE51C24F8F53AE51C5F
:1006200024FBF88622088623088624E51C24F8F893
:1006300086370886380886399005C412070AAA82C8
:10064000AB83AC22AD23AE248C828D838EF0E4127A
:100650000CA18A828B83D01C22AA82AB83ACF07D52
:10066000007E008A828B838CF0120CBAFFA3AA82D0
:10067000AB83EF60070DBD00EA0E80E78D828E83AD
:1006800022AA827492C0E07406C0E0C029C02A8AFF
:1006900082220530E4B53002053122AA8274302A64
:1006A000FA24C6500A74072AFA3001034302208A4A
:1006B00082020681E582FAC4540FF582C002120656
:1006C0009BD002740F5AF58202069BAA2BAB2CAC6E
:1006D0002DAD2EAE2F753620EE2EFEED235401FFEC
:1006E0004206EA2AFAEB33FBEC33FCED33FDC3EEB2
:1006F00095324008EEC39532FE430201D536D98AC1
:100700002B8B2C8C2D8D2E8E2F2285822985832A52
:10071000E4F530F531AA37AB38AC398A828B838C5B
:10072000F0120CBAFD74012AF537E43BF5388C3928
:10073000EDFA7003020C9ABA25028003020C92C2F1
:1007400005C206C207C208C209C20AC20BC20CC255
:1007500002C203C2047532007533007534FFAB3733
:10076000AC38AD398B828C838DF0120CBAFAA3AB06
:1007700082AC838B378C388D39BA25078A82120672
:100780008180928A06BE3000402E8A06EE24C64042
:100790002774FFB53413E53375F00AA4FEEA24D0BC
:1007A0002EF53370BFD20680BBE53475F00AA4FE87
:1007B000EA24D02EF53480ACBA2E0A74FFB534A4E6
:1007C000753400809F8A06BE6100400E8A06EE24C2
:1007D0008540075302DFD2018002C201BA200280A5
:1007E00075BA2303020865BA2A0302086ABA2B0203
:1007F000805FBA2D028055BA4202805FBA4303027D
:1008000008AFBA44030209EABA4503020A04BA4629
:1008100003020A00BA4703020A08BA49030209EAB6
:10082000BA4C02803BBA4E03020A0CBA4F030209CB
:10083000F1BA5003020983BA53030208D3BA55032D
:100840000209F6BA58030209FB020A36D20502076A
:1008500064D207020764D208020764D20A0207645E
:10086000D20B020764D20C02076474FFB534203047
:100870000A0BE53A14F8883A8633020764E53A240D
:10088000FEF8883A8606088607188E330207643019
:100890000A0BE53A14F8883A8634020764E53A24EC
:1008A000FEF8883A8606088607188E3402076430F8
:1008B0000A0AE53A14F8883A8602800FE53A24FEDF
:1008C000F8883A8603088604188B028A8212068109
:1008D000020A3BE53A24FDF8883A860308860408B4
:1008E000860518188B2B8C2C8D2D8B828C838DF08C
:1008F000120659AB82AC838B3574FFB53403853552
:100900003420051DC3E53595335016E533C39535C1
:10091000F533AB331533EB60087582201206818006
:10092000F1852B82852C83852DF0120CBAFBFA60A1
:1009300029AB341534C3E464808BF063F08095F008
:1009400050188A82120681AB2BAC2CAD2D0BBB004C
:10095000010C8B2B8C2C8D2D80C7200503020A3BAC
:10096000C3E53595334003020A3BE533C39535F5BE
:1009700033AB331533EB7003020A3B75822012064A
:100980008180EEE53A24FDF8883A8603088604085B
:10099000860518188B2B8C2C8D2DE52DFB30E7044C
:1009A0007A438013EB546060047A50800AEB30E69F
:1009B000047A4980027A588A82C0021206817582BE
:1009C0003A1206817582301206817582781206818C
:1009D000D002BA4902800BBA50028006852C8212DE
:1009E00006B4852B821206B48051D20975320A8072
:1009F0004A753208804575320A8040753210803B56
:100A0000D2028037D2038033D204802FE53A24FD0E
:100A1000F8883A860308860408860518188B2B8CFC
:100A20002C8D2D8B828C838DF0E530120CA1A3E5EB
:100A300031120CA180058A82120681200206200351
:100A40000330045AE53A24FCF8883A860308860401
:100A50000886050886061818188B2B8C2C8D2D8E71
:100A60002E752BE3752C00752D80852B3B852C3C3A
:100A7000852D3D7401253BFEE4353CFFAB3D8E2BBF
:100A80008F2C8B2D853B82853C83853DF0120CBAE3
:100A9000FBFA70030207158A8212068180CCE532C8
:100AA00070030207157B43300A2BE53A14F8883AA5
:100AB000E6FC3395E0FDFEFF8C2B8D2C8E2D8F2ECA
:100AC00020095EAC2B7D007E007F008C2B8D2C8E50
:100AD0002D8F2E804C300B1FE53A24FCF8883A8687
:100AE000040886050886060886071818188C2B8DBA
:100AF0002C8E2D8F2E802AE53A24FEF8883A860423
:100B000008860518ED3395E0FEFF8C2B8D2C8E2D7D
:100B10008F2E20090CAC2BAD2C7E007F008E2D8FEC
:100B20002E300C43E52B452C452D452E603974089D
:100B3000B5320C758230C003120681D00380287450
:100B400010B53223758230C003120681D003300104
:100B50000C758278C003120681D003800A75825812
:100B6000C003120681D003300925AC2BAD2CAE2D6D
:100B7000E52EFF30E717C3E49CFCE49DFDE49EFEF8
:100B8000E49FFF8C2B8D2C8E2D8F2E8002C2097539
:100B90003500D20D8B00752F00C0001206CBD0009F
:100BA000200D0DE52FC4FCE6FD4CF61888038002ED
:100BB000A62F0535B20DE52B452C452D452E70D6BB
:100BC0008803E533700375330120061A200517E505
:100BD0003504FCC39533500E758220C00312068184
:100BE000D003153380E930090E75822DC00312063B
:100BF00081D00315338024E535602030070E7582DF
:100C00002BC003120681D0031533800F30080C75FA
:100C10008220C003120681D003153320051EAC3399
:100C20001533C3E5359C50273006047C3080027CA8
:100C3000208C82C003120681D00380E2C3E5359583
:100C4000335009E533C39535F53380037533008B95
:100C500000AB351535EB6022B20D200D0A08E6C455
:100C6000540FFB8B2F80078603740F5BF52F852FA6
:100C700082C00012069BD00080D720050302071512
:100C8000AB331533EB700302071575822012068112
:100C900080EE8A82120681020715853082853183B3
:100CA0002220F71030F6118883A88220F507F6A8D5
:100CB0008375830022F280F7F02220F71430F614B7
:100CC0008883A88220F507E6A88375830022E28046
:100CD000F7E49322E0220000000000000000000082
:00000001FF
