:1000000002001E00000000000000000200B8050011
:100010000A000F00140019001E00000200AE7581D6
:1000200021120199E582600302008A780079007A42
:10003000007B007C007D00EC4D601C88828983E49D
:1000400093A3A882A9838A828B83F0A3AA82AB831D
:100050001CBCFFE31D80E07582007583007C007D81
:1000600000EC4D600AE4F0A31CBCFFF51D80F275A6
:1000700082007583007C007D00EC4D600AE4F0A3F3
:100080001CBCFFF51D80F212008F1201F980FEE406
:10009000F508F509E4F50AF50BE4F50CF50DE4F5C2
:1000A0000EF50FE4F510F511E4F512F51322C0E09A
:1000B000E4F514F515D0E032C020C0E0C0F0C082F5
:1000C000C083C002C003C004C005C006C007C00092
:1000D000C001C0D075D00012028585821985831AAF
:1000E00085F01BF51C120281858216858317740129
:1000F000250AF50AE4350BF50BC37463950AE495FC
:100100000B5005E4F50AF50BC3E4950EE464808515
:100110000FF063F08095F05012AA0EAB0FC3E50A02
:100120009AE50B9B9208B39280D282E50F30E712DA
:10013000AA0EAB0FC3E50A9AE50B9B9208B3928215
:10014000D280C3E4950CE46480850DF063F0809563
:10015000F05012AA0CAB0DC3E50A9AE50B9B92086E
:10016000B39284D286E50D30E712AA0CAB0DC3E53D
:100170000A9AE50B9B9208B39286D284D0D0D00124
:10018000D000D007D006D005D004D003D002D08351
:10019000D082D0F0D0E0D0203275E60075E700754F
:1001A000D60075D70075CE0075CF0075C60075C72F
:1001B00000758E1175BE0075BF004387807598521B
:1001C000759B00759AFA759B1E75890175F3FF750D
:1001D0008CFF75F248758A48D28CD2A9D2A8D288F1
:1001E000D2AFE4F50CF50DF50EF50FF514F5157518
:1001F0000803E4F50975820022E51445157005121F
:10020000029680F5AA14AB15BA0105BB0002802046
:10021000BA0205BB00028029BA0305BB000280397F
:10022000BA0405BB00028051BA0548BB00458049AD
:10023000E50845096043150874FFB50802150980F3
:10024000387405B50806E4B50902802D7401250847
:10025000F508E43509F5098020750E32E4F50F75CF
:100260000CCE750DFF1203B9E4F50CF50DF50EF586
:100270000F8006D280C281C282E4F514F515020116
:10028000F990000022851982851A83851BF0E51CF0
:10029000227582002222E50825E0FAE50933FBEA0F
:1002A000240EF582EB3400F583E493FAA3E493FB88
:1002B000C3EA9516EB95175034750C4BE4F50D75A4
:1002C0000E4BE4F50FE50825E0FAE50933FBEA24D7
:1002D0000EF582EB3400F583E493FAA3E493FBC3B9
:1002E000EA9516EB9517500512034E80D8E50825C0
:1002F000E0FAE50933FBEA240EF582EB3400F583DE
:10030000E493FAA3E493FBC3E5169AE5179B5034F4
:10031000750CB5750DFF750EB5750FFFE50825E079
:10032000FAE50933FBEA240EF582EB3400F583E4A9
:1003300093FAA3E493FBC3E5169AE5179B500512C5
:10034000034E80D8E4F50CF50DF50EF50F22E4C050
:10035000E0C0E0C0E074C0C0E0851982851A8385E2
:100360001BF0E51C1203F7AA82E58124FCF581EA63
:10037000600C750E05E4F50F750CFB750DFFE4C000
:10038000E0C0E0C0E07440C0E0851982851A838532
:100390001BF0E51C1203C7AA82E58124FCF581EA63
:1003A000600C750EFB750FFF750C05E4F50D227CD6
:1003B0000A7BB8DBFEDCFA22227A1479F878B8D806
:1003C000FED9FADAF62222FFA8811818120445D2C3
:1003D000D133E6400730E70B7582012220E706752E
:1003E000820022C2D1120427E97003F5822230D1A3
:1003F00001B3E433F58222FFA8811818120445D214
:10040000D133E6400730E70B7582002220E70675FE
:10041000820122C2D1120427E97003F5822220D181
:1004200001B3E433F582227901AA82E68F82B58294
:100430001318E6B5F00E18E6B5830918E68A82B5FA
:100440008202790022B4800FE5F0700AE58370061D
:10045000E58270027F00EFB6801518B6001018B65E
:10046000000B18B6000608080876002208080822C3
:00000001FF
