:03000000020AEC05
:03000B00020A2ABC
:03001B00020A21B5
:10001E00C0E0C0D0C000E4F53EF53FF5407810E5F5
:10002E003BA2E7E53A33F53AE53B33F53BE53E35A2
:10003E003ED4F53EE53F353FD4F53FE5403540D45F
:10004E00F540D8DBD000D0D0D0E02213C0D030E7BE
:10005E000224D030E30224FDD0D022C0E0C0D0C0B4
:10006E0000C03EC03FC0407810C3E540120059F5B5
:10007E0040E53F120059F53FE53E120059F53EE5C9
:10008E003B13F53BE53A13F53AD8DED040D03FD0DE
:10009E003ED000D0D0D0E022C0E0C0D0E53A253C22
:1000AE00F53AE53B353DF53BD0D0D0E022C0E0C07F
:1000BE00D0C3E53A953CF53AE53B953DF53BD0D0BE
:1000CE00D0E022C0E0C0D0C3E53A953CE53B953D7B
:1000DE009203D0D0D0E022C0E0C0D0C3E53C953A28
:1000EE00E53D953B9203D0D0D0E022C0E0C0D0C217
:1000FE0003C3E53C953A7008E53D953B7002D2038B
:10010E00D0D0D0E0221200F92003030200E5221223
:10011E0000F92003030200D122C0E0C0F0C0D0C01D
:10012E0000C001E53A853CF0A4F8A9F0E53B853C1A
:10013E00F0A429F9E435F0FAE53A853DF0A429F961
:10014E00893B883AD001D000D0D0D0F0D0E022C088
:10015E00E0C0F0C0D0C000C001C002C00378807AF9
:10016E00087B00EB48FBF5F0A4C3953AF9E5F09552
:10017E003B49600D50028004E8F45BFBE803F8DABB
:10018E00E28B3A753B00D003D002D001D000D0D024
:10019E00D0F0D0E022C0E0C0D0C000C001C0027AD2
:1001AE0010E4F8F9C3E53A33F53AE53B33F53BE8AD
:1001BE0033F8E933F9C3E8953CE9953D400BE895F2
:1001CE003CF8E9953DF9433A01DAD9D002D001D095
:1001DE0000D0D0D0E022853A3C853B3D22E53AC5A1
:0A01EE003CF53AE53BC53DF53B2228
:1001F80000010101010101010107000201010101E2
:1002080001010107000301010101010101070004C7
:1002180001010101010101070005010101010101BD
:1002280001070006010101010101010700060101A2
:100238000101010101070006020101010101010795
:100248000006030101010101010700060401010183
:10025800010101070006050101010101010700066E
:100268000601010101010107000606010101010162
:100278000107000606020101010101070006060345
:10028800010101010107000606040101010101073E
:100298000006060501010101010700060606010125
:1002A8000101010700060606010101010107000618
:1002B8000606020101010107000606060301010105
:1002C80001070006060604010101010700060606EB
:1002D80005010101010700060606060101010107E3
:1002E80000060606060101010107000606060602C9
:1002F80001010107000606060603010101070006C1
:1003080006060604010101070006060606050101A6
:100318000107000606060606010101070006060693
:100328000606010101070006060606060201010786
:10033800000606060606030101070006060606066D
:100348000401010700060606060605010107000666
:100358000606060606010107000606060606060149
:10036800010700060606060606020107000606063D
:100378000606060301070006060606060604010728
:100388000006060606060605010700060606060616
:100398000606010700060606060606060107000609
:1003A80006060606060602070006060606060606EE
:1003B80003070006060606060606040700060606E4
:1003C80006060606050700060606060606060607CA
:1003D800C000C001790A786FD8FED9FAD001D000E0
:1003E80022C000C00179327864D8FED9FAD001D091
:1003F8000022C000C0017A2879FE78FDD8FED9FA1B
:10040800DAF6D001D0002275D9011204531203E99B
:1004180075D9801204531203E922D2DBC2D9120320
:10042800E975DAFFC2D875D90C12045375D9381298
:1004380004531203E91206E175D901120453120399
:10044800E975D9801204531203FA22C2DA0000D2E5
:10045800D9000000000000C2D91203E922D2DA0054
:1004680000D2D9000000000000C2D91203E92230EE
:100478003132333435363738391022FF2425269067
:100488000477E53F6007540F93F5498003754920C9
:10049800E53EC4540F93F548E53E540F93F54722C3
:1004A80049646C65105072656865617410526566C0
:1004B8006C6F7710536F616B1053657420536F61C5
:1004C8006B2054696D6510536574205265666C6FB6
:1004D800772054696D6510536574205265666C6F9A
:1004E800772054656D701053657420536F616B20CD
:1004F80054656D7010436F6F6C696E6710446F6E52
:100508006510506F776572204F6666102020202096
:100518002020202020202010E54DB401031205657D
:10052800B40203120570B4030312057EB404031267
:10053800058CB4050312059AB406031205A5B40781
:10054800031205B0B408031205BBB409031205C6AB
:10055800B40A031205D4B40B031205DF22C0E090DD
:1005680004A81205F5D0E022C0E09004AD1205F50C
:1005780012064ED0E022C0E09004B51205F512062E
:100588004ED0E022C0E09004BC1205F512064ED011
:10059800E022C0E09004C11205F5D0E022C0E0904E
:1005A80004CF1205F5D0E022C0E09004DF1205F573
:1005B800D0E022C0E09004EF1205F5D0E022C0E0C0
:1005C8009004FD1205F512064ED0E022C0E0900519
:1005D800051205F5D0E022C0E090050A1205F5D015
:1005E800E022C0E09005141205F5D0E022C0E0C07A
:1005F800D012040FE493F5D9120465A3B410F512D0
:100608000687120612D0D0D0E022C0E0C0D08546BE
:100618003A85463A75D9B31204531203E912001EFB
:100628001204878549D91204658548D9120465855D
:1006380047D912046575D9DF12046575D9431204C8
:1006480065D0D0D0E022C0E0C0D085453A75D98BBE
:100658001204531203E912001E1204878549D912A5
:1006680004658548D91204658547D912046575D98A
:10067800DF12046575D943120465D0D0D0E022900A
:1006880001F875D9A81204531203E985463A85463C
:100698003A753C18753D001200D1200314753C14BE
:1006A800753D001200BB753C05753D001201A38025
:1006B80003753A001206C022C001C002E53A60097B
:1006C800A93A7A0AA3DAFDD9F9E493F5D9120465AF
:1006D800A3B407F5D002D0022275D94012045312F0
:1006E80003E975D90E12046575D91F12046575D909
:1006F8001F12046575D91F12046575D91F12046588
:1007080075D91F12046575D91F12046575D90E12A3
:1007180004651203E975D90012046575D91F12041E
:100728006575D90012046575D90012046575D9007C
:1007380012046575D90012046575D91F1204657510
:10074800D9001204651203E975D90012046575D938
:100758001F12046575D91012046575D91012046545
:1007680075D91012046575D91012046575D91F1250
:10077800046575D9001204651203E975D9001204DD
:100788006575D91F12046575D91812046575D918CD
:1007980012046575D91812046575D918120465759F
:1007A800D91F12046575D9001204651203E975D9B9
:1007B8000012046575D91F12046575D91C120465E9
:1007C80075D91C12046575D91C12046575D91C12DB
:1007D800046575D91F12046575D9001204651203E2
:1007E800E975D90012046575D91F12046575D91EFB
:1007F80012046575D91E12046575D91E1204657533
:10080800D91E12046575D91F12046575D900120422
:10081800651203E975D90012046575D91F120465BC
:1008280075D91F12046575D91F12046575D91F1271
:10083800046575D91F12046575D91F12046575D929
:10084800001204651203E975D90012046575D918F8
:1008580012046575D90412046575D9021204657508
:10086800D90212046575D90412046575D9181204E1
:100878006575D9001204651203E92212089A7FA946
:100888001208C50FBFB1F90F75D907120465120315
:10089800FA227E007FA88FD91204531203E98ED959
:1008A8001204650E0F8FD91204531203E98ED91260
:1008B8000465BFB0EF0F75D907120465227E018F5A
:1008C800D91204531203E98ED91204650E1203FAE1
:1008D800BE07EC22C0E074FFF58EF58FF596D0E0E8
:1008E8002285373A753B0012001E9009EBE53E540D
:1008F8000F93F58EE53EC4540F93F58FE53F540FE3
:10090800600493F596227596FF227B647AFA79FA49
:10091800D9FEDAFADBF622D2AB120912C2AB228573
:10092800463A753B0012001E9009EBE53E540F93C2
:10093800F591E53EC4540F93F592E53F540F93F5B6
:020948009322F8
:10094A00C2937480C44400C41209B685333A85340C
:10095A003B753C00753D00753C4A753D0112012707
:10096A00753C00753D041201A3753C11753D0112D9
:10097A0000BBE53A22C2937480C44401C41209B68A
:10098A0085333A85343B753C00753D00753C0475EA
:10099A003D001201A3E53A2292921209E03322A203
:1009AA00911209E03322759B0DD29322D292120939
:1009BA00E03378041209A2D8FB1209E01209E0E434
:1009CA001209A91209A9F534E478081209A9D8FB71
:1009DA00F533E4D29322000000D290000000C290C6
:1009EA0022C0F9A4B0999282F88090758911C28CBC
:1009FA00C28EC28DC28FC2CA75C83075CBFF75CA86
:100A0A00F7D2CA759852758C93758A81758DFA7565
:100A1A008B96D28CD28E22758DFA758B96B28232D3
:100A2A00758C93758A81C0D0C0E0C083C082E59E70
:100A3A0020E102D2040535E535B4643D753500126E
:100A4A00094AF888F012097F25F0F54612052012A6
:100A5A000A94C3E5459546400A6008C2B4C200D26A
:100A6A00E88006D200C2E8D2B420010DE53714F5B9
:100A7A0037B40005753700D201D082D083D0E0D0D8
:100A8A00D0323099FDC299F59922C0E0AF3A854635
:100A9A003A753B0012001EE53F540F2430120A8CAF
:100AAA00E53EC4540F2430120A8CE53E540F24301C
:100ABA00120A8C85453A753B0012001EE53F540F19
:100ACA002430120A8CE53EC4540F2430120A8CE5F5
:100ADA003E540F2430120A8C740A120A8C8F3AD0B0
:020AEA00E02208
:100AEC0075817F759AFF759DFF7541DC75421E758A
:100AFC00439675444B1208DC754D0B754500E59E0D
:100B0C0030E1DDD2AFD201120422020B191209B06E
:100B1C001209F575E800759500759E0075F800755D
:100B2C004D01D2CA020B33754D01754500C202D27C
:100B3C00A9D2F920E94820EA3720EB2320EC122037
:100B4C00F9E512091FC200C3E543941FF543020BDC
:100B5C0098754D08120CDF20ECF71208DC80C87574
:100B6C0097FF754D05120D2320EBF41208DC80B7AE
:100B7C00754D07120C9A20EAF71208DC80A9754D06
:100B8C0006120C5520E9F71208DC809B3004030296
:100B9C000AEC754D02D2FA8543453000EFC2007D58
:100BAC002D120912300403020AECB2EDDDF3E54517
:100BBC00241FF545300403020AEC3000F712091F1C
:100BCC00D2FB854437754D04C201300403020AEC94
:100BDC001208E9E537B407038541453001EC1208EA
:100BEC00DCD2FC12091F754D02C200300403020A4C
:100BFC00EC3000F712091FD2FD854237754D03C248
:100C0C0001300403020AEC1208E93001F41208DC8A
:100C1C0012091F754D0975453CD200300403020AB8
:100C2C00ECD2FE2000F575450012091F12091212B4
:100C3C00091F12091212091F754D0AD2FF20F9FB68
:100C4C0030F9FD75F800020B33E54220FA0830FA52
:100C5C00FD04B42E0C1420FB0830FBFD14B41D0154
:100C6C0004F54285423A753B0012001E9009EBE5F3
:100C7C003E540F93F58EE53EC4540F93F58FE53F2C
:100C8C00540F600693F596020C997596FF22E54178
:100C9C0020FA0830FAFD04B4E70C1420FB0830FBF2
:100CAC00FD14B4C70104F54185413A753B001200AF
:100CBC001E9009EBE53E540F93F58EE53EC4540FA0
:100CCC0093F58FE53F540F600693F596020CDE7595
:100CDC0096FF22E54320FA0830FAFD04B4A50C1463
:100CEC0020FB0830FBFD14B4860104F54385433A20
:100CFC00753B0012001E9009EBE53E540F93F58EE8
:100D0C00E53EC4540F93F58FE53F540F600593F502
:100D1C0096020D227596FF22E54420FA0730FAFD63
:100D2C0004B45B0B1420FB0730FBFD14B43B000434
:100D3C00F54485443A753B0012001E9009EBE53EE4
:100D4C00540F93F58EE53EC4540F93F58FE53F5445
:0D0D5C000F600593F596020D677596FF2256
:00000001FF
